{
  "_format": "hh-sol-artifact-1",
  "contractName": "ContractRegistry",
  "sourceName": "contracts/ContractRegistry.sol",
  "abi": [
    {
      "anonymous": false,
      "inputs": [
        {
          "indexed": false,
          "internalType": "string",
          "name": "name",
          "type": "string"
        },
        {
          "indexed": false,
          "internalType": "address",
          "name": "contractAddress",
          "type": "address"
        }
      ],
      "name": "ContractRegistered",
      "type": "event"
    },
    {
      "anonymous": false,
      "inputs": [
        {
          "indexed": true,
          "internalType": "address",
          "name": "previousOwner",
          "type": "address"
        },
        {
          "indexed": true,
          "internalType": "address",
          "name": "newOwner",
          "type": "address"
        }
      ],
      "name": "OwnershipTransferred",
      "type": "event"
    },
    {
      "inputs": [
        {
          "internalType": "string",
          "name": "name",
          "type": "string"
        }
      ],
      "name": "getContractAddress",
      "outputs": [
        {
          "internalType": "address",
          "name": "",
          "type": "address"
        }
      ],
      "stateMutability": "view",
      "type": "function"
    },
    {
      "inputs": [
        {
          "internalType": "string",
          "name": "name",
          "type": "string"
        }
      ],
      "name": "isContractRegistered",
      "outputs": [
        {
          "internalType": "bool",
          "name": "",
          "type": "bool"
        }
      ],
      "stateMutability": "view",
      "type": "function"
    },
    {
      "inputs": [],
      "name": "owner",
      "outputs": [
        {
          "internalType": "address",
          "name": "",
          "type": "address"
        }
      ],
      "stateMutability": "view",
      "type": "function"
    },
    {
      "inputs": [
        {
          "internalType": "string",
          "name": "name",
          "type": "string"
        },
        {
          "internalType": "address",
          "name": "contractAddress",
          "type": "address"
        }
      ],
      "name": "registerContract",
      "outputs": [],
      "stateMutability": "nonpayable",
      "type": "function"
    },
    {
      "inputs": [],
      "name": "renounceOwnership",
      "outputs": [],
      "stateMutability": "nonpayable",
      "type": "function"
    },
    {
      "inputs": [
        {
          "internalType": "address",
          "name": "newOwner",
          "type": "address"
        }
      ],
      "name": "transferOwnership",
      "outputs": [],
      "stateMutability": "nonpayable",
      "type": "function"
    }
  ],
  "bytecode": "0x6080806040523461005b5760008054336001600160a01b0319821681178355916001600160a01b03909116907f8be0079c531659141344cd1fd0a4f28419497f9722a3daafe3b4186f6b6457e09080a361054690816100618239f35b600080fdfe60406080815260048036101561001457600080fd5b600091823560e01c806304433bbc146103505780633896f226146102e5578063715018a6146102885780637f3c2c281461015a5780638da5cb5b1461012e5763f2fde38b1461006257600080fd5b3461012a57602036600319011261012a576001600160a01b0382358181169391929084900361012657610093610495565b83156100d457505082546001600160a01b0319811683178455167f8be0079c531659141344cd1fd0a4f28419497f9722a3daafe3b4186f6b6457e08380a380f35b906020608492519162461bcd60e51b8352820152602660248201527f4f776e61626c653a206e6577206f776e657220697320746865207a65726f206160448201526564647265737360d01b6064820152fd5b8480fd5b8280fd5b838234610156578160031936011261015657905490516001600160a01b039091168152602090f35b5080fd5b50919034610156578260031936011261015657803567ffffffffffffffff811161012a5761018b9036908301610417565b906024356001600160a01b0381169190829003610284576101aa610495565b8115610241575060607f2a88e68a891ddb61f7aebfdeefd9fb74964fcd5371b692ea59cca73fc58f4805928592835190825191602081818601946101ef8183886104ed565b81016001815203019020816bffffffffffffffffffffffff60a01b82541617905561022c85519586948186525193848092870152868601906104ed565b6020830152601f01601f19168101030190a180f35b606490602086519162461bcd60e51b8352820152601e60248201527f436f6e747261637452656769737472793a207a65726f206164647265737300006044820152fd5b8380fd5b83346102e257806003193601126102e2576102a1610495565b80546001600160a01b03198116825581906001600160a01b03167f8be0079c531659141344cd1fd0a4f28419497f9722a3daafe3b4186f6b6457e08280a380f35b80fd5b5082346102e25760203660031901126102e25782359067ffffffffffffffff82116102e2575060209261031a91369101610417565b8261032d835192838151938492016104ed565b6001908201908152819003830190205490516001600160a01b0390911615158152f35b5091346102e25760203660031901126102e25781359067ffffffffffffffff82116102e257506103839036908301610417565b6020610397845192838151938492016104ed565b60019082019081528190036020019020546001600160a01b03169081156103c2575060209151908152f35b608490602084519162461bcd60e51b8352820152602960248201527f436f6e747261637452656769737472793a20636f6e7472616374206e6f7420726044820152681959da5cdd195c995960ba1b6064820152fd5b81601f8201121561047a5780359067ffffffffffffffff9283831161047f5760405193601f8401601f19908116603f011685019081118582101761047f576040528284526020838301011161047a57816000926020809301838601378301015290565b600080fd5b634e487b7160e01b600052604160045260246000fd5b6000546001600160a01b031633036104a957565b606460405162461bcd60e51b815260206004820152602060248201527f4f776e61626c653a2063616c6c6572206973206e6f7420746865206f776e65726044820152fd5b60005b8381106105005750506000910152565b81810151838201526020016104f056fea26469706673582212207cf444ee51f98fdff2f554e7879f7882967c7c7cc7f7f054b8e3d541a555a77264736f6c63430008120033",
  "linkReferences": {},
  "deployedLinkReferences": {}
}