{
  "_format": "hh-sol-artifact-1",
  "contractName": "DataDAOCore",
  "sourceName": "contracts/DataDAOCore.sol",
  "abi": [
    {
      "inputs": [
        {
          "internalType": "string",
          "name": "_name",
          "type": "string"
        },
        {
          "internalType": "string",
          "name": "_description",
          "type": "string"
        },
        {
          "internalType": "address",
          "name": "_contractRegistry",
          "type": "address"
        }
      ],
      "stateMutability": "nonpayable",
      "type": "constructor"
    },
    {
      "anonymous": false,
      "inputs": [
        {
          "indexed": false,
          "internalType": "address",
          "name": "contractRegistry",
          "type": "address"
        }
      ],
      "name": "ContractRegistrySet",
      "type": "event"
    },
    {
      "anonymous": false,
      "inputs": [
        {
          "indexed": false,
          "internalType": "string",
          "name": "name",
          "type": "string"
        },
        {
          "indexed": false,
          "internalType": "string",
          "name": "description",
          "type": "string"
        },
        {
          "indexed": false,
          "internalType": "address",
          "name": "owner",
          "type": "address"
        }
      ],
      "name": "DAOInitialized",
      "type": "event"
    },
    {
      "anonymous": false,
      "inputs": [
        {
          "indexed": true,
          "internalType": "address",
          "name": "previousOwner",
          "type": "address"
        },
        {
          "indexed": true,
          "internalType": "address",
          "name": "newOwner",
          "type": "address"
        }
      ],
      "name": "OwnershipTransferred",
      "type": "event"
    },
    {
      "inputs": [],
      "name": "DATASET_REGISTRY",
      "outputs": [
        {
          "internalType": "string",
          "name": "",
          "type": "string"
        }
      ],
      "stateMutability": "view",
      "type": "function"
    },
    {
      "inputs": [],
      "name": "DATA_TOKEN",
      "outputs": [
        {
          "internalType": "string",
          "name": "",
          "type": "string"
        }
      ],
      "stateMutability": "view",
      "type": "function"
    },
    {
      "inputs": [],
      "name": "DEAL_CLIENT",
      "outputs": [
        {
          "internalType": "string",
          "name": "",
          "type": "string"
        }
      ],
      "stateMutability": "view",
      "type": "function"
    },
    {
      "inputs": [],
      "name": "GOVERNANCE_MODULE",
      "outputs": [
        {
          "internalType": "string",
          "name": "",
          "type": "string"
        }
      ],
      "stateMutability": "view",
      "type": "function"
    },
    {
      "inputs": [],
      "name": "MEMBERSHIP_MANAGER",
      "outputs": [
        {
          "internalType": "string",
          "name": "",
          "type": "string"
        }
      ],
      "stateMutability": "view",
      "type": "function"
    },
    {
      "inputs": [],
      "name": "REWARD_DISTRIBUTOR",
      "outputs": [
        {
          "internalType": "string",
          "name": "",
          "type": "string"
        }
      ],
      "stateMutability": "view",
      "type": "function"
    },
    {
      "inputs": [],
      "name": "TASK_MANAGER",
      "outputs": [
        {
          "internalType": "string",
          "name": "",
          "type": "string"
        }
      ],
      "stateMutability": "view",
      "type": "function"
    },
    {
      "inputs": [],
      "name": "contractRegistry",
      "outputs": [
        {
          "internalType": "contract ContractRegistry",
          "name": "",
          "type": "address"
        }
      ],
      "stateMutability": "view",
      "type": "function"
    },
    {
      "inputs": [],
      "name": "createdAt",
      "outputs": [
        {
          "internalType": "uint256",
          "name": "",
          "type": "uint256"
        }
      ],
      "stateMutability": "view",
      "type": "function"
    },
    {
      "inputs": [],
      "name": "description",
      "outputs": [
        {
          "internalType": "string",
          "name": "",
          "type": "string"
        }
      ],
      "stateMutability": "view",
      "type": "function"
    },
    {
      "inputs": [],
      "name": "getDAOStats",
      "outputs": [
        {
          "internalType": "uint256",
          "name": "memberCount",
          "type": "uint256"
        },
        {
          "internalType": "uint256",
          "name": "taskCount",
          "type": "uint256"
        },
        {
          "internalType": "uint256",
          "name": "datasetCount",
          "type": "uint256"
        },
        {
          "internalType": "uint256",
          "name": "proposalCount",
          "type": "uint256"
        }
      ],
      "stateMutability": "view",
      "type": "function"
    },
    {
      "inputs": [
        {
          "internalType": "address",
          "name": "user",
          "type": "address"
        }
      ],
      "name": "getMemberTier",
      "outputs": [
        {
          "internalType": "uint8",
          "name": "",
          "type": "uint8"
        }
      ],
      "stateMutability": "view",
      "type": "function"
    },
    {
      "inputs": [
        {
          "internalType": "address",
          "name": "user",
          "type": "address"
        }
      ],
      "name": "getReputation",
      "outputs": [
        {
          "internalType": "uint256",
          "name": "",
          "type": "uint256"
        }
      ],
      "stateMutability": "view",
      "type": "function"
    },
    {
      "inputs": [
        {
          "internalType": "address",
          "name": "user",
          "type": "address"
        }
      ],
      "name": "isMember",
      "outputs": [
        {
          "internalType": "bool",
          "name": "",
          "type": "bool"
        }
      ],
      "stateMutability": "view",
      "type": "function"
    },
    {
      "inputs": [],
      "name": "name",
      "outputs": [
        {
          "internalType": "string",
          "name": "",
          "type": "string"
        }
      ],
      "stateMutability": "view",
      "type": "function"
    },
    {
      "inputs": [],
      "name": "owner",
      "outputs": [
        {
          "internalType": "address",
          "name": "",
          "type": "address"
        }
      ],
      "stateMutability": "view",
      "type": "function"
    },
    {
      "inputs": [],
      "name": "renounceOwnership",
      "outputs": [],
      "stateMutability": "nonpayable",
      "type": "function"
    },
    {
      "inputs": [
        {
          "internalType": "address",
          "name": "_contractRegistry",
          "type": "address"
        }
      ],
      "name": "setContractRegistry",
      "outputs": [],
      "stateMutability": "nonpayable",
      "type": "function"
    },
    {
      "inputs": [
        {
          "internalType": "address",
          "name": "newOwner",
          "type": "address"
        }
      ],
      "name": "transferOwnership",
      "outputs": [],
      "stateMutability": "nonpayable",
      "type": "function"
    }
  ],
  "bytecode": "0x604060808152346200041f57620014c6803803806200001e8162000424565b92833981016060828203126200041f5781516001600160401b0392908381116200041f57826200005091830162000485565b92602092838301518281116200041f5786916200006f91850162000485565b9201516001600160a01b0391828216918290036200041f57600090815460018060a01b031994338683161784553391167f8be0079c531659141344cd1fd0a4f28419497f9722a3daafe3b4186f6b6457e08480a360018080558751908282116200040b576003918254908282811c9216801562000400575b8a831014620003ec57601f91828111620003a4575b50808a8382116001146200033357879162000327575b5060001982861b1c191690831b1783555b8751938411620003135760049485548381811c9116801562000308575b8b821014620002f557828111620002ad575b5089918511600114620002275793808a97939481620001be9c96600080516020620014a68339815191529e9c9995620001cc9c99946200021b575b501b92600019911b1c19161790555b4260055580620001e2575b5050508651948594606086526060860190620004dc565b9184830390850152620004dc565b33858301520390a151610fa29081620005048239f35b807e611e468d8069392acf1f3328a8b9bc7392788ccfcf0a3a49162c1b29727a299360025416176002558951908152a1388281620001a7565b8a01519350386200018d565b91939290601f1984168684528a8420935b818110620002975750938a9793600080516020620014a68339815191529c9a9793620001cc9a979383620001be9e98106200027c575b505050811b0190556200019c565b8901519060f884600019921b161c191690553880806200026e565b8a830151855593860193918b01918b0162000238565b8682528a82208380880160051c8201928d8910620002eb575b0160051c019084905b828110620002df57505062000152565b838155018490620002cf565b92508192620002c6565b634e487b7160e01b825260228752602482fd5b90607f169062000140565b634e487b7160e01b85526041600452602485fd5b90508b01513862000112565b8492508b908d601f19841690888b52838b20938b915b8383106200038257505050831162000369575b5050811b01835562000123565b8d015160001983881b60f8161c1916905538806200035c565b948482949597989293960151815501940192019086949392918f8f9062000349565b8487528a87208380840160051c8201928d8510620003e2575b0160051c019084905b828110620003d6575050620000fc565b888155018490620003c6565b92508192620003bd565b634e487b7160e01b86526022600452602486fd5b91607f1691620000e7565b634e487b7160e01b84526041600452602484fd5b600080fd5b6040519190601f01601f191682016001600160401b038111838210176200044a57604052565b634e487b7160e01b600052604160045260246000fd5b60005b838110620004745750506000910152565b818101518382015260200162000463565b81601f820112156200041f5780516001600160401b0381116200044a57620004b7601f8201601f191660200162000424565b92818452602082840101116200041f57620004d9916020808501910162000460565b90565b90602091620004f78151809281855285808601910162000460565b601f01601f191601019056fe608060408181526004918236101561001657600080fd5b600092833560e01c91826306fdde0314610684575081631a366bb7146106665781632240939f146106485781632f16baee1461062a5781633ac257e014610601578163715018a6146105a75781637284e416146104a85781638b3e97071461046d5781638da5cb5b146104455781638de728e4146103fc578163969ee63c146103bb5781639c89a0e214610383578163a230c52414610346578163abf410e51461031d578163cf09e0d0146102fe578163f1decd30146102b8578163f2fde38b146101ed578163fcd13d651461012d575063ffc4bfde146100f657600080fd5b34610129578160031936011261012957608090610111610c23565b92939091815194855260208501528301526060820152f35b5080fd5b919050346101e95760203660031901126101e95781356001600160a01b03811692908390036101e55761015e6108d9565b82156101a35750600280546001600160a01b03191683179055519081527e611e468d8069392acf1f3328a8b9bc7392788ccfcf0a3a49162c1b29727a2990602090a180f35b6020606492519162461bcd60e51b8352820152601960248201527f4461746144414f436f72653a207a65726f2061646472657373000000000000006044820152fd5b8380fd5b8280fd5b919050346101e95760203660031901126101e9576001600160a01b038235818116939192908490036102b4576102216108d9565b831561026257505082546001600160a01b0319811683178455167f8be0079c531659141344cd1fd0a4f28419497f9722a3daafe3b4186f6b6457e08380a380f35b906020608492519162461bcd60e51b8352820152602660248201527f4f776e61626c653a206e6577206f776e657220697320746865207a65726f206160448201526564647265737360d01b6064820152fd5b8480fd5b50503461012957816003193601126101295780516102fa916102d982610775565b600a8252691119585b10db1a595b9d60b21b602083015251918291826107e5565b0390f35b5050346101295781600319360112610129576020906005549051908152f35b50503461012957816003193601126101295760025490516001600160a01b039091168152602090f35b9050346101e95760203660031901126101e95735916001600160a01b03831683036103805750610377602092610995565b90519015158152f35b80fd5b9050346101e95760203660031901126101e95735916001600160a01b038316830361038057506103b4602092610b6b565b9051908152f35b50503461012957816003193601126101295780516102fa916103dc82610775565b60098252682230ba30aa37b5b2b760b91b602083015251918291826107e5565b50503461012957816003193601126101295780516102fa9161041d82610775565b60118252702932bbb0b9322234b9ba3934b13aba37b960791b602083015251918291826107e5565b505034610129578160031936011261012957905490516001600160a01b039091168152602090f35b9050346101e95760203660031901126101e95735916001600160a01b0383168303610380575060ff6104a0602093610aa9565b915191168152f35b838334610129578160031936011261012957805191809380549160019083821c9282851694851561059d575b602095868610811461058a57858952908115610566575060011461050e575b6102fa8787610504828c03836107c3565b51918291826107e5565b81529295507f8a35acfbc15ff81a39ae7d344fd709f28e8600b4aa8c65c6b64bfe7fe36bd19b5b82841061055357505050826102fa94610504928201019486806104f3565b8054868501880152928601928101610535565b60ff19168887015250505050151560051b8301019250610504826102fa86806104f3565b634e487b7160e01b845260228352602484fd5b93607f16936104d4565b83346103805780600319360112610380576105c06108d9565b80546001600160a01b03198116825581906001600160a01b03167f8be0079c531659141344cd1fd0a4f28419497f9722a3daafe3b4186f6b6457e08280a380f35b5050346101295781600319360112610129576102fa9061061f6108b2565b9051918291826107e5565b5050346101295781600319360112610129576102fa9061061f610887565b5050346101295781600319360112610129576102fa9061061f61085a565b5050346101295781600319360112610129576102fa9061061f61082e565b929150346101e557836003193601126101e557600354600181811c918690828116801561076b575b6020958686108214610758575084885290811561073657506001146106dd575b6102fa8686610504828b03836107c3565b929550600383527fc2575a0e9e593c00f959f8c92f12db2869c3395a3b0502d05e2516446f71f85b5b82841061072357505050826102fa946105049282010194386106cc565b8054868501880152928601928101610706565b60ff191687860152505050151560051b8301019250610504826102fa386106cc565b634e487b7160e01b845260229052602483fd5b93607f16936106ac565b6040810190811067ffffffffffffffff82111761079157604052565b634e487b7160e01b600052604160045260246000fd5b6060810190811067ffffffffffffffff82111761079157604052565b90601f8019910116810190811067ffffffffffffffff82111761079157604052565b6020808252825181830181905290939260005b82811061081a57505060409293506000838284010152601f8019910116010190565b8181018601518482016040015285016107f8565b6040519061083b82610775565b601082526f476f7665726e616e63654d6f64756c6560801b6020830152565b6040519061086782610775565b601182527026b2b6b132b939b434b826b0b730b3b2b960791b6020830152565b6040519061089482610775565b600f82526e44617461736574526567697374727960881b6020830152565b604051906108bf82610775565b600b82526a2a30b9b5a6b0b730b3b2b960a91b6020830152565b6000546001600160a01b031633036108ed57565b606460405162461bcd60e51b815260206004820152602060248201527f4f776e61626c653a2063616c6c6572206973206e6f7420746865206f776e65726044820152fd5b9081602091031261095057516001600160a01b03811681036109505790565b600080fd5b3d15610990573d9067ffffffffffffffff82116107915760405191610984601f8201601f1916602001846107c3565b82523d6000602084013e565b606090565b6002546001600160a01b0390811691908215610aa1576109d6926109b761085a565b6040518092630110ceef60e21b825281806020988995600483016107e5565b03915afa908115610a9557600091610a68575b5081811615610a5f576000928392604051908682019263288c314960e21b845216602482015260248152610a1c816107a7565b51915afa610a28610955565b90158015610a56575b610a4f57818180518101031261095057015180151581036109505790565b5050600090565b50805115610a31565b50505050600090565b610a889150843d8611610a8e575b610a8081836107c3565b810190610931565b386109e9565b503d610a76565b6040513d6000823e3d90fd5b505050600090565b6002546001600160a01b0390811691908215610aa157610acb926109b761085a565b03915afa908115610a9557600091610b4e575b5081811615610a5f5760009283926040519086820192638b3e970760e01b845216602482015260248152610b11816107a7565b51915afa610b1d610955565b90158015610b45575b610a4f57818180518101031261095057015160ff811681036109505790565b50805115610b26565b610b659150843d8611610a8e57610a8081836107c3565b38610ade565b6002546001600160a01b0390811691908215610aa157610b8d926109b761085a565b03915afa908115610a9557600091610c06575b5081811615610a5f5760009283926040519086820192634e44d07160e11b845216602482015260248152610bd3816107a7565b51915afa610bdf610955565b90158015610bfd575b610a4f57818180518101031261095057015190565b50805115610be8565b610c1d9150843d8611610a8e57610a8081836107c3565b38610ba0565b600080809281928260018060a01b039081600254168015610f5d57610c4661085a565b90604090815194630110ceef60e21b808752602096878180610c6c6004998a83016107e5565b0381875afa908115610e57579087918291610f40575b50838116610edf575b5050610caa87610c996108b2565b8651809381928683528a83016107e5565b0381875afa908115610e57579087918291610ec2575b50838116610e61575b5050610cd787610c99610887565b0381875afa908115610e575788929188918291610e3a575b50848116610dcc575b5050610d1993610d0661082e565b91865180968194829383528a83016107e5565b03915afa918215610dc2578592610da3575b508116610d3e575b505050505093929190565b83928392518681019163c08cc02d60e01b83528152610d5c81610775565b51915afa90610d69610955565b9180610d99575b610d7c575b8080610d33565b909180939550828051810103126103805750015191388080610d75565b5081511515610d70565b610dbb919250863d8811610a8e57610a8081836107c3565b9038610d2b565b83513d87823e3d90fd5b81929495935086518a810190632f5201bd60e01b8252898152610dee81610775565b51915afa610dfa610955565b9080610e30575b610e11575b918688929493610cf8565b909a508681805181010312610e2c5786015199610d19610e06565b8580fd5b5080511515610e01565b610e519150843d8611610a8e57610a8081836107c3565b38610cef565b85513d89823e3d90fd5b85516360bd1a0760e11b8a8201908152888252839291610e8081610775565b51915afa610e8c610955565b9080610eb8575b610e9f575b8690610cc9565b909b508681805181010312610e2c578601519a38610e98565b5080511515610e93565b610ed99150893d8b11610a8e57610a8081836107c3565b38610cc0565b855163997072f760e01b8a8201908152888252839291610efe81610775565b51915afa610f0a610955565b9080610f36575b610f1d575b8690610c8b565b9097508681805181010312610e2c578601519638610f16565b5080511515610f11565b610f579150893d8b11610a8e57610a8081836107c3565b38610c82565b5095505050915050818091819056fea2646970667358221220815ee2fa7dac4c97aeac16e504ae11a7c865d6aa7a0f18fbeda866bfa2ccf5c364736f6c6343000812003385329da6255817020748e1de37a51f953af6ecb498bc78a8d777542ab65c0ea8",
  "linkReferences": {},
  "deployedLinkReferences": {}
}