{
  "_format": "hh-sol-artifact-1",
  "contractName": "DataToken",
  "sourceName": "contracts/DataToken.sol",
  "abi": [
    {
      "inputs": [
        {
          "internalType": "string",
          "name": "name",
          "type": "string"
        },
        {
          "internalType": "string",
          "name": "symbol",
          "type": "string"
        },
        {
          "internalType": "uint256",
          "name": "initialSupply",
          "type": "uint256"
        },
        {
          "internalType": "address",
          "name": "admin",
          "type": "address"
        }
      ],
      "stateMutability": "nonpayable",
      "type": "constructor"
    },
    {
      "anonymous": false,
      "inputs": [
        {
          "indexed": true,
          "internalType": "address",
          "name": "owner",
          "type": "address"
        },
        {
          "indexed": true,
          "internalType": "address",
          "name": "spender",
          "type": "address"
        },
        {
          "indexed": false,
          "internalType": "uint256",
          "name": "value",
          "type": "uint256"
        }
      ],
      "name": "Approval",
      "type": "event"
    },
    {
      "anonymous": false,
      "inputs": [
        {
          "indexed": false,
          "internalType": "uint256",
          "name": "oldAmount",
          "type": "uint256"
        },
        {
          "indexed": false,
          "internalType": "uint256",
          "name": "newAmount",
          "type": "uint256"
        }
      ],
      "name": "FaucetAmountUpdated",
      "type": "event"
    },
    {
      "anonymous": false,
      "inputs": [
        {
          "indexed": true,
          "internalType": "address",
          "name": "user",
          "type": "address"
        },
        {
          "indexed": false,
          "internalType": "uint256",
          "name": "amount",
          "type": "uint256"
        }
      ],
      "name": "FaucetClaimed",
      "type": "event"
    },
    {
      "anonymous": false,
      "inputs": [
        {
          "indexed": false,
          "internalType": "uint256",
          "name": "oldCooldown",
          "type": "uint256"
        },
        {
          "indexed": false,
          "internalType": "uint256",
          "name": "newCooldown",
          "type": "uint256"
        }
      ],
      "name": "FaucetCooldownUpdated",
      "type": "event"
    },
    {
      "anonymous": false,
      "inputs": [
        {
          "indexed": true,
          "internalType": "bytes32",
          "name": "role",
          "type": "bytes32"
        },
        {
          "indexed": true,
          "internalType": "bytes32",
          "name": "previousAdminRole",
          "type": "bytes32"
        },
        {
          "indexed": true,
          "internalType": "bytes32",
          "name": "newAdminRole",
          "type": "bytes32"
        }
      ],
      "name": "RoleAdminChanged",
      "type": "event"
    },
    {
      "anonymous": false,
      "inputs": [
        {
          "indexed": true,
          "internalType": "bytes32",
          "name": "role",
          "type": "bytes32"
        },
        {
          "indexed": true,
          "internalType": "address",
          "name": "account",
          "type": "address"
        },
        {
          "indexed": true,
          "internalType": "address",
          "name": "sender",
          "type": "address"
        }
      ],
      "name": "RoleGranted",
      "type": "event"
    },
    {
      "anonymous": false,
      "inputs": [
        {
          "indexed": true,
          "internalType": "bytes32",
          "name": "role",
          "type": "bytes32"
        },
        {
          "indexed": true,
          "internalType": "address",
          "name": "account",
          "type": "address"
        },
        {
          "indexed": true,
          "internalType": "address",
          "name": "sender",
          "type": "address"
        }
      ],
      "name": "RoleRevoked",
      "type": "event"
    },
    {
      "anonymous": false,
      "inputs": [
        {
          "indexed": true,
          "internalType": "address",
          "name": "from",
          "type": "address"
        },
        {
          "indexed": true,
          "internalType": "address",
          "name": "to",
          "type": "address"
        },
        {
          "indexed": false,
          "internalType": "uint256",
          "name": "value",
          "type": "uint256"
        }
      ],
      "name": "Transfer",
      "type": "event"
    },
    {
      "inputs": [],
      "name": "ADMIN_ROLE",
      "outputs": [
        {
          "internalType": "bytes32",
          "name": "",
          "type": "bytes32"
        }
      ],
      "stateMutability": "view",
      "type": "function"
    },
    {
      "inputs": [],
      "name": "DEFAULT_ADMIN_ROLE",
      "outputs": [
        {
          "internalType": "bytes32",
          "name": "",
          "type": "bytes32"
        }
      ],
      "stateMutability": "view",
      "type": "function"
    },
    {
      "inputs": [],
      "name": "MINTER_ROLE",
      "outputs": [
        {
          "internalType": "bytes32",
          "name": "",
          "type": "bytes32"
        }
      ],
      "stateMutability": "view",
      "type": "function"
    },
    {
      "inputs": [
        {
          "internalType": "address",
          "name": "minter",
          "type": "address"
        }
      ],
      "name": "addMinter",
      "outputs": [],
      "stateMutability": "nonpayable",
      "type": "function"
    },
    {
      "inputs": [
        {
          "internalType": "address",
          "name": "owner",
          "type": "address"
        },
        {
          "internalType": "address",
          "name": "spender",
          "type": "address"
        }
      ],
      "name": "allowance",
      "outputs": [
        {
          "internalType": "uint256",
          "name": "",
          "type": "uint256"
        }
      ],
      "stateMutability": "view",
      "type": "function"
    },
    {
      "inputs": [
        {
          "internalType": "address",
          "name": "spender",
          "type": "address"
        },
        {
          "internalType": "uint256",
          "name": "amount",
          "type": "uint256"
        }
      ],
      "name": "approve",
      "outputs": [
        {
          "internalType": "bool",
          "name": "",
          "type": "bool"
        }
      ],
      "stateMutability": "nonpayable",
      "type": "function"
    },
    {
      "inputs": [
        {
          "internalType": "address",
          "name": "account",
          "type": "address"
        }
      ],
      "name": "balanceOf",
      "outputs": [
        {
          "internalType": "uint256",
          "name": "",
          "type": "uint256"
        }
      ],
      "stateMutability": "view",
      "type": "function"
    },
    {
      "inputs": [
        {
          "internalType": "uint256",
          "name": "amount",
          "type": "uint256"
        }
      ],
      "name": "burn",
      "outputs": [],
      "stateMutability": "nonpayable",
      "type": "function"
    },
    {
      "inputs": [
        {
          "internalType": "address",
          "name": "account",
          "type": "address"
        },
        {
          "internalType": "uint256",
          "name": "amount",
          "type": "uint256"
        }
      ],
      "name": "burnFrom",
      "outputs": [],
      "stateMutability": "nonpayable",
      "type": "function"
    },
    {
      "inputs": [
        {
          "internalType": "address",
          "name": "user",
          "type": "address"
        }
      ],
      "name": "canClaimFromFaucet",
      "outputs": [
        {
          "internalType": "bool",
          "name": "",
          "type": "bool"
        }
      ],
      "stateMutability": "view",
      "type": "function"
    },
    {
      "inputs": [],
      "name": "claimFromFaucet",
      "outputs": [],
      "stateMutability": "nonpayable",
      "type": "function"
    },
    {
      "inputs": [],
      "name": "decimals",
      "outputs": [
        {
          "internalType": "uint8",
          "name": "",
          "type": "uint8"
        }
      ],
      "stateMutability": "view",
      "type": "function"
    },
    {
      "inputs": [
        {
          "internalType": "address",
          "name": "spender",
          "type": "address"
        },
        {
          "internalType": "uint256",
          "name": "subtractedValue",
          "type": "uint256"
        }
      ],
      "name": "decreaseAllowance",
      "outputs": [
        {
          "internalType": "bool",
          "name": "",
          "type": "bool"
        }
      ],
      "stateMutability": "nonpayable",
      "type": "function"
    },
    {
      "inputs": [],
      "name": "faucetAmount",
      "outputs": [
        {
          "internalType": "uint256",
          "name": "",
          "type": "uint256"
        }
      ],
      "stateMutability": "view",
      "type": "function"
    },
    {
      "inputs": [],
      "name": "faucetCooldown",
      "outputs": [
        {
          "internalType": "uint256",
          "name": "",
          "type": "uint256"
        }
      ],
      "stateMutability": "view",
      "type": "function"
    },
    {
      "inputs": [
        {
          "internalType": "bytes32",
          "name": "role",
          "type": "bytes32"
        }
      ],
      "name": "getRoleAdmin",
      "outputs": [
        {
          "internalType": "bytes32",
          "name": "",
          "type": "bytes32"
        }
      ],
      "stateMutability": "view",
      "type": "function"
    },
    {
      "inputs": [
        {
          "internalType": "bytes32",
          "name": "role",
          "type": "bytes32"
        },
        {
          "internalType": "address",
          "name": "account",
          "type": "address"
        }
      ],
      "name": "grantRole",
      "outputs": [],
      "stateMutability": "nonpayable",
      "type": "function"
    },
    {
      "inputs": [
        {
          "internalType": "bytes32",
          "name": "role",
          "type": "bytes32"
        },
        {
          "internalType": "address",
          "name": "account",
          "type": "address"
        }
      ],
      "name": "hasRole",
      "outputs": [
        {
          "internalType": "bool",
          "name": "",
          "type": "bool"
        }
      ],
      "stateMutability": "view",
      "type": "function"
    },
    {
      "inputs": [
        {
          "internalType": "address",
          "name": "spender",
          "type": "address"
        },
        {
          "internalType": "uint256",
          "name": "addedValue",
          "type": "uint256"
        }
      ],
      "name": "increaseAllowance",
      "outputs": [
        {
          "internalType": "bool",
          "name": "",
          "type": "bool"
        }
      ],
      "stateMutability": "nonpayable",
      "type": "function"
    },
    {
      "inputs": [
        {
          "internalType": "address",
          "name": "",
          "type": "address"
        }
      ],
      "name": "lastFaucetTime",
      "outputs": [
        {
          "internalType": "uint256",
          "name": "",
          "type": "uint256"
        }
      ],
      "stateMutability": "view",
      "type": "function"
    },
    {
      "inputs": [
        {
          "internalType": "address",
          "name": "to",
          "type": "address"
        },
        {
          "internalType": "uint256",
          "name": "amount",
          "type": "uint256"
        }
      ],
      "name": "mint",
      "outputs": [],
      "stateMutability": "nonpayable",
      "type": "function"
    },
    {
      "inputs": [],
      "name": "name",
      "outputs": [
        {
          "internalType": "string",
          "name": "",
          "type": "string"
        }
      ],
      "stateMutability": "view",
      "type": "function"
    },
    {
      "inputs": [
        {
          "internalType": "address",
          "name": "minter",
          "type": "address"
        }
      ],
      "name": "removeMinter",
      "outputs": [],
      "stateMutability": "nonpayable",
      "type": "function"
    },
    {
      "inputs": [
        {
          "internalType": "bytes32",
          "name": "role",
          "type": "bytes32"
        },
        {
          "internalType": "address",
          "name": "account",
          "type": "address"
        }
      ],
      "name": "renounceRole",
      "outputs": [],
      "stateMutability": "nonpayable",
      "type": "function"
    },
    {
      "inputs": [
        {
          "internalType": "bytes32",
          "name": "role",
          "type": "bytes32"
        },
        {
          "internalType": "address",
          "name": "account",
          "type": "address"
        }
      ],
      "name": "revokeRole",
      "outputs": [],
      "stateMutability": "nonpayable",
      "type": "function"
    },
    {
      "inputs": [
        {
          "internalType": "uint256",
          "name": "amount",
          "type": "uint256"
        }
      ],
      "name": "setFaucetAmount",
      "outputs": [],
      "stateMutability": "nonpayable",
      "type": "function"
    },
    {
      "inputs": [
        {
          "internalType": "uint256",
          "name": "cooldown",
          "type": "uint256"
        }
      ],
      "name": "setFaucetCooldown",
      "outputs": [],
      "stateMutability": "nonpayable",
      "type": "function"
    },
    {
      "inputs": [
        {
          "internalType": "bytes4",
          "name": "interfaceId",
          "type": "bytes4"
        }
      ],
      "name": "supportsInterface",
      "outputs": [
        {
          "internalType": "bool",
          "name": "",
          "type": "bool"
        }
      ],
      "stateMutability": "view",
      "type": "function"
    },
    {
      "inputs": [],
      "name": "symbol",
      "outputs": [
        {
          "internalType": "string",
          "name": "",
          "type": "string"
        }
      ],
      "stateMutability": "view",
      "type": "function"
    },
    {
      "inputs": [
        {
          "internalType": "address",
          "name": "user",
          "type": "address"
        }
      ],
      "name": "timeUntilFaucet",
      "outputs": [
        {
          "internalType": "uint256",
          "name": "",
          "type": "uint256"
        }
      ],
      "stateMutability": "view",
      "type": "function"
    },
    {
      "inputs": [],
      "name": "totalSupply",
      "outputs": [
        {
          "internalType": "uint256",
          "name": "",
          "type": "uint256"
        }
      ],
      "stateMutability": "view",
      "type": "function"
    },
    {
      "inputs": [
        {
          "internalType": "address",
          "name": "to",
          "type": "address"
        },
        {
          "internalType": "uint256",
          "name": "amount",
          "type": "uint256"
        }
      ],
      "name": "transfer",
      "outputs": [
        {
          "internalType": "bool",
          "name": "",
          "type": "bool"
        }
      ],
      "stateMutability": "nonpayable",
      "type": "function"
    },
    {
      "inputs": [
        {
          "internalType": "address",
          "name": "from",
          "type": "address"
        },
        {
          "internalType": "address",
          "name": "to",
          "type": "address"
        },
        {
          "internalType": "uint256",
          "name": "amount",
          "type": "uint256"
        }
      ],
      "name": "transferFrom",
      "outputs": [
        {
          "internalType": "bool",
          "name": "",
          "type": "bool"
        }
      ],
      "stateMutability": "nonpayable",
      "type": "function"
    }
  ],
  "bytecode": "0x60406080815234620005655762001fd5803803806200001e816200056a565b9283398101608082820312620005655781516001600160401b0392908381116200056557826200005091830162000590565b92602092838301519082821162000565576200006e91840162000590565b906060868401519301519460018060a01b0386168096036200056557805191808311620004655760038054936001938486811c961680156200055a575b8987101462000544578190601f96878111620004ee575b50899087831160011462000487576000926200047b575b505060001982841b1c191690841b1781555b8451918211620004655760049485548481811c911680156200045a575b89821014620004455790818685949311620003ed575b508890868411600114620003825760009362000376575b505082841b92600019911b1c19161783555b68056bc75e2d6310000060065562015180600755600080526005908186528760002087600052865260ff886000205416156200033a575b7fa49807205ce4d355092ef5a8a18f56e8913cf4a201fbe287825b095693c21775806000528287528860002088600052875260ff89600020541615620002fd575b507f9f2df0fed2c77648de5860a4cc508cd0818c85b8b8a1ab4ceeef8d981c8956a691826000528087528860002088600052875260ff89600020541615620002bf575b50505084156200027d57506002549082820180921162000268575060025560008381528083528481208054830190558451918252917fddf252ad1be2c89b69c2b068fc378daa952ba7f163c4a11628f55a4df523b3ef91a3516119b29081620006038239f35b601190634e487b7160e01b6000525260246000fd5b855162461bcd60e51b815291820184905260248201527f45524332303a206d696e7420746f20746865207a65726f206164647265737300604482015260649150fd5b82600052865287600020876000528652876000209060ff1982541617905585339160008051602062001fb5833981519152600080a438808062000202565b8060005282875288600020886000528752886000208260ff1982541617905587339160008051602062001fb5833981519152600080a438620001bf565b6000805281865287600020876000528652876000208160ff198254161790553387600060008051602062001fb58339815191528180a46200017e565b01519150388062000135565b9190859450601f19841692886000528a6000209360005b8c828210620003d65750508511620003bb575b50505050811b01835562000147565b01519060f884600019921b161c1916905538808080620003ac565b838501518755899890960195938401930162000399565b9091925086600052886000208680860160051c8201928b87106200043b575b91879187969594930160051c01915b8281106200042b5750506200011e565b600081558695508791016200041b565b925081926200040c565b602287634e487b7160e01b6000525260246000fd5b90607f169062000108565b634e487b7160e01b600052604160045260246000fd5b015190503880620000d9565b90869350601f19831691856000528b6000209260005b8d828210620004d75750508411620004be575b505050811b018155620000eb565b015160001983861b60f8161c19169055388080620004b0565b8385015186558a979095019493840193016200049d565b90915083600052896000208780850160051c8201928c86106200053a575b918891869594930160051c01915b8281106200052a575050620000c2565b600081558594508891016200051a565b925081926200050c565b634e487b7160e01b600052602260045260246000fd5b95607f1695620000ab565b600080fd5b6040519190601f01601f191682016001600160401b038111838210176200046557604052565b919080601f84011215620005655782516001600160401b0381116200046557602090620005c6601f8201601f191683016200056a565b92818452828287010111620005655760005b818110620005ee57508260009394955001015290565b8581018301518482018401528201620005d856fe6080604081815260048036101561001557600080fd5b600092833560e01c90816301ffc9a714610e815750806306fdde0314610d8d578063095ea7b314610d6357806318160ddd14610d4457806323b872dd14610d07578063248a9ca314610cdd5780632f2ff15d14610c315780633092afd514610b74578063313ce56714610b5857806336568abe14610ac65780633950935114610a7657806340c10f191461086157806342966c681461084357806370a082311461080c57806375b238fc146107d157806379cc6790146107a15780637bc1f6cc146107695780637e36320b1461074a57806381d2fd9c146106f657806391359204146106a257806391d148541461065c57806395d89b4114610558578063983b2d56146104975780639c28143014610478578063a217fddf1461045d578063a457c2d7146103b6578063a9059cbb14610385578063d53913931461035c578063d547741f1461031e578063dd62ed3e146102d5578063e8662981146102a8578063efc10bc41461025c5763fbbfb7821461018e57600080fd5b3461025857826003193601126102585733835260086020526101b68284205460075490611312565b42106102075750338252600860205242818320556101d66006543361187a565b60065490519081527f5d4f415c63cd8a5874d9d291cdd64cec37e5dc236d90d659c958d109d78074b360203392a280f35b6020608492519162461bcd60e51b8352820152602660248201527f44617461546f6b656e3a2066617563657420636f6f6c646f776e206e6f7420656044820152651e1c1a5c995960d21b6064820152fd5b8280fd5b5050346102a45760203660031901126102a45760209161029a9082906001600160a01b03610288610f24565b16815260088552205460075490611312565b4210159051908152f35b5080fd5b5050346102a45760203660031901126102a4576020906102ce6102c9610f24565b61191d565b9051908152f35b5050346102a457806003193601126102a457806020926102f3610f24565b6102fb610f3f565b6001600160a01b0391821683526001865283832091168252845220549051908152f35b50903461025857806003193601126102585761035991356103546001610342610f3f565b9383875260056020528620015461113e565b61129c565b80f35b5050346102a457816003193601126102a4576020905160008051602061195d8339815191528152f35b5050346102a457806003193601126102a4576020906103af6103a5610f24565b6024359033611335565b5160018152f35b50823461045a578260031936011261045a576103d0610f24565b918360243592338152600160205281812060018060a01b0386168252602052205490828210610409576020856103af85850387336114a3565b608490602086519162461bcd60e51b8352820152602560248201527f45524332303a2064656372656173656420616c6c6f77616e63652062656c6f77604482015264207a65726f60d81b6064820152fd5b80fd5b5050346102a457816003193601126102a45751908152602090f35b5050346102a457816003193601126102a4576020906006549051908152f35b5050346102a45760209081600319360112610258576104b4610f24565b906104bd610f55565b60008051602061195d83398151915292838552600581526104e36001838720015461113e565b838552600581528185206001600160a01b039093168086529281528185205460ff161561050e578480f35b8385526005815281852083865290528320805460ff1916600117905533917f2f8788117e7eff1d82e926ec794901d17c78024a50270940304540a733656f0d8480a4388080808480f35b509190346102a457816003193601126102a457805191809380549160019083821c92828516948515610652575b602095868610811461063f5785895290811561061b57506001146105c3575b6105bf87876105b5828c038361127a565b5191829182610ef8565b0390f35b81529295507f8a35acfbc15ff81a39ae7d344fd709f28e8600b4aa8c65c6b64bfe7fe36bd19b5b82841061060857505050826105bf946105b5928201019438806105a4565b80548685018801529286019281016105ea565b60ff19168887015250505050151560051b83010192506105b5826105bf38806105a4565b634e487b7160e01b845260228352602484fd5b93607f1693610585565b50346102585781600319360112610258578160209360ff9261067c610f3f565b90358252600586528282206001600160a01b039091168252855220549151911615158152f35b509034610258576020366003190112610258577f8ddcae6c900e31a96ffcf2f769ac65523cbe587b3a15d3586fec3a28fbc6b13891356106e0610f55565b600754908060075582519182526020820152a180f35b509034610258576020366003190112610258577fd5c900865c3981f605a346229a46710bb52560a90e461926816f770cb1b4549b9135610734610f55565b600654908060065582519182526020820152a180f35b5050346102a457816003193601126102a4576020906007549051908152f35b5050346102a45760203660031901126102a45760209181906001600160a01b03610791610f24565b1681526008845220549051908152f35b5050346102a45736600319011261045a576103596107bd610f24565b602435906107cc8233836115a5565b61163d565b5050346102a457816003193601126102a457602090517fa49807205ce4d355092ef5a8a18f56e8913cf4a201fbe287825b095693c217758152f35b5050346102a45760203660031901126102a45760209181906001600160a01b03610834610f24565b16815280845220549051908152f35b8382346102a45760203660031901126102a45761035990353361163d565b50903461025857806003193601126102585761087b610f24565b9160008051602061195d83398151915280855260209060058252838620338752825260ff8487205416156108b657856103596024358761187a565b85906108c13361176b565b8551916108cd83611248565b60428352848301936060368637835115610a635760308553835190600191821015610a505790607860218601536041915b8183116109e5575050506109a35761099f93869361098b9361097c6048946109539a519a8576020b1b1b2b9b9a1b7b73a3937b61d1030b1b1b7bab73a1604d1b8d978801528251928391603789019101610ed5565b8401917001034b99036b4b9b9b4b733903937b6329607d1b603784015251809386840190610ed5565b0103602881018752018561127a565b5162461bcd60e51b81529283928301610ef8565b0390fd5b50505080606493519262461bcd60e51b845283015260248201527f537472696e67733a20686578206c656e67746820696e73756666696369656e746044820152fd5b909192600f81166010811015610a3d576f181899199a1a9b1b9c1cb0b131b232b360811b901a610a158588611744565b53881c928015610a2a576000190191906108fe565b634e487b7160e01b825260118952602482fd5b634e487b7160e01b835260328a52602483fd5b634e487b7160e01b815260328852602490fd5b634e487b7160e01b815260328752602490fd5b5050346102a457806003193601126102a4576103af602092610abf610a99610f24565b338352600186528483206001600160a01b03821684528652918490205460243590611312565b90336114a3565b508290346102a457826003193601126102a457610ae1610f3f565b90336001600160a01b03831603610afd5790610359913561129c565b608490602085519162461bcd60e51b8352820152602f60248201527f416363657373436f6e74726f6c3a2063616e206f6e6c792072656e6f756e636560448201526e103937b632b9903337b91039b2b63360891b6064820152fd5b5050346102a457816003193601126102a4576020905160128152f35b5050346102a4576020908160031936011261025857610b91610f24565b90610b9a610f55565b60008051602061195d8339815191529283855260058152610bc06001838720015461113e565b838552600581528185206001600160a01b039093168086529281528185205460ff16610bea578480f35b8385526005815281852083865290528320805460ff1916905533917ff6391f5c32d9c69d2a47ea670b442974b53935d1edc7fd64eb21e047a839171b8480a4388080808480f35b50346102585781600319360112610258573590610c4c610f3f565b908284526005602052610c646001828620015461113e565b828452600560209081528185206001600160a01b039093168086529290528084205460ff1615610c92578380f35b82845260056020528084208285526020528320600160ff1982541617905533917f2f8788117e7eff1d82e926ec794901d17c78024a50270940304540a733656f0d8480a43880808380f35b50346102585760203660031901126102585781602093600192358152600585522001549051908152f35b5050346102a45760603660031901126102a4576020906103af610d28610f24565b610d30610f3f565b60443591610d3f8333836115a5565b611335565b5050346102a457816003193601126102a4576020906002549051908152f35b5050346102a457806003193601126102a4576020906103af610d83610f24565b60243590336114a3565b509034610258578260031936011261025857805191836003549060019082821c928281168015610e77575b6020958686108214610e645750848852908115610e425750600114610de9575b6105bf86866105b5828b038361127a565b929550600383527fc2575a0e9e593c00f959f8c92f12db2869c3395a3b0502d05e2516446f71f85b5b828410610e2f57505050826105bf946105b5928201019438610dd8565b8054868501880152928601928101610e12565b60ff191687860152505050151560051b83010192506105b5826105bf38610dd8565b634e487b7160e01b845260229052602483fd5b93607f1693610db8565b92505034610258576020366003190112610258573563ffffffff60e01b81168091036102585760209250637965db0b60e01b8114908115610ec4575b5015158152f35b6301ffc9a760e01b14905038610ebd565b60005b838110610ee85750506000910152565b8181015183820152602001610ed8565b60409160208252610f188151809281602086015260208686019101610ed5565b601f01601f1916010190565b600435906001600160a01b0382168203610f3a57565b600080fd5b602435906001600160a01b0382168203610f3a57565b3360009081527fd8ef4509105c3edb0b04658b4528edc5ddd30ea5a81e623a2623c88db1eb54b660209081526040808320549092907fa49807205ce4d355092ef5a8a18f56e8913cf4a201fbe287825b095693c217759060ff1615610fba5750505050565b610fc33361176b565b845191610fcf83611248565b6042835284830193606036863783511561112a576030855383519060019182101561112a5790607860218601536041915b8183116110bc5750505061107a576109539385936110649361105560489461099f9951988576020b1b1b2b9b9a1b7b73a3937b61d1030b1b1b7bab73a1604d1b8b978801528251928391603789019101610ed5565b0103602881018552018361127a565b5162461bcd60e51b815291829160048301610ef8565b60648486519062461bcd60e51b825280600483015260248201527f537472696e67733a20686578206c656e67746820696e73756666696369656e746044820152fd5b909192600f81166010811015611116576f181899199a1a9b1b9c1cb0b131b232b360811b901a6110ec8588611744565b5360041c92801561110257600019019190611000565b634e487b7160e01b82526011600452602482fd5b634e487b7160e01b83526032600452602483fd5b634e487b7160e01b81526032600452602490fd5b600081815260209060058252604092838220338352835260ff8483205416156111675750505050565b6111703361176b565b84519161117c83611248565b6042835284830193606036863783511561112a576030855383519060019182101561112a5790607860218601536041915b8183116112025750505061107a576109539385936110649361105560489461099f9951988576020b1b1b2b9b9a1b7b73a3937b61d1030b1b1b7bab73a1604d1b8b978801528251928391603789019101610ed5565b909192600f81166010811015611116576f181899199a1a9b1b9c1cb0b131b232b360811b901a6112328588611744565b5360041c928015611102576000190191906111ad565b6080810190811067ffffffffffffffff82111761126457604052565b634e487b7160e01b600052604160045260246000fd5b90601f8019910116810190811067ffffffffffffffff82111761126457604052565b906000918083526005602052604083209160018060a01b03169182845260205260ff6040842054166112cd57505050565b8083526005602052604083208284526020526040832060ff1981541690557ff6391f5c32d9c69d2a47ea670b442974b53935d1edc7fd64eb21e047a839171b339380a4565b9190820180921161131f57565b634e487b7160e01b600052601160045260246000fd5b6001600160a01b0390811691821561145057169182156113ff576000828152806020526040812054918083106113ab57604082827fddf252ad1be2c89b69c2b068fc378daa952ba7f163c4a11628f55a4df523b3ef958760209652828652038282205586815220818154019055604051908152a3565b60405162461bcd60e51b815260206004820152602660248201527f45524332303a207472616e7366657220616d6f756e7420657863656564732062604482015265616c616e636560d01b6064820152608490fd5b60405162461bcd60e51b815260206004820152602360248201527f45524332303a207472616e7366657220746f20746865207a65726f206164647260448201526265737360e81b6064820152608490fd5b60405162461bcd60e51b815260206004820152602560248201527f45524332303a207472616e736665722066726f6d20746865207a65726f206164604482015264647265737360d81b6064820152608490fd5b6001600160a01b0390811691821561155457169182156115045760207f8c5be1e5ebec7d5bd14f71427d1e84f3dd0314c0f7b2291e5b200ac8c7c3b925918360005260018252604060002085600052825280604060002055604051908152a3565b60405162461bcd60e51b815260206004820152602260248201527f45524332303a20617070726f766520746f20746865207a65726f206164647265604482015261737360f01b6064820152608490fd5b60405162461bcd60e51b8152602060048201526024808201527f45524332303a20617070726f76652066726f6d20746865207a65726f206164646044820152637265737360e01b6064820152608490fd5b9060018060a01b03808316600052600160205260406000209082166000526020526040600020549260001984036115dd575b50505050565b8084106115f8576115ef9303916114a3565b388080806115d7565b60405162461bcd60e51b815260206004820152601d60248201527f45524332303a20696e73756666696369656e7420616c6c6f77616e63650000006044820152606490fd5b6001600160a01b031680156116f5576000918183528260205260408320548181106116a557817fddf252ad1be2c89b69c2b068fc378daa952ba7f163c4a11628f55a4df523b3ef926020928587528684520360408620558060025403600255604051908152a3565b60405162461bcd60e51b815260206004820152602260248201527f45524332303a206275726e20616d6f756e7420657863656564732062616c616e604482015261636560f01b6064820152608490fd5b60405162461bcd60e51b815260206004820152602160248201527f45524332303a206275726e2066726f6d20746865207a65726f206164647265736044820152607360f81b6064820152608490fd5b908151811015611755570160200190565b634e487b7160e01b600052603260045260246000fd5b604051906060820182811067ffffffffffffffff82111761126457604052602a82526020820160403682378251156117555760309053815160019081101561175557607860218401536029905b80821161180c5750506117c85790565b606460405162461bcd60e51b815260206004820152602060248201527f537472696e67733a20686578206c656e67746820696e73756666696369656e746044820152fd5b9091600f81166010811015611865576f181899199a1a9b1b9c1cb0b131b232b360811b901a61183b8486611744565b5360041c9180156118505760001901906117b8565b60246000634e487b7160e01b81526011600452fd5b60246000634e487b7160e01b81526032600452fd5b6001600160a01b03169081156118d8577fddf252ad1be2c89b69c2b068fc378daa952ba7f163c4a11628f55a4df523b3ef6020826118bc600094600254611312565b60025584845283825260408420818154019055604051908152a3565b60405162461bcd60e51b815260206004820152601f60248201527f45524332303a206d696e7420746f20746865207a65726f2061646472657373006044820152606490fd5b6001600160a01b031660009081526008602052604090205460075461194191611312565b804210156119565742810390811161131f5790565b5060009056fe9f2df0fed2c77648de5860a4cc508cd0818c85b8b8a1ab4ceeef8d981c8956a6a264697066735822122029a3f26b20dee24c0d8f2c11088d14a91431de4ff1a7f61d2d561f5f2bbe5cf864736f6c634300081200332f8788117e7eff1d82e926ec794901d17c78024a50270940304540a733656f0d",
  "linkReferences": {},
  "deployedLinkReferences": {}
}