{
  "_format": "hh-sol-artifact-1",
  "contractName": "DealClient",
  "sourceName": "contracts/DealClient.sol",
  "abi": [
    {
      "inputs": [],
      "stateMutability": "nonpayable",
      "type": "constructor"
    },
    {
      "anonymous": false,
      "inputs": [
        {
          "indexed": true,
          "internalType": "bytes32",
          "name": "id",
          "type": "bytes32"
        },
        {
          "indexed": false,
          "internalType": "uint64",
          "name": "size",
          "type": "uint64"
        },
        {
          "indexed": true,
          "internalType": "bool",
          "name": "verified",
          "type": "bool"
        },
        {
          "indexed": false,
          "internalType": "uint256",
          "name": "price",
          "type": "uint256"
        }
      ],
      "name": "DealProposalCreate",
      "type": "event"
    },
    {
      "anonymous": false,
      "inputs": [
        {
          "indexed": true,
          "internalType": "bytes",
          "name": "pieceCid",
          "type": "bytes"
        },
        {
          "indexed": false,
          "internalType": "enum DealClient.Status",
          "name": "status",
          "type": "uint8"
        },
        {
          "indexed": false,
          "internalType": "uint64",
          "name": "dealId",
          "type": "uint64"
        }
      ],
      "name": "DealStatusUpdate",
      "type": "event"
    },
    {
      "anonymous": false,
      "inputs": [
        {
          "indexed": false,
          "internalType": "string",
          "name": "received",
          "type": "string"
        }
      ],
      "name": "ReceivedDataCap",
      "type": "event"
    },
    {
      "anonymous": false,
      "inputs": [
        {
          "indexed": true,
          "internalType": "bytes32",
          "name": "role",
          "type": "bytes32"
        },
        {
          "indexed": true,
          "internalType": "bytes32",
          "name": "previousAdminRole",
          "type": "bytes32"
        },
        {
          "indexed": true,
          "internalType": "bytes32",
          "name": "newAdminRole",
          "type": "bytes32"
        }
      ],
      "name": "RoleAdminChanged",
      "type": "event"
    },
    {
      "anonymous": false,
      "inputs": [
        {
          "indexed": true,
          "internalType": "bytes32",
          "name": "role",
          "type": "bytes32"
        },
        {
          "indexed": true,
          "internalType": "address",
          "name": "account",
          "type": "address"
        },
        {
          "indexed": true,
          "internalType": "address",
          "name": "sender",
          "type": "address"
        }
      ],
      "name": "RoleGranted",
      "type": "event"
    },
    {
      "anonymous": false,
      "inputs": [
        {
          "indexed": true,
          "internalType": "bytes32",
          "name": "role",
          "type": "bytes32"
        },
        {
          "indexed": true,
          "internalType": "address",
          "name": "account",
          "type": "address"
        },
        {
          "indexed": true,
          "internalType": "address",
          "name": "sender",
          "type": "address"
        }
      ],
      "name": "RoleRevoked",
      "type": "event"
    },
    {
      "inputs": [],
      "name": "ADMIN_ROLE",
      "outputs": [
        {
          "internalType": "bytes32",
          "name": "",
          "type": "bytes32"
        }
      ],
      "stateMutability": "view",
      "type": "function"
    },
    {
      "inputs": [],
      "name": "AUTHENTICATE_MESSAGE_METHOD_NUM",
      "outputs": [
        {
          "internalType": "uint64",
          "name": "",
          "type": "uint64"
        }
      ],
      "stateMutability": "view",
      "type": "function"
    },
    {
      "inputs": [],
      "name": "DAO_ROLE",
      "outputs": [
        {
          "internalType": "bytes32",
          "name": "",
          "type": "bytes32"
        }
      ],
      "stateMutability": "view",
      "type": "function"
    },
    {
      "inputs": [],
      "name": "DATACAP_ACTOR_ETH_ADDRESS",
      "outputs": [
        {
          "internalType": "address",
          "name": "",
          "type": "address"
        }
      ],
      "stateMutability": "view",
      "type": "function"
    },
    {
      "inputs": [],
      "name": "DATACAP_RECEIVER_HOOK_METHOD_NUM",
      "outputs": [
        {
          "internalType": "uint64",
          "name": "",
          "type": "uint64"
        }
      ],
      "stateMutability": "view",
      "type": "function"
    },
    {
      "inputs": [],
      "name": "DEFAULT_ADMIN_ROLE",
      "outputs": [
        {
          "internalType": "bytes32",
          "name": "",
          "type": "bytes32"
        }
      ],
      "stateMutability": "view",
      "type": "function"
    },
    {
      "inputs": [],
      "name": "MARKET_ACTOR_ETH_ADDRESS",
      "outputs": [
        {
          "internalType": "address",
          "name": "",
          "type": "address"
        }
      ],
      "stateMutability": "view",
      "type": "function"
    },
    {
      "inputs": [],
      "name": "MARKET_NOTIFY_DEAL_METHOD_NUM",
      "outputs": [
        {
          "internalType": "uint64",
          "name": "",
          "type": "uint64"
        }
      ],
      "stateMutability": "view",
      "type": "function"
    },
    {
      "inputs": [
        {
          "internalType": "uint256",
          "name": "value",
          "type": "uint256"
        }
      ],
      "name": "addBalance",
      "outputs": [],
      "stateMutability": "payable",
      "type": "function"
    },
    {
      "inputs": [
        {
          "internalType": "bytes32",
          "name": "",
          "type": "bytes32"
        }
      ],
      "name": "dealRequestIdx",
      "outputs": [
        {
          "internalType": "uint256",
          "name": "idx",
          "type": "uint256"
        },
        {
          "internalType": "bool",
          "name": "valid",
          "type": "bool"
        }
      ],
      "stateMutability": "view",
      "type": "function"
    },
    {
      "inputs": [
        {
          "internalType": "uint256",
          "name": "",
          "type": "uint256"
        }
      ],
      "name": "dealRequests",
      "outputs": [
        {
          "internalType": "bytes",
          "name": "piece_cid",
          "type": "bytes"
        },
        {
          "internalType": "uint64",
          "name": "piece_size",
          "type": "uint64"
        },
        {
          "internalType": "bool",
          "name": "verified_deal",
          "type": "bool"
        },
        {
          "internalType": "string",
          "name": "label",
          "type": "string"
        },
        {
          "internalType": "int64",
          "name": "start_epoch",
          "type": "int64"
        },
        {
          "internalType": "int64",
          "name": "end_epoch",
          "type": "int64"
        },
        {
          "internalType": "uint256",
          "name": "storage_price_per_epoch",
          "type": "uint256"
        },
        {
          "internalType": "uint256",
          "name": "provider_collateral",
          "type": "uint256"
        },
        {
          "internalType": "uint256",
          "name": "client_collateral",
          "type": "uint256"
        },
        {
          "internalType": "uint64",
          "name": "extra_params_version",
          "type": "uint64"
        },
        {
          "components": [
            {
              "internalType": "string",
              "name": "location_ref",
              "type": "string"
            },
            {
              "internalType": "uint64",
              "name": "car_size",
              "type": "uint64"
            },
            {
              "internalType": "bool",
              "name": "skip_ipni_announce",
              "type": "bool"
            },
            {
              "internalType": "bool",
              "name": "remove_unsealed_copy",
              "type": "bool"
            }
          ],
          "internalType": "struct DealClient.ExtraParamsV1",
          "name": "extra_params",
          "type": "tuple"
        },
        {
          "internalType": "uint256",
          "name": "timestamp",
          "type": "uint256"
        },
        {
          "internalType": "address",
          "name": "owner",
          "type": "address"
        }
      ],
      "stateMutability": "view",
      "type": "function"
    },
    {
      "inputs": [],
      "name": "dealsLength",
      "outputs": [
        {
          "internalType": "uint256",
          "name": "",
          "type": "uint256"
        }
      ],
      "stateMutability": "view",
      "type": "function"
    },
    {
      "inputs": [
        {
          "internalType": "uint256",
          "name": "index",
          "type": "uint256"
        }
      ],
      "name": "getDealByIndex",
      "outputs": [
        {
          "components": [
            {
              "internalType": "bytes",
              "name": "piece_cid",
              "type": "bytes"
            },
            {
              "internalType": "uint64",
              "name": "piece_size",
              "type": "uint64"
            },
            {
              "internalType": "bool",
              "name": "verified_deal",
              "type": "bool"
            },
            {
              "internalType": "string",
              "name": "label",
              "type": "string"
            },
            {
              "internalType": "int64",
              "name": "start_epoch",
              "type": "int64"
            },
            {
              "internalType": "int64",
              "name": "end_epoch",
              "type": "int64"
            },
            {
              "internalType": "uint256",
              "name": "storage_price_per_epoch",
              "type": "uint256"
            },
            {
              "internalType": "uint256",
              "name": "provider_collateral",
              "type": "uint256"
            },
            {
              "internalType": "uint256",
              "name": "client_collateral",
              "type": "uint256"
            },
            {
              "internalType": "uint64",
              "name": "extra_params_version",
              "type": "uint64"
            },
            {
              "components": [
                {
                  "internalType": "string",
                  "name": "location_ref",
                  "type": "string"
                },
                {
                  "internalType": "uint64",
                  "name": "car_size",
                  "type": "uint64"
                },
                {
                  "internalType": "bool",
                  "name": "skip_ipni_announce",
                  "type": "bool"
                },
                {
                  "internalType": "bool",
                  "name": "remove_unsealed_copy",
                  "type": "bool"
                }
              ],
              "internalType": "struct DealClient.ExtraParamsV1",
              "name": "extra_params",
              "type": "tuple"
            },
            {
              "internalType": "uint256",
              "name": "timestamp",
              "type": "uint256"
            },
            {
              "internalType": "address",
              "name": "owner",
              "type": "address"
            }
          ],
          "internalType": "struct DealClient.DealRequest",
          "name": "",
          "type": "tuple"
        }
      ],
      "stateMutability": "view",
      "type": "function"
    },
    {
      "inputs": [
        {
          "internalType": "bytes32",
          "name": "proposalId",
          "type": "bytes32"
        }
      ],
      "name": "getDealProposal",
      "outputs": [
        {
          "internalType": "bytes",
          "name": "",
          "type": "bytes"
        }
      ],
      "stateMutability": "view",
      "type": "function"
    },
    {
      "inputs": [
        {
          "internalType": "bytes32",
          "name": "proposalId",
          "type": "bytes32"
        }
      ],
      "name": "getExtraParams",
      "outputs": [
        {
          "internalType": "bytes",
          "name": "",
          "type": "bytes"
        }
      ],
      "stateMutability": "view",
      "type": "function"
    },
    {
      "inputs": [
        {
          "internalType": "bytes",
          "name": "cid",
          "type": "bytes"
        }
      ],
      "name": "getProposalIdSet",
      "outputs": [
        {
          "components": [
            {
              "internalType": "bytes32",
              "name": "requestId",
              "type": "bytes32"
            },
            {
              "internalType": "bool",
              "name": "valid",
              "type": "bool"
            }
          ],
          "internalType": "struct DealClient.RequestId",
          "name": "",
          "type": "tuple"
        }
      ],
      "stateMutability": "view",
      "type": "function"
    },
    {
      "inputs": [
        {
          "internalType": "bytes",
          "name": "cid",
          "type": "bytes"
        }
      ],
      "name": "getProviderSet",
      "outputs": [
        {
          "components": [
            {
              "internalType": "bytes",
              "name": "provider",
              "type": "bytes"
            },
            {
              "internalType": "bool",
              "name": "valid",
              "type": "bool"
            }
          ],
          "internalType": "struct DealClient.ProviderSet",
          "name": "",
          "type": "tuple"
        }
      ],
      "stateMutability": "view",
      "type": "function"
    },
    {
      "inputs": [
        {
          "internalType": "bytes32",
          "name": "role",
          "type": "bytes32"
        }
      ],
      "name": "getRoleAdmin",
      "outputs": [
        {
          "internalType": "bytes32",
          "name": "",
          "type": "bytes32"
        }
      ],
      "stateMutability": "view",
      "type": "function"
    },
    {
      "inputs": [
        {
          "internalType": "bytes32",
          "name": "role",
          "type": "bytes32"
        },
        {
          "internalType": "address",
          "name": "account",
          "type": "address"
        }
      ],
      "name": "grantRole",
      "outputs": [],
      "stateMutability": "nonpayable",
      "type": "function"
    },
    {
      "inputs": [
        {
          "internalType": "uint64",
          "name": "method",
          "type": "uint64"
        },
        {
          "internalType": "uint64",
          "name": "",
          "type": "uint64"
        },
        {
          "internalType": "bytes",
          "name": "params",
          "type": "bytes"
        }
      ],
      "name": "handle_filecoin_method",
      "outputs": [
        {
          "internalType": "uint32",
          "name": "",
          "type": "uint32"
        },
        {
          "internalType": "uint64",
          "name": "",
          "type": "uint64"
        },
        {
          "internalType": "bytes",
          "name": "",
          "type": "bytes"
        }
      ],
      "stateMutability": "nonpayable",
      "type": "function"
    },
    {
      "inputs": [
        {
          "internalType": "bytes32",
          "name": "role",
          "type": "bytes32"
        },
        {
          "internalType": "address",
          "name": "account",
          "type": "address"
        }
      ],
      "name": "hasRole",
      "outputs": [
        {
          "internalType": "bool",
          "name": "",
          "type": "bool"
        }
      ],
      "stateMutability": "view",
      "type": "function"
    },
    {
      "inputs": [
        {
          "internalType": "bytes",
          "name": "piece_cid",
          "type": "bytes"
        },
        {
          "internalType": "uint64",
          "name": "piece_size",
          "type": "uint64"
        },
        {
          "internalType": "bool",
          "name": "verified_deal",
          "type": "bool"
        },
        {
          "internalType": "string",
          "name": "label",
          "type": "string"
        },
        {
          "internalType": "int64",
          "name": "start_epoch",
          "type": "int64"
        },
        {
          "internalType": "int64",
          "name": "end_epoch",
          "type": "int64"
        },
        {
          "internalType": "uint256",
          "name": "storage_price_per_epoch",
          "type": "uint256"
        },
        {
          "internalType": "uint256",
          "name": "provider_collateral",
          "type": "uint256"
        },
        {
          "internalType": "uint256",
          "name": "client_collateral",
          "type": "uint256"
        },
        {
          "internalType": "uint64",
          "name": "extra_params_version",
          "type": "uint64"
        },
        {
          "internalType": "string",
          "name": "location_ref",
          "type": "string"
        },
        {
          "internalType": "uint64",
          "name": "car_size",
          "type": "uint64"
        },
        {
          "internalType": "bool",
          "name": "skip_ipni_announce",
          "type": "bool"
        },
        {
          "internalType": "bool",
          "name": "remove_unsealed_copy",
          "type": "bool"
        }
      ],
      "name": "makeDealProposal",
      "outputs": [
        {
          "internalType": "bytes32",
          "name": "",
          "type": "bytes32"
        }
      ],
      "stateMutability": "nonpayable",
      "type": "function"
    },
    {
      "inputs": [
        {
          "internalType": "bytes",
          "name": "",
          "type": "bytes"
        }
      ],
      "name": "pieceDeals",
      "outputs": [
        {
          "internalType": "uint64",
          "name": "",
          "type": "uint64"
        }
      ],
      "stateMutability": "view",
      "type": "function"
    },
    {
      "inputs": [
        {
          "internalType": "bytes",
          "name": "",
          "type": "bytes"
        }
      ],
      "name": "pieceProviders",
      "outputs": [
        {
          "internalType": "bytes",
          "name": "provider",
          "type": "bytes"
        },
        {
          "internalType": "bool",
          "name": "valid",
          "type": "bool"
        }
      ],
      "stateMutability": "view",
      "type": "function"
    },
    {
      "inputs": [
        {
          "internalType": "bytes",
          "name": "",
          "type": "bytes"
        }
      ],
      "name": "pieceRequests",
      "outputs": [
        {
          "internalType": "bytes32",
          "name": "requestId",
          "type": "bytes32"
        },
        {
          "internalType": "bool",
          "name": "valid",
          "type": "bool"
        }
      ],
      "stateMutability": "view",
      "type": "function"
    },
    {
      "inputs": [
        {
          "internalType": "bytes",
          "name": "",
          "type": "bytes"
        }
      ],
      "name": "pieceStatus",
      "outputs": [
        {
          "internalType": "enum DealClient.Status",
          "name": "",
          "type": "uint8"
        }
      ],
      "stateMutability": "view",
      "type": "function"
    },
    {
      "inputs": [
        {
          "internalType": "bytes32",
          "name": "role",
          "type": "bytes32"
        },
        {
          "internalType": "address",
          "name": "account",
          "type": "address"
        }
      ],
      "name": "renounceRole",
      "outputs": [],
      "stateMutability": "nonpayable",
      "type": "function"
    },
    {
      "inputs": [
        {
          "internalType": "bytes32",
          "name": "role",
          "type": "bytes32"
        },
        {
          "internalType": "address",
          "name": "account",
          "type": "address"
        }
      ],
      "name": "revokeRole",
      "outputs": [],
      "stateMutability": "nonpayable",
      "type": "function"
    },
    {
      "inputs": [
        {
          "internalType": "address",
          "name": "daoContract",
          "type": "address"
        }
      ],
      "name": "setDAOContract",
      "outputs": [],
      "stateMutability": "nonpayable",
      "type": "function"
    },
    {
      "inputs": [
        {
          "internalType": "bytes4",
          "name": "interfaceId",
          "type": "bytes4"
        }
      ],
      "name": "supportsInterface",
      "outputs": [
        {
          "internalType": "bool",
          "name": "",
          "type": "bool"
        }
      ],
      "stateMutability": "view",
      "type": "function"
    },
    {
      "inputs": [
        {
          "internalType": "bytes",
          "name": "pieceCid",
          "type": "bytes"
        }
      ],
      "name": "updateActivationStatus",
      "outputs": [],
      "stateMutability": "nonpayable",
      "type": "function"
    },
    {
      "inputs": [
        {
          "internalType": "address",
          "name": "client",
          "type": "address"
        },
        {
          "internalType": "uint256",
          "name": "value",
          "type": "uint256"
        }
      ],
      "name": "withdrawBalance",
      "outputs": [
        {
          "internalType": "uint256",
          "name": "",
          "type": "uint256"
        }
      ],
      "stateMutability": "nonpayable",
      "type": "function"
    }
  ],
  "bytecode": "0x6080604081815234620000ef57600180556000808052602091818352808220338352835260ff818320541615620000b7575b7fa49807205ce4d355092ef5a8a18f56e8913cf4a201fbe287825b095693c2177592838352828152818320338452815260ff8284205416156200007c575b6140b18581620000f58239f35b83835282815281832090338452528120600160ff198254161790553391600080516020620041a6833981519152339280a4388080806200006f565b8180528183528082203383528352808220600160ff19825416179055333383600080516020620041a68339815191528180a462000031565b600080fdfe6080604052600436101561001257600080fd5b60003560e01c80627067901461021657806301ffc9a7146102115780630a0e0c911461020c5780630cf20cc9146102075780631adf7eb114610202578063248a9ca3146101fd578063297ab486146101f857806329aa3d2a146101f35780632f2ff15d146101ee57806336568abe146101e9578063425d512a146101e45780634634aed5146101df5780634e8a3ca4146101da5780636067f454146101d557806366263735146101d0578063723e4abb146101cb57806375b238fc146101c657806378133bb2146101c1578063868e10c4146101bc57806391d14854146101b757806396925ae6146101b2578063a217fddf146101ad578063a6d1b7b8146101a8578063b34ba252146101a3578063bad79de91461019e578063be965ce714610199578063d547741f14610194578063d91921ed1461018f578063e9c265181461018a578063f44a890314610185578063f4b2e4d8146101805763f82704f01461017b57600080fd5b6116c6565b611589565b611520565b6114e5565b611499565b61145a565b611437565b611370565b611101565b6110d4565b611098565b610f7b565b610ee8565b610dc1565b610d0c565b610c88565b610bb1565b6109fe565b6109df565b6109af565b6108dd565b61076a565b6106d6565b610612565b6105ef565b6105d1565b6105a2565b610568565b610500565b6104aa565b61023a565b34610235576000366003190112610235576020604051639d8b06788152f35b600080fd5b346102355760203660031901126102355760043563ffffffff60e01b811680910361023557602090637965db0b60e01b811490811561027f575b506040519015158152f35b6301ffc9a760e01b14905038610274565b634e487b7160e01b600052604160045260246000fd5b604081019081106001600160401b038211176102c157604052565b610290565b608081019081106001600160401b038211176102c157604052565b6101a081019081106001600160401b038211176102c157604052565b602081019081106001600160401b038211176102c157604052565b90601f801991011681019081106001600160401b038211176102c157604052565b60405190610346826102fd565b565b60405190610346826102a6565b60405190610346826102e1565b60405190610346826102c6565b6001600160401b0381116102c157601f01601f191660200190565b81601f82011215610235578035906103a18261036f565b926103af6040519485610318565b8284526020838301011161023557816000926020809301838601378301015290565b602060031982011261023557600435906001600160401b038211610235576103fb9160040161038a565b90565b60005b8381106104115750506000910152565b8181015183820152602001610401565b90610434602092828151948592016103fe565b0190565b60206104519181604051938285809451938492016103fe565b8101600681520301902090565b60206104779181604051938285809451938492016103fe565b8101600481520301902090565b602061049d9181604051938285809451938492016103fe565b8101600781520301902090565b346102355760206001600160401b036104ca6104c5366103d1565b610438565b5416604051908152f35b600435906001600160a01b038216820361023557565b602435906001600160a01b038216820361023557565b34610235576040366003190112610235576105196104d4565b50610522611739565b60008051602061405c83398151915260606040516020815260116020820152702130b630b731b2902bb4ba34323930bbb760791b6040820152a160206040516024358152f35b3461023557602036600319011261023557600435600052600260205260408060002060ff6001825492015416825191825215156020820152f35b346102355760203660031901126102355760043560005260006020526020600160406000200154604051908152f35b34610235576000366003190112610235576020600354604051908152f35b3461023557600036600319011261023557604051600560ff60981b018152602090f35b346102355760403660031901126102355760043561062e6104ea565b6000918083528260205261064860016040852001546118ac565b808352602083815260408085206001600160a01b0385166000908152925290205460ff1615610675578280f35b808352602083815260408085206001600160a01b038516600090815292529020805460ff1916600117905533916001600160a01b0316907f2f8788117e7eff1d82e926ec794901d17c78024a50270940304540a733656f0d8480a438808280f35b34610235576040366003190112610235576106ef6104ea565b336001600160a01b0382160361070d5761070b90600435611953565b005b60405162461bcd60e51b815260206004820152602f60248201527f416363657373436f6e74726f6c3a2063616e206f6e6c792072656e6f756e636560448201526e103937b632b9903337b91039b2b63360891b6064820152608490fd5b34610235576020366003190112610235576107836104d4565b61078b611739565b6001600160a01b0381168015610862576001600160a01b03821660009081527fc39f11a9300b508470eaed31f5842ba08c93181bcbe6a7fe34039aa7f2b80742602052604081205490927f3b5d4cc60d3ec3516ee8ae083bd60934f6eb2a6c54b1229985c41bfb092b2603929160ff1615610804578380f35b61082a9083855284602052604085209060018060a01b0316600052602052604060002090565b805460ff1916600117905533917f2f8788117e7eff1d82e926ec794901d17c78024a50270940304540a733656f0d8480a43880808380f35b60405162461bcd60e51b815260206004820152601860248201527f4465616c436c69656e743a207a65726f206164647265737300000000000000006044820152606490fd5b906020916108c0815180928185528580860191016103fe565b601f01601f1916010190565b9060206103fb9281815201906108a7565b34610235576020366003190112610235576101406108fc600435612626565b0151604080519161090c836102a6565b610914611b8e565b92838152602081019360008552610929611b8e565b50836020820152835180915260008152606081019081106102355760606109a09360006109ab9761099b9488525261096084613dd3565b61096b815185613c52565b6109826001600160401b0360208301511685613e40565b61099186820151151585613d46565b0151151582613d46565b613b5e565b9051918291826108cc565b0390f35b346102355760406109c76109c2366103d1565b61045e565b60ff6001825492015416825191825215156020820152f35b3461023557600036600319011261023557602060405163f98c99668152f35b3461023557610a0c366103d1565b6001600160401b03610a1d82610438565b541615610aaa57610a3d610a3082610484565b805460ff19166003179055565b7fafffd9709c4b07f7b486c0e0a52051ef53183345822876a7c015a05ed15c0e83610aa5610a83610a7d610a7085610438565b546001600160401b031690565b936126be565b60408051600381526001600160401b0390951660208601529093918291820190565b0390a2005b60405162461bcd60e51b815260206004820152603060248201527f4465616c436c69656e743a206e6f206465616c207075626c697368656420666f60448201526f1c881d1a1a5cc81c1a5958d94818da5960821b6064820152608490fd5b602435906001600160401b038216820361023557565b61012435906001600160401b038216820361023557565b61016435906001600160401b038216820361023557565b600435906001600160401b038216820361023557565b60443590811515820361023557565b6101843590811515820361023557565b6101a43590811515820361023557565b608435908160070b820361023557565b60a435908160070b820361023557565b34610235576101c0366003190112610235576001600160401b0360043581811161023557610be390369060040161038a565b90610bec610b08565b91610bf5610b62565b9060643583811161023557610c0e90369060040161038a565b91610c17610b91565b91610c20610ba1565b91610c29610b1e565b9061014435968711610235576109ab97610c4a610c7898369060040161038a565b93610c53610b35565b95610c5c610b71565b97610c65610b81565b99610104359560e4359560c43595611d1e565b6040519081529081906020820190565b346102355760003660031901126102355760206040517fa49807205ce4d355092ef5a8a18f56e8913cf4a201fbe287825b095693c217758152f35b906020600319830112610235576004356001600160401b039283821161023557806023830112156102355781600401359384116102355760248483010111610235576024019190565b3461023557610d8e610d1d36610cc3565b610d25611b8e565b5060206040928284519384928337810160058152030190209060ff6001825193610d4e856102a6565b8351610d6581610d5e81856111b0565b0382610318565b8552015416906020830191151582528051938493602085525182602086015260608501906108a7565b91511515908301520390f35b6060906001600160401b036103fb94936000835216602082015281604082015201906108a7565b3461023557606036600319011261023557610dda610b4c565b610de2610b08565b506001600160401b039060443582811161023557610e0490369060040161038a565b50610e0d611a45565b9160009116639d8b06788103610e4e57505050610e28612746565b610e3c610e33613ae1565b61099b81613cd6565b60515b6109ab60405192839283610d9a565b63f98c99668103610e675750610e62612758565b610e3f565b63de180de303610e7957610e626127b2565b60405162461bcd60e51b815260206004820152603e60248201527f4465616c436c69656e743a207468652066696c65636f696e206d6574686f642060448201527f74686174207761732063616c6c6564206973206e6f742068616e646c656400006064820152608490fd5b0390fd5b3461023557604036600319011261023557602060ff610f2e610f086104ea565b6004356000526000845260406000209060018060a01b0316600052602052604060002090565b54166040519015158152f35b90606080610f5184516080855260808501906108a7565b936001600160401b0360208201511660208501526040810151151560408501520151151591015290565b3461023557602036600319011261023557610f94611ba8565b50610fa9610fa3600435611136565b50611c2b565b6040518091602082526109ab8151610fcf6101a0918260208701526101c08601906108a7565b60208401516001600160401b031660408601529260408101511515606086015261107961100e606083015195601f1996878983030160808a01526108a7565b608083015160070b60a088015260a083015160070b60c088015260c083015160e088015260e08301516101009081890152830151610120908189015283015161106561014091828a01906001600160401b03169052565b830151610160968883030187890152610f3a565b938101516101808681019190915201516001600160a01b031690840152565b3461023557600036600319011261023557602060405160008152f35b600511156110be57565b634e487b7160e01b600052602160045260246000fd5b346102355760ff6110ec6110e7366103d1565b610484565b541660405160058210156110be576020918152f35b3461023557600036600319011261023557602060405163de180de38152f35b634e487b7160e01b600052603260045260246000fd5b60035481101561117157600c906003600052027fc2575a0e9e593c00f959f8c92f12db2869c3395a3b0502d05e2516446f71f85b0190600090565b611120565b90600182811c921680156111a6575b602083101461119057565b634e487b7160e01b600052602260045260246000fd5b91607f1691611185565b90600092918054916111c183611176565b91828252600193848116908160001461122357506001146111e3575b50505050565b90919394506000526020928360002092846000945b83861061120f5750505050010190388080806111dd565b8054858701830152940193859082016111f8565b9294505050602093945060ff191683830152151560051b010190388080806111dd565b9061034661125a92604051938480926111b0565b0383610318565b9060405161126e816102c6565b606060ff6001839560405161128781610d5e81856111b0565b855201546001600160401b0381166020850152818160401c161515604085015260481c161515910152565b98926103469c9e9d9b9661131e6113116113579b956101809e988e611304611328976113499d9f996112f46001600160401b03916101a08087528601906108a7565b9516602084015215156040830152565b60608184039101526108a7565b9960808d019060070b9052565b60070b60a08b0152565b60c089015260e08801526101008701526001600160401b0316610120860152565b838203610140850152610f3a565b6101608201969096526001600160a01b03909216910152565b34610235576020366003190112610235576004356003548110156102355761139790611136565b506040516113a981610d5e81856111b0565b6109ab6001830154916113be60028501611246565b936003810154600482015460058301546006840154906113e860078601546001600160401b031690565b926113f560088701611261565b600a870154600b909701549095906001600160a01b0316976040519b8c9b8c8460401c60070b9460070b936001600160401b0360ff8460401c169316916112b2565b3461023557600036600319011261023557604051600760ff60981b018152602090f35b346102355760403660031901126102355761070b6004356114796104ea565b908060005260006020526114946001604060002001546118ac565b611953565b6020366003190112610235576114ad611739565b60008051602061405c833981519152606060405160208152600d60208201526c10985b185b98d9481059191959609a1b6040820152a1005b346102355760003660031901126102355760206040517f3b5d4cc60d3ec3516ee8ae083bd60934f6eb2a6c54b1229985c41bfb092b26038152f35b34610235576040602061153236610cc3565b91906000828551611542816102a6565b82815201528284519384928337810160048152030190208151611564816102a6565b602060ff60018454948585520154169101901515815282519182525115156020820152f35b34610235576020366003190112610235576109ab6116ba6115ab600435612626565b6116af6115b661258e565b9180516115c1610339565b90815283526115ed6115dd60208301516001600160401b031690565b6001600160401b03166020850152565b6116066115fd6040830151151590565b15156040850152565b61160f306136ca565b606084015261161c613729565b6080840152606081015161162e610348565b9081526001602082015260a0840152611661611657611651608084015160070b90565b60070b90565b60070b60c0850152565b61167f61167561165160a084015160070b90565b60070b60e0850152565b61168c60c08201516135eb565b9061010091828501526116a260e08201516135eb565b61012085015201516135eb565b61014082015261285f565b604051918291826108cc565b346102355761172d6116ef60206116dc366103d1565b81604051938285809451938492016103fe565b8101600581520301902060ff6001604051926117168461170f81846111b0565b0385610318565b0154166040519283926040845260408401906108a7565b90151560208301520390f35b3360009081527f7d7ffb7a348e1c6a02869081a26547b49160dd3df72d1d75a570eb9b698292ec60205260409020547fa49807205ce4d355092ef5a8a18f56e8913cf4a201fbe287825b095693c217759060ff16156117955750565b61179e33611afe565b6117a6611a5d565b9160306117b284611a78565b5360786117be84611a85565b5360415b6001811161186a57610ee4604861185285611844886117e18815611ab3565b6040519485937f416363657373436f6e74726f6c3a206163636f756e742000000000000000000060208601526118218151809260206037890191016103fe565b84017001034b99036b4b9b9b4b733903937b6329607d1b60378201520190610421565b03601f198101835282610318565b60405162461bcd60e51b8152918291600483016108cc565b90600f8116906010821015611171576118a7916f181899199a1a9b1b9c1cb0b131b232b360811b901a61189d8487611a95565b5360041c91611aa6565b6117c2565b60008181526020818152604080832033845290915290205460ff16156118cf5750565b6118d833611afe565b6118e0611a5d565b9160306118ec84611a78565b5360786118f884611a85565b5360415b6001811161191b57610ee4604861185285611844886117e18815611ab3565b90600f81169060108210156111715761194e916f181899199a1a9b1b9c1cb0b131b232b360811b901a61189d8487611a95565b6118fc565b6000818152602081815260408083206001600160a01b038616845290915281205490919060ff1661198357505050565b808252602082815260408084206001600160a01b038616600090815292529020805460ff1916905533926001600160a01b0316917ff6391f5c32d9c69d2a47ea670b442974b53935d1edc7fd64eb21e047a839171b9080a4565b634e487b7160e01b600052601160045260246000fd5b908160011b9180830460021490151715611a0957565b6119dd565b9060018201809211611a0957565b9060208201809211611a0957565b6001019081600111611a0957565b91908201809211611a0957565b604051611a51816102fd565b60008152906000368137565b60405190611a6a826102c6565b604282526060366020840137565b8051156111715760200190565b8051600110156111715760210190565b908151811015611171570160200190565b8015611a09576000190190565b15611aba57565b606460405162461bcd60e51b815260206004820152602060248201527f537472696e67733a20686578206c656e67746820696e73756666696369656e746044820152fd5b60405190606082018281106001600160401b038211176102c157604052602a825260403660208401376030611b3283611a78565b536078611b3e83611a85565b536029905b60018211611b56576103fb915015611ab3565b600f811690601082101561117157611b88916f181899199a1a9b1b9c1cb0b131b232b360811b901a61189d8486611a95565b90611b43565b60405190611b9b826102a6565b6000602083606081520152565b60405190611bb5826102e1565b81606081526101806000918260208201528260408201526060808201528260808201528260a08201528260c08201528260e08201528261010082015282610120820152604051611c04816102c6565b60608152836020820152836040820152836060820152610140820152826101608201520152565b90610346611d0d600b611c3c610355565b94611c4681611246565b865260018101546001600160401b0381166020880152604090811c60ff16151590870152611c7660028201611246565b60608701526003810154600781900b6080880152611c9b9060401c60070b60a0880152565b600481015460c0870152600581015460e08701526006810154610100870152611ce2611cd160078301546001600160401b031690565b6001600160401b0316610120880152565b611cee60088201611261565b610140870152600a81015461016087015201546001600160a01b031690565b6001600160a01b0316610180840152565b9c9198969493929a9b909997959b60026001541461208a5760026001557fa49807205ce4d355092ef5a8a18f56e8913cf4a201fbe287825b095693c217756000908152602052611dab611da4337f7d7ffb7a348e1c6a02869081a26547b49160dd3df72d1d75a570eb9b698292ec5b9060018060a01b0316600052602052604060002090565b5460ff1690565b8015612029575b611dbb906120cf565b8d6002611dca611da483610484565b611dd3816110b4565b14908115612009575b50611fa657611de9610362565b9889526001600160401b031660208901521515604088015215156060870152611e10610355565b8b81526001600160401b03891660208201529887151560408b015260608a015260070b608089015260070b60a088015260c0870188905260e08701526101008601526001600160401b0316610120850152610140840152426101608401523361018084015260035492611e82906123b3565b6040805142602082019081526bffffffffffffffffffffffff193360601b169282019290925260548082018690528152611ebd607482610318565b519020948593611ecb610348565b90815260016020820152611ee9856000526002602052604060002090565b90611f0b9160016020918351815501910151151560ff80198354169116179055565b611f13610348565b84815260016020820152611f268261045e565b90611f489160016020918351815501910151151560ff80198354169116179055565b611f5190610484565b805460ff19166001179055604080516001600160401b0393909316835260208301949094521515927ffd6419d07e4c269e58d0c63969756c2124155b4a8d6dd08b8cd46e3a9acbf62591a39061034660018055565b60405162461bcd60e51b815260206004820152603560248201527f4465616c436c69656e743a206465616c2077697468207468697320706965636560448201527410da5908185b1c9958591e481c1d589b1a5cda1959605a1b6064820152608490fd5b60039150611da461201991610484565b612022816110b4565b148e611ddc565b507f3b5d4cc60d3ec3516ee8ae083bd60934f6eb2a6c54b1229985c41bfb092b26036000908152602052611dbb612083611da4337fc39f11a9300b508470eaed31f5842ba08c93181bcbe6a7fe34039aa7f2b80742611d8d565b9050611db2565b60405162461bcd60e51b815260206004820152601f60248201527f5265656e7472616e637947756172643a207265656e7472616e742063616c6c006044820152606490fd5b156120d657565b60405162461bcd60e51b815260206004820152601a60248201527f4465616c436c69656e743a206e6f7420617574686f72697a65640000000000006044820152606490fd5b90601f811161212957505050565b600091825260208220906020601f850160051c83019410612165575b601f0160051c01915b82811061215a57505050565b81815560010161214e565b9092508290612145565b91909182516001600160401b0381116102c157612196816121908454611176565b8461211b565b602080601f83116001146121d25750819293946000926121c7575b50508160011b916000199060031b1c1916179055565b0151905038806121b1565b90601f198316956121e885600052602060002090565b926000905b8882106122255750508360019596971061220c575b505050811b019055565b015160001960f88460031b161c19169055388080612202565b806001859682949686015181550195019301906121ed565b91909182519081516001600160401b0381116102c157612261816121908454611176565b6020928390601f8311600114612334576122b5600161230395856060966103469a9b966122d296600092612329575b5050600019600383901b1c191690831b1781555b01958301516001600160401b031690565b855467ffffffffffffffff19166001600160401b03909116178555565b6122fc6122e26040830151151590565b855460ff60401b191690151560401b60ff60401b16178555565b0151151590565b815469ff000000000000000000191690151560481b69ff00000000000000000016179055565b015190503880612290565b90601f1983169161234a85600052602060002090565b9260005b81811061239c5750612303956001866103469a9b966122d2966122b59660609a859710612383575b505050811b0181556122a4565b015160001960f88460031b161c19169055388080612376565b92938760018192878601518155019501930161234e565b600354680100000000000000008110156102c1578060016123d79201600355611136565b61256557600b612544610180846123f261034696518661216f565b61244e6001860161242d61241060208501516001600160401b031690565b825467ffffffffffffffff19166001600160401b03909116178255565b60408301511515815460ff60401b191690151560401b60ff60401b16179055565b61245f60608201516002870161216f565b6124c360038601612494612477608085015160070b90565b82906001600160401b0319825416906001600160401b0316179055565b60a083015160070b81549060401b67ffffffffffffffff60401b169067ffffffffffffffff60401b1916179055565b60c0810151600486015560e0810151600586015561010081015160068601556125196124fa6101208301516001600160401b031690565b60078701906001600160401b03166001600160401b0319825416179055565b61252b6101408201516008870161223d565b610160810151600a86015501516001600160a01b031690565b910180546001600160a01b0319166001600160a01b03909216919091179055565b634e487b7160e01b600052600060045260246000fd5b60405190612588826102fd565b60608252565b6040519061016082018281106001600160401b038211176102c157604052816125b561257b565b815260006020820152600060408201526125cd61257b565b60608201526125da61257b565b60808201526125e7611b8e565b60a0820152600060c0820152600060e0820152612602611b8e565b610100820152612610611b8e565b610120820152610140612621611b8e565b910152565b61262e611ba8565b506000526002602052604060002060ff60016040519261264d846102a6565b80548452015416158015602083015261266d57610fa36103fb9151611136565b60405162461bcd60e51b8152602060048201526024808201527f4465616c436c69656e743a2070726f706f73616c4964206e6f7420617661696c60448201526361626c6560e01b6064820152608490fd5b6126d6906020604051928284809451938492016103fe565b810103902090565b156126e557565b60405162461bcd60e51b815260206004820152603360248201527f4465616c436c69656e743a206d73672e73656e646572206e6565647320746f206044820152726265206d61726b6574206163746f722066303560681b6064820152608490fd5b61034633600560ff60981b01146126de565b61276a33600560ff60981b01146126de565b60008051602061405c833981519152606060405160208152601a60208201527f4465616c204e6f74696669636174696f6e2052656365697665640000000000006040820152a1565b600660ff60981b011933016127fd5760008051602061405c8339815191526060604051602081526011602082015270446174614361702052656365697665642160781b6040820152a1565b60405162461bcd60e51b815260206004820152603460248201527f4465616c436c69656e743a206d73672e73656e646572206e6565647320746f2060448201527362652064617461636170206163746f722066303760601b6064820152608490fd5b61010081015161286e90612a64565b61012082015161287d90612a64565b61014083015161288c90612a64565b9183515161289990613817565b6128a290611a2a565b93602081019485516128ba906001600160401b031690565b6001600160401b03166128cc906137c0565b6128d591611a38565b6128de90611a0e565b60608201908151516128ef90613800565b6128f891611a38565b608083019081515161290990613800565b61291291611a38565b9060a084019182515161292490613800565b61292d91611a38565b9260c0850193845161293f9060070b90565b61294890613849565b61295191611a38565b9460e081019586516129639060070b90565b61296c90613849565b61297591611a38565b61297e88613800565b61298791611a38565b61299089613800565b61299991611a38565b6129a28a613800565b6129ab91611a38565b6129b490613b2e565b996129be8b613d66565b8151516129cb908c612b2c565b516001600160401b03166129df908b613e40565b6040015115156129ef908a613d46565b51516129fb9089613ba0565b5151612a079088613ba0565b51612a1290876135cb565b5160070b612a209086613504565b5160070b612a2e9085613504565b612a389084613ba0565b612a429083613ba0565b612a4c9082613ba0565b6103fb90613b5e565b6000198114611a095760010190565b612a6f815151611a0e565b90612a798261036f565b91612a876040519384610318565b808352612a96601f199161036f565b013660208401376001806020830151151514600090600014612b245750908190600160f81b5b60001a612ac885611a78565b53816000935b612ada575b5050505090565b81518051851015612b1e57612b1791612b1191612afc8760ff60f81b92611a95565b511660001a612b0b8289611a95565b53612a55565b93612a55565b9282612ace565b50612ad3565b918192612abc565b90815191612b38611b8e565b508251516001810190818111611a09576020850151811015612bba575b60d860206103469651928301015380518211612bb2575b5050612b788151612bf6565b50612bad6021604051809460006020830152612b9d81518092602086860191016103fe565b8101036001810185520183610318565b613ba0565b523880612b6c565b8160011b9482860460021483151715611a0957602081612bec61034698612be560d8955191846133fa565b508261344c565b5096505050612b55565b612bfe611b8e565b508051516001810190818111611a09576020830151811015612c37575b602a60208451928301015380518211612c3357505090565b5290565b8160011b82810460021483151715611a0957612c6090612c59855191866133fa565b508461344c565b50612c1b565b612c6e611b8e565b508051516001810190818111611a09576020830151811015612ca3575b603b60208451928301015380518211612c3357505090565b8160011b82810460021483151715611a0957612cc590612c59855191866133fa565b50612c8b565b612cd3611b8e565b508051516001810190818111611a09576020830151811015612d08575b603a60208451928301015380518211612c3357505090565b8160011b82810460021483151715611a0957612d2a90612c59855191866133fa565b50612cf0565b612d38611b8e565b508051516001810190818111611a09576020830151811015612d6d575b603960208451928301015380518211612c3357505090565b8160011b82810460021483151715611a0957612d8f90612c59855191866133fa565b50612d55565b612d9d611b8e565b508051516001810190818111611a09576020830151811015612dd2575b603860208451928301015380518211612c3357505090565b8160011b82810460021483151715611a0957612df490612c59855191866133fa565b50612dba565b612e02611b8e565b508051516001810190818111611a09576020830151811015612e37575b605b60208451928301015380518211612c3357505090565b8160011b82810460021483151715611a0957612e5990612c59855191866133fa565b50612e1f565b612e67611b8e565b508051516001810190818111611a09576020830151811015612e9c575b605a60208451928301015380518211612c3357505090565b8160011b82810460021483151715611a0957612ebe90612c59855191866133fa565b50612e84565b612ecc611b8e565b508051516001810190818111611a09576020830151811015612f01575b605960208451928301015380518211612c3357505090565b8160011b82810460021483151715611a0957612f2390612c59855191866133fa565b50612ee9565b612f31611b8e565b508051516001810190818111611a09576020830151811015612f66575b605860208451928301015380518211612c3357505090565b8160011b82810460021483151715611a0957612f8890612c59855191866133fa565b50612f4e565b612f96611b8e565b508051516001810190818111611a09576020830151811015612fcb575b607b60208451928301015380518211612c3357505090565b8160011b82810460021483151715611a0957612fed90612c59855191866133fa565b50612fb3565b612ffb611b8e565b508051516001810190818111611a09576020830151811015613030575b607a60208451928301015380518211612c3357505090565b8160011b82810460021483151715611a095761305290612c59855191866133fa565b50613018565b613060611b8e565b508051516001810190818111611a09576020830151811015613095575b607960208451928301015380518211612c3357505090565b8160011b82810460021483151715611a09576130b790612c59855191866133fa565b5061307d565b6130c5611b8e565b508051516001810190818111611a095760208301518110156130fa575b607860208451928301015380518211612c3357505090565b8160011b82810460021483151715611a095761311c90612c59855191866133fa565b506130e2565b61312a611b8e565b508051516001810190818111611a0957602083015181101561315f575b601b60208451928301015380518211612c3357505090565b8160011b82810460021483151715611a095761318190612c59855191866133fa565b50613147565b61318f611b8e565b508051516001810190818111611a095760208301518110156131c4575b601a60208451928301015380518211612c3357505090565b8160011b82810460021483151715611a09576131e690612c59855191866133fa565b506131ac565b6131f4611b8e565b508051516001810190818111611a09576020830151811015613229575b601960208451928301015380518211612c3357505090565b8160011b82810460021483151715611a095761324b90612c59855191866133fa565b50613211565b613259611b8e565b508051516001810190818111611a0957602083015181101561328e575b601860208451928301015380518211612c3357505090565b8160011b82810460021483151715611a09576132b090612c59855191866133fa565b50613276565b906132bf611b8e565b508151516001810191828211611a095760208401518210156132f2575b60208451928301015380518211612c3357505090565b8260011b83810460021484151715611a095761331b90613314865191876133fa565b508561344c565b506132dc565b9061332e825191836133fa565b50613337611b8e565b50805190613343611b8e565b5061335181518311156134fd565b8251519261335f8385611a38565b9160209282848094015182116133d4575b51838151978201019682116133cc575b505001915b818110156133a65760001991036101000a0190811990511690825116179052565b91926133c16133bb6133c79286518152611a1c565b94611a1c565b926133eb565b613385565b523880613380565b6133e66133e0836119f3565b82613321565b613370565b601f19810191908211611a0957565b90613403611b8e565b50601f811680613432575b50806020830152604051908183526000825281016020019081106102355760405290565b60200360208111611a09578101809111611a09573861340e565b90613455611b8e565b508051613460611b8e565b5061346e82518211156134fd565b8251519161347c8284611a38565b60209182918287015181116134e6575b8651838151978201019682116134de575b505001915b818110156134c45760001991036101000a019081199051169082511617905290565b91926133c16133bb6134d99286518152611a1c565b6134a2565b52388061349d565b6134f86134f2826119f3565b88613321565b61348c565b1561023557565b90600781900b60008112613527575090610346916001600160401b031690613e40565b6135319150613826565b6001600160401b038116601781116135595750602060ff6135569351921617906132b6565b50565b905060ff811161357857816135716135569351612d95565b5051613ff5565b61ffff8111613596578161358f6135569351612d30565b5051613f8e565b63ffffffff81116135b657816135af6135569351612ccb565b5051613f25565b816135c46135569351612c66565b5051613eb9565b6020820151156135e057610346915190613c52565b610346915190613ba0565b6135f3611b8e565b506135fc613885565b50604051602090818101928352818152613615816102a6565b61361d613885565b90516040519381601f811680156001146136bd578503818101875286018501915b60008688015260046101c2fa5081835184010160405282515b82810361369f575b6103fb929161368a91855284815261367d83820195600087526138b5565b6040820152519351151590565b90613693610348565b93845283019015159052565b8284018051156001146136b2575061365f565b9350601f1901613657565b508486019181875261363e565b60606040516136d8816102fd565b52604051600160fa1b6020820152600560f91b602182015260609190911b6bffffffffffffffffffffffff1916602282015260168152613717816102a6565b60405190613724826102fd565b815290565b6060604051613737816102fd565b52613740613775565b51613717602160405180936000602083015261376581518092602086860191016103fe565b8101036001810184520182610318565b600090613780611b8e565b905b6701ffffffffffffff8360071c169283156137ad576080607f6137a7921617836132b6565b50613782565b6137bc919350607f16826132b6565b5090565b601781116137ce5750600190565b60ff81116137dc5750600290565b61ffff81116137eb5750600390565b63ffffffff10156137fb57600990565b600590565b5161380a816137c0565b908101809111611a095790565b5160010180600111611a095790565b60070b1990677fffffffffffffff198212677fffffffffffffff831317611a0957565b600781900b6000811261386957506001600160401b036103fb91166137c0565b6103fb915061387f6001600160401b0391613826565b166137c0565b60405190606082018281106001600160401b038211176102c1576040526000604083606081528260208201520152565b6138be81613aa0565b613a9a5760208101519060008215600114613a93575060001982018060011c81178060021c178060041c178060081c178060101c178060201c178060401c177e818283848586878898a8b8c8d8e8f929395969799a9b9d9e9faaeb6bedeeff6001604051927ff8f9cbfae6cc78fbefe7cdc3a1793dfcf4f0e8bbd8cec470b6a28a7a5a3e1efd84527ff5ecf1b3e9debc68e1d9cfabc5997135bfb7a7a3938b7b606b5b4b3f2f1f0ffe60208501527ff6e4ed9ff2d6b458eadcdf97bd91692de2d4da8fd2d0ac50c6ae9a827252361660408501527fc8c0b887b0a8a4489c948c7f847c6125746c645c544c444038302820181008ff60608501527ff7cae577eec2a03cf3bad76fb589591debb2dd67e0aa9834bea6925f6a4a2e0e60808501527fe39ed557db96902cd38ed14fad815115c786af479b7e8324736353433727170760a08501527fc976c13bb96e881cb166a933a55e490d9d56952b8d4e801485467d236242260660c08501527f753a6d1b65325d0c552a4d1345224105391a310b29122104190a11030902010060e085015261010084016040528060801c17010260f81c60ff03015160f81c600160ff1b841160081b01921615613a89575b51601f190160031b0190565b9060010190613a7d565b9150613a7d565b50600090565b906020906000908284015b8451831015613ad7578051613acd57830191838101809111611a095791613aab565b5092505050600090565b5092505050600190565b604051613aed816102a6565b613af5611b8e565b8082526020820160008152613b08611b8e565b506020808301526040518092526000825260408201918210610235576000916040525290565b600060405191613b3d836102a6565b613b59613b48611b8e565b9182855260208501928484526133fa565b505290565b6020810151613b6c57515190565b60405162461bcd60e51b815260206004820152600c60248201526b24b73b30b634b21021a127a960a11b6044820152606490fd5b81516135569291906001600160401b0381169060178211613bd757613bcf9150604060ff8451921617906132b6565b505b5161344c565b5060ff8111613bfc57613bf690613bee8351612f29565b508251613ff5565b50613bd1565b61ffff8111613c1b57613bf690613c138351612ec4565b508251613f8e565b63ffffffff8111613c3c57613bf690613c348351612e5f565b508251613f25565b613bf690613c4a8351612dfa565b508251613eb9565b81516135569291906001600160401b0381169060178211613c8157613bcf9150606060ff8451921617906132b6565b5060ff8111613c9857613bf690613bee83516130bd565b61ffff8111613caf57613bf690613c138351613058565b63ffffffff8111613cc857613bf690613c348351612ff3565b613bf690613c4a8351612f8e565b51613cdf611b8e565b508051516001810191828211611a09576020810151821015613d16575b602060f59151928301015380518211613d13575050565b52565b8260011b83810460021484151715611a095781613d3d602092612be560f5955191846133fa565b50915050613cfc565b6135569115613d5e576015905b519060e017906132b6565b601490613d53565b51613d6f611b8e565b508051516001810191828211611a09576020810151821015613da3575b6020608b9151928301015380518211613d13575050565b8260011b83810460021484151715611a095781613dca602092612be5608b955191846133fa565b50915050613d8c565b51613ddc611b8e565b508051516001810191828211611a09576020810151821015613e10575b602060849151928301015380518211613d13575050565b8260011b83810460021484151715611a095781613e37602092612be56084955191846133fa565b50915050613df9565b906001600160401b03811660178111613e63575060ff61355692519116906132b6565b905060ff8111613e7b57816135716135569351613251565b61ffff8111613e92578161358f61355693516131ec565b63ffffffff8111613eab57816135af6135569351613187565b816135c46135569351613122565b90613ec2611b8e565b50815151806008019182600811611a095760208401518311613f04575b6008845192830101906001600160401b031982511617905280518211612c3357505090565b8260011b83810460021484151715611a0957613f209085613321565b613edf565b90613f2e611b8e565b50815151806004019182600411611a095760208401518311613f6d575b60048451928301019063ffffffff1982511617905280518211612c3357505090565b8260011b83810460021484151715611a0957613f899085613321565b613f4b565b90613f97611b8e565b50815151806002019182600211611a095760208401518311613fd4575b60028451928301019061ffff1982511617905280518211612c3357505090565b8260011b83810460021484151715611a0957613ff09085613321565b613fb4565b90613ffe611b8e565b50815151806001019182600111611a09576020840151831161403a575b60018451928301019060ff1982511617905280518211612c3357505090565b8260011b83810460021484151715611a09576140569085613321565b61401b56fe10aa319ed8cad9bceb033c0c2788c4ae17469ac844e4c6e2c2e20e74ca8a7be8a264697066735822122062078d83a5f2ab4016c758eaa19d7417b9ecace0966e08e151de5e44ba8ae37564736f6c634300081200332f8788117e7eff1d82e926ec794901d17c78024a50270940304540a733656f0d",
  "linkReferences": {},
  "deployedLinkReferences": {}
}