{
  "_format": "hh-sol-artifact-1",
  "contractName": "GovernanceModule",
  "sourceName": "contracts/GovernanceModule.sol",
  "abi": [
    {
      "inputs": [
        {
          "internalType": "address",
          "name": "_daoToken",
          "type": "address"
        }
      ],
      "stateMutability": "nonpayable",
      "type": "constructor"
    },
    {
      "anonymous": false,
      "inputs": [
        {
          "indexed": false,
          "internalType": "string",
          "name": "parameter",
          "type": "string"
        },
        {
          "indexed": false,
          "internalType": "uint256",
          "name": "oldValue",
          "type": "uint256"
        },
        {
          "indexed": false,
          "internalType": "uint256",
          "name": "newValue",
          "type": "uint256"
        }
      ],
      "name": "GovernanceParameterUpdated",
      "type": "event"
    },
    {
      "anonymous": false,
      "inputs": [
        {
          "indexed": true,
          "internalType": "uint256",
          "name": "proposalId",
          "type": "uint256"
        }
      ],
      "name": "ProposalCancelled",
      "type": "event"
    },
    {
      "anonymous": false,
      "inputs": [
        {
          "indexed": true,
          "internalType": "uint256",
          "name": "proposalId",
          "type": "uint256"
        },
        {
          "indexed": true,
          "internalType": "address",
          "name": "proposer",
          "type": "address"
        },
        {
          "indexed": false,
          "internalType": "string",
          "name": "title",
          "type": "string"
        },
        {
          "indexed": false,
          "internalType": "enum GovernanceModule.ProposalType",
          "name": "proposalType",
          "type": "uint8"
        },
        {
          "indexed": false,
          "internalType": "uint256",
          "name": "startTime",
          "type": "uint256"
        },
        {
          "indexed": false,
          "internalType": "uint256",
          "name": "endTime",
          "type": "uint256"
        }
      ],
      "name": "ProposalCreated",
      "type": "event"
    },
    {
      "anonymous": false,
      "inputs": [
        {
          "indexed": true,
          "internalType": "uint256",
          "name": "proposalId",
          "type": "uint256"
        }
      ],
      "name": "ProposalExecuted",
      "type": "event"
    },
    {
      "anonymous": false,
      "inputs": [
        {
          "indexed": true,
          "internalType": "bytes32",
          "name": "role",
          "type": "bytes32"
        },
        {
          "indexed": true,
          "internalType": "bytes32",
          "name": "previousAdminRole",
          "type": "bytes32"
        },
        {
          "indexed": true,
          "internalType": "bytes32",
          "name": "newAdminRole",
          "type": "bytes32"
        }
      ],
      "name": "RoleAdminChanged",
      "type": "event"
    },
    {
      "anonymous": false,
      "inputs": [
        {
          "indexed": true,
          "internalType": "bytes32",
          "name": "role",
          "type": "bytes32"
        },
        {
          "indexed": true,
          "internalType": "address",
          "name": "account",
          "type": "address"
        },
        {
          "indexed": true,
          "internalType": "address",
          "name": "sender",
          "type": "address"
        }
      ],
      "name": "RoleGranted",
      "type": "event"
    },
    {
      "anonymous": false,
      "inputs": [
        {
          "indexed": true,
          "internalType": "bytes32",
          "name": "role",
          "type": "bytes32"
        },
        {
          "indexed": true,
          "internalType": "address",
          "name": "account",
          "type": "address"
        },
        {
          "indexed": true,
          "internalType": "address",
          "name": "sender",
          "type": "address"
        }
      ],
      "name": "RoleRevoked",
      "type": "event"
    },
    {
      "anonymous": false,
      "inputs": [
        {
          "indexed": true,
          "internalType": "address",
          "name": "voter",
          "type": "address"
        },
        {
          "indexed": true,
          "internalType": "uint256",
          "name": "proposalId",
          "type": "uint256"
        },
        {
          "indexed": false,
          "internalType": "enum GovernanceModule.VoteType",
          "name": "voteType",
          "type": "uint8"
        },
        {
          "indexed": false,
          "internalType": "uint256",
          "name": "weight",
          "type": "uint256"
        }
      ],
      "name": "VoteCast",
      "type": "event"
    },
    {
      "inputs": [],
      "name": "ADMIN_ROLE",
      "outputs": [
        {
          "internalType": "bytes32",
          "name": "",
          "type": "bytes32"
        }
      ],
      "stateMutability": "view",
      "type": "function"
    },
    {
      "inputs": [],
      "name": "DAO_ROLE",
      "outputs": [
        {
          "internalType": "bytes32",
          "name": "",
          "type": "bytes32"
        }
      ],
      "stateMutability": "view",
      "type": "function"
    },
    {
      "inputs": [],
      "name": "DEFAULT_ADMIN_ROLE",
      "outputs": [
        {
          "internalType": "bytes32",
          "name": "",
          "type": "bytes32"
        }
      ],
      "stateMutability": "view",
      "type": "function"
    },
    {
      "inputs": [
        {
          "internalType": "uint256",
          "name": "proposalId",
          "type": "uint256"
        }
      ],
      "name": "cancelProposal",
      "outputs": [],
      "stateMutability": "nonpayable",
      "type": "function"
    },
    {
      "inputs": [
        {
          "internalType": "uint256",
          "name": "proposalId",
          "type": "uint256"
        },
        {
          "internalType": "enum GovernanceModule.VoteType",
          "name": "voteType",
          "type": "uint8"
        }
      ],
      "name": "castVote",
      "outputs": [],
      "stateMutability": "nonpayable",
      "type": "function"
    },
    {
      "inputs": [],
      "name": "daoToken",
      "outputs": [
        {
          "internalType": "contract IERC20",
          "name": "",
          "type": "address"
        }
      ],
      "stateMutability": "view",
      "type": "function"
    },
    {
      "inputs": [
        {
          "internalType": "uint256",
          "name": "proposalId",
          "type": "uint256"
        }
      ],
      "name": "executeProposal",
      "outputs": [],
      "stateMutability": "nonpayable",
      "type": "function"
    },
    {
      "inputs": [
        {
          "internalType": "uint256",
          "name": "proposalId",
          "type": "uint256"
        }
      ],
      "name": "getProposal",
      "outputs": [
        {
          "internalType": "uint256",
          "name": "id",
          "type": "uint256"
        },
        {
          "internalType": "address",
          "name": "proposer",
          "type": "address"
        },
        {
          "internalType": "string",
          "name": "title",
          "type": "string"
        },
        {
          "internalType": "string",
          "name": "description",
          "type": "string"
        },
        {
          "internalType": "enum GovernanceModule.ProposalType",
          "name": "proposalType",
          "type": "uint8"
        },
        {
          "internalType": "enum GovernanceModule.ProposalStatus",
          "name": "status",
          "type": "uint8"
        },
        {
          "internalType": "uint256",
          "name": "startTime",
          "type": "uint256"
        },
        {
          "internalType": "uint256",
          "name": "endTime",
          "type": "uint256"
        },
        {
          "internalType": "uint256",
          "name": "forVotes",
          "type": "uint256"
        },
        {
          "internalType": "uint256",
          "name": "againstVotes",
          "type": "uint256"
        },
        {
          "internalType": "uint256",
          "name": "abstainVotes",
          "type": "uint256"
        },
        {
          "internalType": "bool",
          "name": "executed",
          "type": "bool"
        }
      ],
      "stateMutability": "view",
      "type": "function"
    },
    {
      "inputs": [
        {
          "internalType": "uint256",
          "name": "proposalId",
          "type": "uint256"
        }
      ],
      "name": "getProposalActions",
      "outputs": [
        {
          "internalType": "address[]",
          "name": "targets",
          "type": "address[]"
        },
        {
          "internalType": "uint256[]",
          "name": "values",
          "type": "uint256[]"
        },
        {
          "internalType": "string[]",
          "name": "signatures",
          "type": "string[]"
        },
        {
          "internalType": "bytes[]",
          "name": "calldatas",
          "type": "bytes[]"
        }
      ],
      "stateMutability": "view",
      "type": "function"
    },
    {
      "inputs": [],
      "name": "getProposalCount",
      "outputs": [
        {
          "internalType": "uint256",
          "name": "",
          "type": "uint256"
        }
      ],
      "stateMutability": "view",
      "type": "function"
    },
    {
      "inputs": [
        {
          "internalType": "bytes32",
          "name": "role",
          "type": "bytes32"
        }
      ],
      "name": "getRoleAdmin",
      "outputs": [
        {
          "internalType": "bytes32",
          "name": "",
          "type": "bytes32"
        }
      ],
      "stateMutability": "view",
      "type": "function"
    },
    {
      "inputs": [
        {
          "internalType": "uint256",
          "name": "proposalId",
          "type": "uint256"
        },
        {
          "internalType": "address",
          "name": "voter",
          "type": "address"
        }
      ],
      "name": "getVoteType",
      "outputs": [
        {
          "internalType": "enum GovernanceModule.VoteType",
          "name": "",
          "type": "uint8"
        }
      ],
      "stateMutability": "view",
      "type": "function"
    },
    {
      "inputs": [
        {
          "internalType": "bytes32",
          "name": "role",
          "type": "bytes32"
        },
        {
          "internalType": "address",
          "name": "account",
          "type": "address"
        }
      ],
      "name": "grantRole",
      "outputs": [],
      "stateMutability": "nonpayable",
      "type": "function"
    },
    {
      "inputs": [
        {
          "internalType": "bytes32",
          "name": "role",
          "type": "bytes32"
        },
        {
          "internalType": "address",
          "name": "account",
          "type": "address"
        }
      ],
      "name": "hasRole",
      "outputs": [
        {
          "internalType": "bool",
          "name": "",
          "type": "bool"
        }
      ],
      "stateMutability": "view",
      "type": "function"
    },
    {
      "inputs": [],
      "name": "proposalThreshold",
      "outputs": [
        {
          "internalType": "uint256",
          "name": "",
          "type": "uint256"
        }
      ],
      "stateMutability": "view",
      "type": "function"
    },
    {
      "inputs": [
        {
          "internalType": "uint256",
          "name": "",
          "type": "uint256"
        }
      ],
      "name": "proposals",
      "outputs": [
        {
          "internalType": "uint256",
          "name": "id",
          "type": "uint256"
        },
        {
          "internalType": "address",
          "name": "proposer",
          "type": "address"
        },
        {
          "internalType": "string",
          "name": "title",
          "type": "string"
        },
        {
          "internalType": "string",
          "name": "description",
          "type": "string"
        },
        {
          "internalType": "enum GovernanceModule.ProposalType",
          "name": "proposalType",
          "type": "uint8"
        },
        {
          "internalType": "enum GovernanceModule.ProposalStatus",
          "name": "status",
          "type": "uint8"
        },
        {
          "internalType": "uint256",
          "name": "startTime",
          "type": "uint256"
        },
        {
          "internalType": "uint256",
          "name": "endTime",
          "type": "uint256"
        },
        {
          "internalType": "uint256",
          "name": "forVotes",
          "type": "uint256"
        },
        {
          "internalType": "uint256",
          "name": "againstVotes",
          "type": "uint256"
        },
        {
          "internalType": "uint256",
          "name": "abstainVotes",
          "type": "uint256"
        },
        {
          "internalType": "bool",
          "name": "executed",
          "type": "bool"
        }
      ],
      "stateMutability": "view",
      "type": "function"
    },
    {
      "inputs": [
        {
          "internalType": "string",
          "name": "title",
          "type": "string"
        },
        {
          "internalType": "string",
          "name": "description",
          "type": "string"
        },
        {
          "internalType": "enum GovernanceModule.ProposalType",
          "name": "proposalType",
          "type": "uint8"
        },
        {
          "internalType": "address[]",
          "name": "targets",
          "type": "address[]"
        },
        {
          "internalType": "uint256[]",
          "name": "values",
          "type": "uint256[]"
        },
        {
          "internalType": "bytes[]",
          "name": "calldatas",
          "type": "bytes[]"
        },
        {
          "internalType": "string[]",
          "name": "signatures",
          "type": "string[]"
        }
      ],
      "name": "propose",
      "outputs": [
        {
          "internalType": "uint256",
          "name": "",
          "type": "uint256"
        }
      ],
      "stateMutability": "nonpayable",
      "type": "function"
    },
    {
      "inputs": [],
      "name": "quorumVotes",
      "outputs": [
        {
          "internalType": "uint256",
          "name": "",
          "type": "uint256"
        }
      ],
      "stateMutability": "view",
      "type": "function"
    },
    {
      "inputs": [
        {
          "internalType": "bytes32",
          "name": "role",
          "type": "bytes32"
        },
        {
          "internalType": "address",
          "name": "account",
          "type": "address"
        }
      ],
      "name": "renounceRole",
      "outputs": [],
      "stateMutability": "nonpayable",
      "type": "function"
    },
    {
      "inputs": [
        {
          "internalType": "bytes32",
          "name": "role",
          "type": "bytes32"
        },
        {
          "internalType": "address",
          "name": "account",
          "type": "address"
        }
      ],
      "name": "revokeRole",
      "outputs": [],
      "stateMutability": "nonpayable",
      "type": "function"
    },
    {
      "inputs": [
        {
          "internalType": "address",
          "name": "daoContract",
          "type": "address"
        }
      ],
      "name": "setDAOContract",
      "outputs": [],
      "stateMutability": "nonpayable",
      "type": "function"
    },
    {
      "inputs": [
        {
          "internalType": "uint256",
          "name": "newProposalThreshold",
          "type": "uint256"
        }
      ],
      "name": "setProposalThreshold",
      "outputs": [],
      "stateMutability": "nonpayable",
      "type": "function"
    },
    {
      "inputs": [
        {
          "internalType": "uint256",
          "name": "newQuorumVotes",
          "type": "uint256"
        }
      ],
      "name": "setQuorumVotes",
      "outputs": [],
      "stateMutability": "nonpayable",
      "type": "function"
    },
    {
      "inputs": [
        {
          "internalType": "uint256",
          "name": "newVotingDelay",
          "type": "uint256"
        }
      ],
      "name": "setVotingDelay",
      "outputs": [],
      "stateMutability": "nonpayable",
      "type": "function"
    },
    {
      "inputs": [
        {
          "internalType": "uint256",
          "name": "newVotingPeriod",
          "type": "uint256"
        }
      ],
      "name": "setVotingPeriod",
      "outputs": [],
      "stateMutability": "nonpayable",
      "type": "function"
    },
    {
      "inputs": [
        {
          "internalType": "bytes4",
          "name": "interfaceId",
          "type": "bytes4"
        }
      ],
      "name": "supportsInterface",
      "outputs": [
        {
          "internalType": "bool",
          "name": "",
          "type": "bool"
        }
      ],
      "stateMutability": "view",
      "type": "function"
    },
    {
      "inputs": [
        {
          "internalType": "uint256",
          "name": "proposalId",
          "type": "uint256"
        }
      ],
      "name": "updateProposalStatus",
      "outputs": [],
      "stateMutability": "nonpayable",
      "type": "function"
    },
    {
      "inputs": [],
      "name": "votingDelay",
      "outputs": [
        {
          "internalType": "uint256",
          "name": "",
          "type": "uint256"
        }
      ],
      "stateMutability": "view",
      "type": "function"
    },
    {
      "inputs": [],
      "name": "votingPeriod",
      "outputs": [
        {
          "internalType": "uint256",
          "name": "",
          "type": "uint256"
        }
      ],
      "stateMutability": "view",
      "type": "function"
    },
    {
      "stateMutability": "payable",
      "type": "receive"
    }
  ],
  "bytecode": "0x608034620001c357601f62002be338819003918201601f1916830192916001600160401b03841183851017620001c85780839260409586528339602092839181010312620001c357516001600160a01b03811690819003620001c3576001805568056bc75e2d631000006004556203f48060055562015180600655683635c9adc5dea0000060075580156200018057600280546001600160a01b031916919091179055600080805280825282812033825282528281205460ff161562000148575b7fa49807205ce4d355092ef5a8a18f56e8913cf4a201fbe287825b095693c2177591828252818152838220338352815260ff8483205416156200010d575b83516129e49081620001df8239f35b8282528181528382209033835252828120600160ff19825416179055339160008051602062002bc3833981519152339280a4388080620000fe565b8080528082528281203382528252828120600160ff1982541617905533338260008051602062002bc38339815191528180a4620000c0565b50606491519062461bcd60e51b82526004820152601e60248201527f476f7665726e616e63654d6f64756c653a207a65726f206164647265737300006044820152fd5b600080fd5b634e487b7160e01b600052604160045260246000fdfe6080604052600436101561001b575b361561001957600080fd5b005b60003560e01c8063013cf08b14611e8257806301ffc9a714611e2c57806302a251a314611e0e57806302ec8f9e14611da95780630d61b51914611b2d578063248a9ca314611afe57806324bc1a6414611ae05780632f2ff15d14611a2d57806336568abe1461199b5780633932abb11461197d5780633b82e1b414610e48578063425d512a14610d3d5780634914b03014610d1457806356781388146109a257806370b0f6601461093d57806375b238fc1461090257806391d14854146108b5578063a217fddf14610899578063b58131b01461087b578063c08cc02d1461085d578063c7f758a8146107cc578063c851ed6c146107b0578063ca953d3a1461075b578063d547741f1461071c578063e0a8f6f5146105d8578063e26b2bea14610270578063e9c2651814610235578063ea0217cf146101cf5763ece40cc10361000e57346101ca5760203660031901126101ca5760008051602061298f83398151915260a060043561018c6121b7565b6004549080600455604051916060835260116060840152701c1c9bdc1bdcd85b151a1c995cda1bdb19607a1b608084015260208301526040820152a1005b600080fd5b346101ca5760203660031901126101ca5760008051602061298f83398151915260a06004356101fc6121b7565b60055490806005556040519160608352600c60608401526b1d9bdd1a5b99d4195c9a5bd960a21b608084015260208301526040820152a1005b346101ca5760003660031901126101ca5760206040517f3b5d4cc60d3ec3516ee8ae083bd60934f6eb2a6c54b1229985c41bfb092b26038152f35b346101ca5760203660031901126101ca5760043560005260086020526040600020600a8101600b820191600c600d8201910190604051928360208254918281520190819260005260206000209060005b8181106105b957505050846102d6910385611f69565b604051948560208254918281520190819260005260206000209060005b8181106105a35750505086610309910387611f69565b825461031481612193565b906103226040519283611f69565b80825260208201809560005260206000206000915b838310610574575050505084549261034e84612193565b9361035c6040519586611f69565b808552602085019081976000526020600020916000905b8282106104bd5750505050604051978897608089019060808a525180915260a08901929060005b81811061049b57505050602090888303828a0152519182815201929060005b81811061048257505050858203604087015251808252602082019160208260051b82010194926000915b83831061044d575050505050838203606085015251808252602082019160208260051b82010193926000915b83831061041c5786860387f35b91939550919360208061043b600193601f198682030187528951612053565b9701930193019092869594929361040f565b919396975091939460208061046e600193601f198682030187528a51612053565b9801930193019092889796959492936103e3565b82518552899850602094850194909201916001016103b9565b82516001600160a01b031685528b9a506020948501949092019160010161039a565b60409b9495969798999a9b51600085546104d681611f14565b80845290600181169081156105515750600114610519575b506001928261050285946020940382611f69565b8152019401910190929a999897969594939a610373565b6000878152602081209092505b81831061053b575050810160200160016104ee565b6001816020925483868801015201920191610526565b60ff191660208581019190915291151560051b84019091019150600190506104ee565b60016020819261058c859e9b9c9d9e9a98999a611f8a565b815201920192019190999897969995949395610337565b82548452602090930192600192830192016102f3565b82546001600160a01b03168452602090930192600192830192016102c0565b346101ca5760203660031901126101ca57600435806000526008602052604060002060018060a01b03600182015416331480156106e4575b1561068f576004810190815460ff8160081c1660058110156106795760ff600e6104009461064161064a9415612767565b015416156127c1565b61ff0019161790557f416e669c63d9a3a5e36ee7cc7e2104b8db28ccd286aa18966e98fa230c73b08c600080a2005b634e487b7160e01b600052602160045260246000fd5b60405162461bcd60e51b815260206004820152602760248201527f476f7665726e616e63654d6f64756c653a206e6f742070726f706f736572206f604482015266391030b236b4b760c91b6064820152608490fd5b503360009081527f7d7ffb7a348e1c6a02869081a26547b49160dd3df72d1d75a570eb9b698292ec602052604090205460ff16610610565b346101ca5760403660031901126101ca5761001960043561073b61210d565b908060005260006020526107566001604060002001546123d2565b6124dc565b346101ca5760403660031901126101ca5761077461210d565b6004356000526008602052600f6040600020019060018060a01b0316600052602052602060ff604060002054166107ae60405180926121aa565bf35b346101ca5760203660031901126101ca57610019600435612839565b346101ca5760203660031901126101ca576004356000526008602052604060002080546108598260018060a01b0360018201541692600482015460058301546006840154600785015491600886015493600987015495610842600361083b600260ff600e8d0154169b01611f8a565b9c01611f8a565b6040519b8c9b60ff808660081c169516938d612085565b0390f35b346101ca5760003660031901126101ca576020600354604051908152f35b346101ca5760003660031901126101ca576020600454604051908152f35b346101ca5760003660031901126101ca57602060405160008152f35b346101ca5760403660031901126101ca576108ce61210d565b600435600052600060205260406000209060018060a01b0316600052602052602060ff604060002054166040519015158152f35b346101ca5760003660031901126101ca5760206040517fa49807205ce4d355092ef5a8a18f56e8913cf4a201fbe287825b095693c217758152f35b346101ca5760203660031901126101ca5760008051602061298f83398151915260a060043561096a6121b7565b60065490806006556040519160608352600b60608401526a766f74696e6744656c617960a81b608084015260208301526040820152a1005b346101ca5760403660031901126101ca57600435602490813560048110156101ca576109cc612711565b8015610cc45781600052602060088152604060002060ff600482015460081c166005811015610caf576109ff9015612767565b60058101544210610c605760068101544211610c1c57600f81013360005280835260ff604060002054166004811015610c0757610bc3576002546040516370a0823160e01b81523360048201529392919083908590899082906001600160a01b03165afa938415610bb757600094610b88575b508315610b3a57610af293869384938793336000528252604060002060ff1981541660ff861617905560018414600014610af857600701610ab4838254612550565b90555b610ac460405180946121aa565b8201527f2c9deb38f462962eadbd85a9d3a4120503ee091f1582eaaa10aa8c6797651d2960403392a3612839565b60018055005b60028403610b1557600801610b0e838254612550565b9055610ab7565b60038414610b24575b50610ab7565b600901610b32838254612550565b905586610b1e565b60405162461bcd60e51b8152600481018490526021818901527f476f7665726e616e63654d6f64756c653a206e6f20766f74696e6720706f77656044820152603960f91b6064820152608490fd5b9093508281813d8311610bb0575b610ba08183611f69565b810103126101ca57519287610a72565b503d610b96565b6040513d6000823e3d90fd5b60405162461bcd60e51b815260048101849052601f818801527f476f7665726e616e63654d6f64756c653a20616c726561647920766f746564006044820152606490fd5b86634e487b7160e01b60005260216004526000fd5b60405162461bcd60e51b815260048101839052601e818701527f476f7665726e616e63654d6f64756c653a20766f74696e6720656e64656400006044820152606490fd5b608482866040519162461bcd60e51b83526004830152808201527f476f7665726e616e63654d6f64756c653a20766f74696e67206e6f74207374616044820152631c9d195960e21b6064820152fd5b85634e487b7160e01b60005260216004526000fd5b60405162461bcd60e51b8152602060048201526023818501527f476f7665726e616e63654d6f64756c653a20696e76616c696420766f7465207460448201526279706560e81b6064820152608490fd5b346101ca5760003660031901126101ca576002546040516001600160a01b039091168152602090f35b346101ca576020806003193601126101ca576004356001600160a01b038116908190036101ca57610d6c6121b7565b8015610e03577f3b5d4cc60d3ec3516ee8ae083bd60934f6eb2a6c54b1229985c41bfb092b2603918260005260008152604060002082600052815260ff6040600020541615610db757005b826000526000815260406000209082600052526040600020600160ff1982541617905533917f2f8788117e7eff1d82e926ec794901d17c78024a50270940304540a733656f0d600080a4005b60405162461bcd60e51b815260048101839052601e60248201527f476f7665726e616e63654d6f64756c653a207a65726f206164647265737300006044820152606490fd5b346101ca5760e03660031901126101ca576004356001600160401b0381116101ca57610e78903690600401612175565b6024356001600160401b0381116101ca57610e97903690600401612175565b600660443510156101ca576001600160401b03606435116101ca573660236064350112156101ca57610ece60643560040135612193565b90610edc6040519283611f69565b6004606435908101358084526020840191829160051b016024013681116101ca57602460643501915b81831061195d575050506001600160401b03608435116101ca573660236084350112156101ca576084356004013590610f3d82612193565b91610f4b6040519384611f69565b8083526020830190813660248360051b6084350101116101ca57602460843501905b60248360051b6084350101821061194d575050506001600160401b0360a435116101ca5736602360a4350112156101ca5760a4356004013590610faf82612193565b90610fbd6040519283611f69565b8282526020820180933660248260051b60a4350101116101ca57602460a43501915b60248260051b60a43501018310611901575050506001600160401b0360c435116101ca5736602360c4350112156101ca5760c435600401359461102186612193565b9461102f6040519687611f69565b8686526020860180973660248260051b60c4350101116101ca57602460c43501915b60248260051b60c435010183106118ce5750505061106d612711565b6002546040516370a0823160e01b815233600482015290602090829060249082906001600160a01b03165afa908115610bb75760009161189c575b5060045411611831578851156117dd5788518251811490816117d2575b816117c7575b501561175c576003549860018a016003558960005260086020526040600020988a8a5560018a01336bffffffffffffffffffffffff60a01b8254161790558b516001600160401b03811161145057611133818c600261112c81830154611f14565b91016126a9565b806020601f82116001146116ec576000916116e1575b508160011b916000199060031b1c19161760028b01555b8051906001600160401b038211611450578190611186828d600361112c81830154611f14565b602090601f831160011461166f57600092611664575b50508160011b916000199060031b1c19161760038a01555b60048901805460ff604435169061ffff19161790556111e76111d860065442612550565b8060058c015560055490612550565b60068a015551906001600160401b03821161145057600160401b821161145057600a89019061121b838354818555846126ee565b90600052602060002060005b838110611647575050505051906001600160401b03821161145057600160401b821161145057600b870190611261838354818555846126ee565b90600052602060002060005b83811061163357505050505190600160401b821161145057600c85015482600c8701558083106115bb575b5090600c85016000526020600020916000905b8282106114de57505050505190600160401b821161145057600d83015482600d850155808310611466575b5090600d83016000526020600020916000905b82821061136d5760208686817ffd3a4372829eebfa1fcdd5a6e4bbbeb5b140261c36928520367a19665a17a9968b600e840160ff1981541690556006600585015494015461134260405192608084526080840190612053565b94611351888401604435612078565b604083015260608201528033940390a360018055604051908152f35b80518051906001600160401b038211611450576113948261138e8854611f14565b886126a9565b602090601f83116001146113e05792826001949360209386956000926113d5575b5050600019600383901b1c191690841b1787555b019401910190926112e9565b015190508c806113b5565b908660005260206000209160005b601f1985168110611438575083602093600196938796938794601f1981161061141f575b505050811b0187556113c9565b015160001960f88460031b161c191690558c8080611412565b919260206001819286850151815501940192016113ee565b634e487b7160e01b600052604160045260246000fd5b600d84016000526020600020908382015b81830181106114875750506112d6565b8061149460019254611f14565b806114a1575b5001611477565b601f811183146114b75750600081555b8961149a565b6000908282526114d5601f60208420920160051c8201858301612692565b818355556114b1565b80518051906001600160401b038211611450576114ff8261138e8854611f14565b602090601f831160011461154b579282600194936020938695600092611540575b5050600019600383901b1c191690841b1787555b019401910190926112ab565b015190508e80611520565b908660005260206000209160005b601f19851681106115a3575083602093600196938796938794601f1981161061158a575b505050811b018755611534565b015160001960f88460031b161c191690558e808061157d565b91926020600181928685015181550194019201611559565b600c86016000526020600020908382015b81830181106115dc575050611298565b806115e960019254611f14565b806115f6575b50016115cc565b601f8111831461160c5750600081555b8b6115ef565b60009082825261162a601f60208420920160051c8201858301612692565b81835555611606565b60019060208451940193818401550161126d565b82516001600160a01b031681830155602090920191600101611227565b015190508d8061119c565b925060038c016000526020600020906000935b601f19841685106116c6576001945083601f198116106116ad575b505050811b0160038a01556111b4565b015160001960f88460031b161c191690558d808061169d565b81810151835560209485019460019093019290910190611682565b90508d01518e611149565b8e925060028d016000526020600020906000935b601f1984168510611744576001945083601f1981161061172b575b505050811b0160028b0155611160565b015160001960f88460031b161c191690558e808f61171b565b8101518255602093840193600190920191018f611700565b60405162461bcd60e51b815260206004820152603e60248201527f476f7665726e616e63654d6f64756c653a2070726f706f73616c2066756e637460448201527f696f6e20696e666f726d6174696f6e206172697479206d69736d6174636800006064820152608490fd5b90508651148b6110cb565b8551811491506110c5565b60405162461bcd60e51b815260206004820152602660248201527f476f7665726e616e63654d6f64756c653a206d7573742070726f7669646520616044820152656374696f6e7360d01b6064820152608490fd5b60405162461bcd60e51b815260206004820152603960248201527f476f7665726e616e63654d6f64756c653a2070726f706f73657220766f74657360448201527f2062656c6f772070726f706f73616c207468726573686f6c64000000000000006064820152608490fd5b90506020813d6020116118c6575b816118b760209383611f69565b810103126101ca57518b6110a8565b3d91506118aa565b6001600160401b038335116101ca576020806024926118f43685883560c4350101612175565b8152019301929050611051565b8235906001600160401b0382116101ca573660438360a435010112156101ca57602491602091829161194090369060a43501808701359060440161213e565b8152019301929050610fdf565b8135815260209182019101610f6d565b82356001600160a01b03811681036101ca57815260209283019201610f05565b346101ca5760003660031901126101ca576020600654604051908152f35b346101ca5760403660031901126101ca576119b461210d565b336001600160a01b038216036119d057610019906004356124dc565b60405162461bcd60e51b815260206004820152602f60248201527f416363657373436f6e74726f6c3a2063616e206f6e6c792072656e6f756e636560448201526e103937b632b9903337b91039b2b63360891b6064820152608490fd5b346101ca5760403660031901126101ca57600435611a4961210d565b816000526000602052611a636001604060002001546123d2565b81600052600060205260406000209060018060a01b0316908160005260205260ff6040600020541615611a9257005b8160005260006020526040600020816000526020526040600020600160ff1982541617905533917f2f8788117e7eff1d82e926ec794901d17c78024a50270940304540a733656f0d600080a4005b346101ca5760003660031901126101ca576020600754604051908152f35b346101ca5760203660031901126101ca5760043560005260006020526020600160406000200154604051908152f35b346101ca5760203660031901126101ca57611b46612711565b6004356000526008602052604060002060048101805460ff8160081c16600581101561067957600103611d565761030090600e840160018154611b8c60ff8216156127c1565b60ff191617905561ff00191617905560005b600a820154811015611d2857611bb781600a8401612821565b905490611bc783600b8601612821565b92905491611bd885600c8801612821565b509260405193600090805490611bed82611f14565b9160018116908115611d115750600114611cdc575b505091600095939185879694039460031b1c9160018060a01b039160031b1c165af13d15611cd7573d611c3481612123565b90611c426040519283611f69565b8152600060203d92013e5b15611c79576000198114611c6357600101611b9e565b634e487b7160e01b600052601160045260246000fd5b60405162461bcd60e51b815260206004820152603060248201527f476f7665726e616e63654d6f64756c653a207472616e73616374696f6e20657860448201526f1958dd5d1a5bdb881c995d995c9d195960821b6064820152608490fd5b611c4d565b90915060005260206000206000905b828210611cfd57505084018185611c02565b60018160209254848a015201910190611ceb565b60ff19168852505080151502850190508185611c02565b6004357f712ae1383f79ac853f8d882153778e0260ef8f03b504e2866e0593e04d2b291f600080a260018055005b60405162461bcd60e51b815260206004820152602560248201527f476f7665726e616e63654d6f64756c653a2070726f706f73616c206e6f742070604482015264185cdcd95960da1b6064820152608490fd5b346101ca5760203660031901126101ca5760008051602061298f83398151915260a0600435611dd66121b7565b60075490806007556040519160608352600b60608401526a71756f72756d566f74657360a81b608084015260208301526040820152a1005b346101ca5760003660031901126101ca576020600554604051908152f35b346101ca5760203660031901126101ca5760043563ffffffff60e01b81168091036101ca57602090637965db0b60e01b8114908115611e71575b506040519015158152f35b6301ffc9a760e01b14905082611e66565b346101ca5760203660031901126101ca576004356000908152600860205260409020805460018201546001600160a01b03169061085990611ec560028501611f8a565b93611ed260038201611f8a565b916004820154600583015460068401549060078501549260088601549460ff600e600989015498015416976040519b8c9b60ff808660081c169516938d612085565b90600182811c92168015611f44575b6020831014611f2e57565b634e487b7160e01b600052602260045260246000fd5b91607f1691611f23565b608081019081106001600160401b0382111761145057604052565b90601f801991011681019081106001600160401b0382111761145057604052565b9060405191826000825492611f9e84611f14565b90818452600194858116908160001461200d5750600114611fca575b5050611fc892500383611f69565b565b9093915060005260209081600020936000915b818310611ff5575050611fc893508201013880611fba565b85548884018501529485019487945091830191611fdd565b915050611fc894506020925060ff191682840152151560051b8201013880611fba565b60005b8381106120435750506000910152565b8181015183820152602001612033565b9060209161206c81518092818552858086019101612030565b601f01601f1916010190565b9060068210156106795752565b9a97949c9b9895999693906120d8938c60206120cd956120bf94835260018060a01b031691015260408d61018091829101528d0190612053565b908b820360608d0152612053565b9a60808a0190612078565b6005871015610679576101609660a089015260c088015260e08701526101008601526101208501526101408401521515910152565b602435906001600160a01b03821682036101ca57565b6001600160401b03811161145057601f01601f191660200190565b92919261214a82612123565b916121586040519384611f69565b8294818452818301116101ca578281602093846000960137010152565b9080601f830112156101ca578160206121909335910161213e565b90565b6001600160401b0381116114505760051b60200190565b9060048210156106795752565b3360009081527f7d7ffb7a348e1c6a02869081a26547b49160dd3df72d1d75a570eb9b698292ec602090815260408083205490927fa49807205ce4d355092ef5a8a18f56e8913cf4a201fbe287825b095693c217759160ff161561221b5750505050565b61222433612584565b9184519061223182611f4e565b604282528482019260603685378251156123be57603084538251906001918210156123be5790607860218501536041915b8183116123505750505061230e57604861230a9386936122ee936122df985198899376020b1b1b2b9b9a1b7b73a3937b61d1030b1b1b7bab73a1604d1b8a8601526122b6815180928c603789019101612030565b8401917001034b99036b4b9b9b4b733903937b6329607d1b603784015251809386840190612030565b01036028810187520185611f69565b5192839262461bcd60e51b845260048401526024830190612053565b0390fd5b60648486519062461bcd60e51b825280600483015260248201527f537472696e67733a20686578206c656e67746820696e73756666696369656e746044820152fd5b909192600f811660108110156123aa576f181899199a1a9b1b9c1cb0b131b232b360811b901a612380858761255d565b5360041c92801561239657600019019190612262565b634e487b7160e01b82526011600452602482fd5b634e487b7160e01b83526032600452602483fd5b634e487b7160e01b81526032600452602490fd5b600090808252602090828252604092838120338252835260ff8482205416156123fb5750505050565b61240433612584565b9184519061241182611f4e565b604282528482019260603685378251156123be57603084538251906001918210156123be5790607860218501536041915b8183116124965750505061230e57604861230a9386936122ee936122df985198899376020b1b1b2b9b9a1b7b73a3937b61d1030b1b1b7bab73a1604d1b8a8601526122b6815180928c603789019101612030565b909192600f811660108110156123aa576f181899199a1a9b1b9c1cb0b131b232b360811b901a6124c6858761255d565b5360041c92801561239657600019019190612442565b9060009180835282602052604083209160018060a01b03169182845260205260ff60408420541661250c57505050565b80835282602052604083208284526020526040832060ff1981541690557ff6391f5c32d9c69d2a47ea670b442974b53935d1edc7fd64eb21e047a839171b339380a4565b91908201809211611c6357565b90815181101561256e570160200190565b634e487b7160e01b600052603260045260246000fd5b60405190606082018281106001600160401b0382111761145057604052602a825260208201604036823782511561256e5760309053815160019081101561256e57607860218401536029905b8082116126245750506125e05790565b606460405162461bcd60e51b815260206004820152602060248201527f537472696e67733a20686578206c656e67746820696e73756666696369656e746044820152fd5b9091600f8116601081101561267d576f181899199a1a9b1b9c1cb0b131b232b360811b901a612653848661255d565b5360041c9180156126685760001901906125d0565b60246000634e487b7160e01b81526011600452fd5b60246000634e487b7160e01b81526032600452fd5b81811061269d575050565b60008155600101612692565b9190601f81116126b857505050565b611fc8926000526020600020906020601f840160051c830193106126e4575b601f0160051c0190612692565b90915081906126d7565b918181106126fb57505050565b611fc89260005260206000209182019101612692565b600260015414612722576002600155565b60405162461bcd60e51b815260206004820152601f60248201527f5265656e7472616e637947756172643a207265656e7472616e742063616c6c006044820152606490fd5b1561276e57565b60405162461bcd60e51b815260206004820152602560248201527f476f7665726e616e63654d6f64756c653a2070726f706f73616c206e6f742061604482015264637469766560d81b6064820152608490fd5b156127c857565b60405162461bcd60e51b815260206004820152602b60248201527f476f7665726e616e63654d6f64756c653a2070726f706f73616c20616c72656160448201526a191e48195e1958dd5d195960aa1b6064820152608490fd5b805482101561256e5760005260206000200190600090565b6000908152600860205260408120600481019182549060ff8260081c16600581101561297a576129745760068301544211156128b557505060086007820154910154811190816128a8575b501561289957805461ff001916610100179055565b805461ff001916610200179055565b9050600754111538612884565b9091600781015490600754908183101580612940575b156128e457505050505061010061ff0019825416179055565b6008015490811015928361290b575b5050506128fe575050565b61ff001916610200179055565b909180935060011b928084046002149015171561292c5750113880806128f3565b634e487b7160e01b81526011600452602490fd5b5060088101548060011b90808204600214901517156129605783116128cb565b634e487b7160e01b85526011600452602485fd5b50505050565b634e487b7160e01b82526021600452602482fdfe52352bb00a105d1548d00abd17aed64011bd543aa39ba778dd4cf6195754bbd6a264697066735822122088719d9ce47b5277da9b22486829f1db12d283b7cebe818be6bcedcac4730b7564736f6c634300081200332f8788117e7eff1d82e926ec794901d17c78024a50270940304540a733656f0d",
  "linkReferences": {},
  "deployedLinkReferences": {}
}