{
  "_format": "hh-sol-artifact-1",
  "contractName": "MembershipManager",
  "sourceName": "contracts/MembershipManager.sol",
  "abi": [
    {
      "inputs": [
        {
          "internalType": "address",
          "name": "_daoToken",
          "type": "address"
        }
      ],
      "stateMutability": "nonpayable",
      "type": "constructor"
    },
    {
      "anonymous": false,
      "inputs": [
        {
          "indexed": true,
          "internalType": "address",
          "name": "member",
          "type": "address"
        },
        {
          "indexed": false,
          "internalType": "enum MembershipManager.MemberTier",
          "name": "tier",
          "type": "uint8"
        },
        {
          "indexed": false,
          "internalType": "uint256",
          "name": "stakedAmount",
          "type": "uint256"
        }
      ],
      "name": "MemberJoined",
      "type": "event"
    },
    {
      "anonymous": false,
      "inputs": [
        {
          "indexed": true,
          "internalType": "address",
          "name": "member",
          "type": "address"
        },
        {
          "indexed": false,
          "internalType": "uint256",
          "name": "unstakedAmount",
          "type": "uint256"
        }
      ],
      "name": "MemberLeft",
      "type": "event"
    },
    {
      "anonymous": false,
      "inputs": [
        {
          "indexed": true,
          "internalType": "address",
          "name": "member",
          "type": "address"
        },
        {
          "indexed": false,
          "internalType": "uint256",
          "name": "oldReputation",
          "type": "uint256"
        },
        {
          "indexed": false,
          "internalType": "uint256",
          "name": "newReputation",
          "type": "uint256"
        }
      ],
      "name": "ReputationUpdated",
      "type": "event"
    },
    {
      "anonymous": false,
      "inputs": [
        {
          "indexed": true,
          "internalType": "bytes32",
          "name": "role",
          "type": "bytes32"
        },
        {
          "indexed": true,
          "internalType": "bytes32",
          "name": "previousAdminRole",
          "type": "bytes32"
        },
        {
          "indexed": true,
          "internalType": "bytes32",
          "name": "newAdminRole",
          "type": "bytes32"
        }
      ],
      "name": "RoleAdminChanged",
      "type": "event"
    },
    {
      "anonymous": false,
      "inputs": [
        {
          "indexed": true,
          "internalType": "bytes32",
          "name": "role",
          "type": "bytes32"
        },
        {
          "indexed": true,
          "internalType": "address",
          "name": "account",
          "type": "address"
        },
        {
          "indexed": true,
          "internalType": "address",
          "name": "sender",
          "type": "address"
        }
      ],
      "name": "RoleGranted",
      "type": "event"
    },
    {
      "anonymous": false,
      "inputs": [
        {
          "indexed": true,
          "internalType": "bytes32",
          "name": "role",
          "type": "bytes32"
        },
        {
          "indexed": true,
          "internalType": "address",
          "name": "account",
          "type": "address"
        },
        {
          "indexed": true,
          "internalType": "address",
          "name": "sender",
          "type": "address"
        }
      ],
      "name": "RoleRevoked",
      "type": "event"
    },
    {
      "anonymous": false,
      "inputs": [
        {
          "indexed": true,
          "internalType": "address",
          "name": "member",
          "type": "address"
        },
        {
          "indexed": false,
          "internalType": "uint256",
          "name": "amount",
          "type": "uint256"
        }
      ],
      "name": "StakeAdded",
      "type": "event"
    },
    {
      "anonymous": false,
      "inputs": [
        {
          "indexed": true,
          "internalType": "address",
          "name": "member",
          "type": "address"
        },
        {
          "indexed": false,
          "internalType": "uint256",
          "name": "amount",
          "type": "uint256"
        }
      ],
      "name": "StakeRemoved",
      "type": "event"
    },
    {
      "anonymous": false,
      "inputs": [
        {
          "indexed": false,
          "internalType": "uint256",
          "name": "basicStake",
          "type": "uint256"
        },
        {
          "indexed": false,
          "internalType": "uint256",
          "name": "advancedStake",
          "type": "uint256"
        },
        {
          "indexed": false,
          "internalType": "uint256",
          "name": "premiumStake",
          "type": "uint256"
        }
      ],
      "name": "TierRequirementsUpdated",
      "type": "event"
    },
    {
      "anonymous": false,
      "inputs": [
        {
          "indexed": true,
          "internalType": "address",
          "name": "member",
          "type": "address"
        },
        {
          "indexed": false,
          "internalType": "enum MembershipManager.MemberTier",
          "name": "oldTier",
          "type": "uint8"
        },
        {
          "indexed": false,
          "internalType": "enum MembershipManager.MemberTier",
          "name": "newTier",
          "type": "uint8"
        }
      ],
      "name": "TierUpgraded",
      "type": "event"
    },
    {
      "inputs": [],
      "name": "ADMIN_ROLE",
      "outputs": [
        {
          "internalType": "bytes32",
          "name": "",
          "type": "bytes32"
        }
      ],
      "stateMutability": "view",
      "type": "function"
    },
    {
      "inputs": [],
      "name": "DAO_ROLE",
      "outputs": [
        {
          "internalType": "bytes32",
          "name": "",
          "type": "bytes32"
        }
      ],
      "stateMutability": "view",
      "type": "function"
    },
    {
      "inputs": [],
      "name": "DEFAULT_ADMIN_ROLE",
      "outputs": [
        {
          "internalType": "bytes32",
          "name": "",
          "type": "bytes32"
        }
      ],
      "stateMutability": "view",
      "type": "function"
    },
    {
      "inputs": [],
      "name": "advancedStakeAmount",
      "outputs": [
        {
          "internalType": "uint256",
          "name": "",
          "type": "uint256"
        }
      ],
      "stateMutability": "view",
      "type": "function"
    },
    {
      "inputs": [],
      "name": "basicStakeAmount",
      "outputs": [
        {
          "internalType": "uint256",
          "name": "",
          "type": "uint256"
        }
      ],
      "stateMutability": "view",
      "type": "function"
    },
    {
      "inputs": [],
      "name": "daoToken",
      "outputs": [
        {
          "internalType": "contract IERC20",
          "name": "",
          "type": "address"
        }
      ],
      "stateMutability": "view",
      "type": "function"
    },
    {
      "inputs": [
        {
          "internalType": "address",
          "name": "account",
          "type": "address"
        },
        {
          "internalType": "enum MembershipManager.MemberTier",
          "name": "tier",
          "type": "uint8"
        }
      ],
      "name": "forceJoin",
      "outputs": [],
      "stateMutability": "nonpayable",
      "type": "function"
    },
    {
      "inputs": [
        {
          "internalType": "address",
          "name": "account",
          "type": "address"
        }
      ],
      "name": "getMember",
      "outputs": [
        {
          "internalType": "bool",
          "name": "exists",
          "type": "bool"
        },
        {
          "internalType": "enum MembershipManager.MemberTier",
          "name": "tier",
          "type": "uint8"
        },
        {
          "internalType": "uint256",
          "name": "reputation",
          "type": "uint256"
        },
        {
          "internalType": "uint256",
          "name": "stakedAmount",
          "type": "uint256"
        },
        {
          "internalType": "uint256",
          "name": "joinedAt",
          "type": "uint256"
        },
        {
          "internalType": "uint256",
          "name": "lastActivityAt",
          "type": "uint256"
        }
      ],
      "stateMutability": "view",
      "type": "function"
    },
    {
      "inputs": [],
      "name": "getMemberCount",
      "outputs": [
        {
          "internalType": "uint256",
          "name": "",
          "type": "uint256"
        }
      ],
      "stateMutability": "view",
      "type": "function"
    },
    {
      "inputs": [
        {
          "internalType": "address",
          "name": "account",
          "type": "address"
        }
      ],
      "name": "getMemberTier",
      "outputs": [
        {
          "internalType": "uint8",
          "name": "",
          "type": "uint8"
        }
      ],
      "stateMutability": "view",
      "type": "function"
    },
    {
      "inputs": [
        {
          "internalType": "address",
          "name": "account",
          "type": "address"
        }
      ],
      "name": "getReputation",
      "outputs": [
        {
          "internalType": "uint256",
          "name": "",
          "type": "uint256"
        }
      ],
      "stateMutability": "view",
      "type": "function"
    },
    {
      "inputs": [
        {
          "internalType": "bytes32",
          "name": "role",
          "type": "bytes32"
        }
      ],
      "name": "getRoleAdmin",
      "outputs": [
        {
          "internalType": "bytes32",
          "name": "",
          "type": "bytes32"
        }
      ],
      "stateMutability": "view",
      "type": "function"
    },
    {
      "inputs": [
        {
          "internalType": "address",
          "name": "account",
          "type": "address"
        }
      ],
      "name": "getStakedAmount",
      "outputs": [
        {
          "internalType": "uint256",
          "name": "",
          "type": "uint256"
        }
      ],
      "stateMutability": "view",
      "type": "function"
    },
    {
      "inputs": [
        {
          "internalType": "bytes32",
          "name": "role",
          "type": "bytes32"
        },
        {
          "internalType": "address",
          "name": "account",
          "type": "address"
        }
      ],
      "name": "grantRole",
      "outputs": [],
      "stateMutability": "nonpayable",
      "type": "function"
    },
    {
      "inputs": [
        {
          "internalType": "bytes32",
          "name": "role",
          "type": "bytes32"
        },
        {
          "internalType": "address",
          "name": "account",
          "type": "address"
        }
      ],
      "name": "hasRole",
      "outputs": [
        {
          "internalType": "bool",
          "name": "",
          "type": "bool"
        }
      ],
      "stateMutability": "view",
      "type": "function"
    },
    {
      "inputs": [
        {
          "internalType": "address",
          "name": "account",
          "type": "address"
        }
      ],
      "name": "isMember",
      "outputs": [
        {
          "internalType": "bool",
          "name": "",
          "type": "bool"
        }
      ],
      "stateMutability": "view",
      "type": "function"
    },
    {
      "inputs": [
        {
          "internalType": "uint256",
          "name": "amount",
          "type": "uint256"
        }
      ],
      "name": "joinDAO",
      "outputs": [],
      "stateMutability": "nonpayable",
      "type": "function"
    },
    {
      "inputs": [],
      "name": "leaveDAO",
      "outputs": [],
      "stateMutability": "nonpayable",
      "type": "function"
    },
    {
      "inputs": [
        {
          "internalType": "address",
          "name": "",
          "type": "address"
        }
      ],
      "name": "members",
      "outputs": [
        {
          "internalType": "bool",
          "name": "exists",
          "type": "bool"
        },
        {
          "internalType": "enum MembershipManager.MemberTier",
          "name": "tier",
          "type": "uint8"
        },
        {
          "internalType": "uint256",
          "name": "reputation",
          "type": "uint256"
        },
        {
          "internalType": "uint256",
          "name": "stakedAmount",
          "type": "uint256"
        },
        {
          "internalType": "uint256",
          "name": "joinedAt",
          "type": "uint256"
        },
        {
          "internalType": "uint256",
          "name": "lastActivityAt",
          "type": "uint256"
        }
      ],
      "stateMutability": "view",
      "type": "function"
    },
    {
      "inputs": [],
      "name": "minStakeTime",
      "outputs": [
        {
          "internalType": "uint256",
          "name": "",
          "type": "uint256"
        }
      ],
      "stateMutability": "view",
      "type": "function"
    },
    {
      "inputs": [],
      "name": "premiumStakeAmount",
      "outputs": [
        {
          "internalType": "uint256",
          "name": "",
          "type": "uint256"
        }
      ],
      "stateMutability": "view",
      "type": "function"
    },
    {
      "inputs": [
        {
          "internalType": "bytes32",
          "name": "role",
          "type": "bytes32"
        },
        {
          "internalType": "address",
          "name": "account",
          "type": "address"
        }
      ],
      "name": "renounceRole",
      "outputs": [],
      "stateMutability": "nonpayable",
      "type": "function"
    },
    {
      "inputs": [
        {
          "internalType": "bytes32",
          "name": "role",
          "type": "bytes32"
        },
        {
          "internalType": "address",
          "name": "account",
          "type": "address"
        }
      ],
      "name": "revokeRole",
      "outputs": [],
      "stateMutability": "nonpayable",
      "type": "function"
    },
    {
      "inputs": [
        {
          "internalType": "address",
          "name": "daoContract",
          "type": "address"
        }
      ],
      "name": "setDAOContract",
      "outputs": [],
      "stateMutability": "nonpayable",
      "type": "function"
    },
    {
      "inputs": [
        {
          "internalType": "uint256",
          "name": "_minStakeTime",
          "type": "uint256"
        }
      ],
      "name": "setMinStakeTime",
      "outputs": [],
      "stateMutability": "nonpayable",
      "type": "function"
    },
    {
      "inputs": [
        {
          "internalType": "uint256",
          "name": "amount",
          "type": "uint256"
        }
      ],
      "name": "stakeMore",
      "outputs": [],
      "stateMutability": "nonpayable",
      "type": "function"
    },
    {
      "inputs": [
        {
          "internalType": "bytes4",
          "name": "interfaceId",
          "type": "bytes4"
        }
      ],
      "name": "supportsInterface",
      "outputs": [
        {
          "internalType": "bool",
          "name": "",
          "type": "bool"
        }
      ],
      "stateMutability": "view",
      "type": "function"
    },
    {
      "inputs": [
        {
          "internalType": "uint256",
          "name": "amount",
          "type": "uint256"
        }
      ],
      "name": "unstake",
      "outputs": [],
      "stateMutability": "nonpayable",
      "type": "function"
    },
    {
      "inputs": [
        {
          "internalType": "address",
          "name": "member",
          "type": "address"
        },
        {
          "internalType": "uint256",
          "name": "reputation",
          "type": "uint256"
        }
      ],
      "name": "updateReputation",
      "outputs": [],
      "stateMutability": "nonpayable",
      "type": "function"
    },
    {
      "inputs": [
        {
          "internalType": "uint256",
          "name": "_basicStakeAmount",
          "type": "uint256"
        },
        {
          "internalType": "uint256",
          "name": "_advancedStakeAmount",
          "type": "uint256"
        },
        {
          "internalType": "uint256",
          "name": "_premiumStakeAmount",
          "type": "uint256"
        }
      ],
      "name": "updateTierRequirements",
      "outputs": [],
      "stateMutability": "nonpayable",
      "type": "function"
    }
  ],
  "bytecode": "0x608034620002aa57601f620021f238819003918201601f1916830192916001600160401b03919082851184861017620002af5780849260409687528339602093849181010312620002aa57516001600160a01b0381169190829003620002aa5760019081805568056bc75e2d63100000600355600492683635c9adc5dea00000845569021e19e0c9bab240000060055562093a806006558015620002675760018060a01b03196002541617600255600092838052838552858420338552855260ff86852054161562000230575b7fa49807205ce4d355092ef5a8a18f56e8913cf4a201fbe287825b095693c21775808552848652868520338652865260ff878620541615620001f7575b5085519160c0830190811183821017620001e45786528282528482016003815286830185815260608401868152608085019142835260a086019342855233895260088a528a892096511515908754905187811015620001d15761ff0060ff9160081b1692169061ffff19161717865551868601555160028501555160038401555191015560075401600755825191600383528201527fde5d6eebe2016d2e72b3745aeb91f4950d9346eb3fe868c92ed5b3e45a5a9500823392a251611f0c9081620002c68239f35b634e487b7160e01b8b526021885260248bfd5b634e487b7160e01b855260418252602485fd5b80855284865286852033865286528685208460ff1982541617905533903390600080516020620021d28339815191528780a43862000109565b83805283855285842033855285528584208360ff19825416179055333385600080516020620021d28339815191528180a4620000cc565b855162461bcd60e51b8152808501869052601f60248201527f4d656d626572736869704d616e616765723a207a65726f2061646472657373006044820152606490fd5b600080fd5b634e487b7160e01b600052604160045260246000fdfe608060408181526004908136101561001657600080fd5b600092833560e01c90816301ffc9a7146115425750806308ae4b0c146114e05780630c9405a8146114c15780631de7df41146113465780631f7678ce14611327578063248a9ca3146112fd5780632ada2596146112365780632e17de7814610f165780632f2ff15d14610e6d57806336568abe14610ddb5780633fbdf32c14610bbd578063425d512a14610abd5780634914b03014610a945780634da6a55614610a5857806375b238fc14610a1d5780638b3e9707146109ed57806391bbf36b1461086c57806391d1485414610826578063997072f7146108075780639c89a0e2146107da578063a217fddf146107bf578063a230c52414610781578063a38065d214610559578063b09f05611461053a578063c60c9af51461051c578063d547741f146104e0578063df4eafd4146104be578063e1eff80c1461030d578063e9c26518146102ce5763f5c91a081461016e57600080fd5b346102ca57806003193601126102ca57610186611596565b91602435927fa49807205ce4d355092ef5a8a18f56e8913cf4a201fbe287825b095693c217758552602091858352838620338752835260ff8487205416801561028f575b1561023557506001600160a01b0316808552600882528285205490937f5b88a2e3fc1a53234357ab78c104df11c33ccfa79886793654565ad70b8afb6e9392916102169060ff16611d07565b848652600882526001838720019181835493558351928352820152a280f35b835162461bcd60e51b8152908101839052602e60248201527f4d656d626572736869704d616e616765723a206d75737420686176652061646d60448201526d696e206f722044414f20726f6c6560901b6064820152608490fd5b507f3b5d4cc60d3ec3516ee8ae083bd60934f6eb2a6c54b1229985c41bfb092b26038652858352838620338752835260ff84872054166101ca565b8280fd5b838234610309578160031936011261030957602090517f3b5d4cc60d3ec3516ee8ae083bd60934f6eb2a6c54b1229985c41bfb092b26038152f35b5080fd5b5090346102ca5760603660031901126102ca578035916024356044359261033261161c565b841561045d57848211156103f4578184111561038b5791816060949286947fa3cb1bcfa2ed286f9ce86614f057998652eaef2c473dacf9bafc4dcb22b119ff97600355558260055581519384526020840152820152a180f35b608490602084519162461bcd60e51b8352820152603e60248201527f4d656d626572736869704d616e616765723a207072656d69756d207374616b6560448201527f206d7573742062652067726561746572207468616e20616476616e63656400006064820152fd5b608490602084519162461bcd60e51b8352820152603c60248201527f4d656d626572736869704d616e616765723a20616476616e636564207374616b60448201527f65206d7573742062652067726561746572207468616e206261736963000000006064820152fd5b608490602084519162461bcd60e51b8352820152603560248201527f4d656d626572736869704d616e616765723a206261736963207374616b65206d60448201527407573742062652067726561746572207468616e203605c1b6064820152fd5b505034610309576020366003190112610309576104d961161c565b3560065580f35b50346102ca57806003193601126102ca57610519913561051460016105036115b1565b93838752866020528620015461184e565b6119ec565b80f35b5090346102ca57826003193601126102ca5760209250549051908152f35b8382346103095781600319360112610309576020906005549051908152f35b50829034610309576020806003193601126102ca57833591610579611c86565b33845260089485835261059160ff8387205416611d07565b61059c841515611db9565b60025482516323b872dd60e01b815233838201908152306020820152604081018790529091859183916001600160a01b03169082908a90829060600103925af190811561077757906105f591879161074a575b50611c29565b33855285835261060b8460028488200154611a60565b9533865280845260ff83872088600282015554821c168083811015988961073757600182148061072c575b156106ff5750506002975b6106ec57828810156106ec5787817f7c717985ac273e663b7f3050f5b15a4388ff6ed952338954f650e2093e13937f97989903610695575b5050338752835242908287200155519283523392a26001805580f35b6106c090338a528387526106ab81878c20611ce8565b6106b7865180946115c7565b868301906115c7565b7fcbbf00b5f55f1857f9362f521999f79036413e420d1b236d6bc143af30db731a843392a28780610679565b634e487b7160e01b875260218352602487fd5b909850879060028a1115908161071f575b50156106415760039850610641565b905060055411158a610710565b508454811015610636565b634e487b7160e01b895260218552602489fd5b61076a9150853d8711610770575b61076281836119ca565b810190611c11565b886105ef565b503d610758565b83513d88823e3d90fd5b8382346103095760203660031901126103095760209160ff9082906001600160a01b036107ac611596565b1681526008855220541690519015158152f35b83823461030957816003193601126103095751908152602090f35b838234610309576020366003190112610309576020906108006107fb611596565b611eae565b9051908152f35b8382346103095781600319360112610309576020906007549051908152f35b5090346102ca57816003193601126102ca578160209360ff926108476115b1565b903582528186528282206001600160a01b039091168252855220549151911615158152f35b50829034610309578060031936011261030957610887611596565b9060243591848310156109e95761089c61161c565b6001600160a01b03168084526008602052818420549092906108c19060ff1615611bb9565b80156109a65781516108d28161197c565b6001815260208101956108e58388611cdc565b8382019686885260608301878152608084019042825260a0850192428452888a526008602052610927888b2096511515879060ff801983541691151516179055565b5199848b10156109935761095e7fde5d6eebe2016d2e72b3745aeb91f4950d9346eb3fe868c92ed5b3e45a5a9500999a9b87611ce8565b51600186015551600285015551600384015551910155600160075401600755610989825180926115c7565b846020820152a280f35b634e487b7160e01b8a526021855260248afd5b815162461bcd60e51b8152602081870152601f60248201527f4d656d626572736869704d616e616765723a20696e76616c69642074696572006044820152606490fd5b8380fd5b8382346103095760203660031901126103095760209060ff610a15610a10611596565b611e75565b915191168152f35b838234610309578160031936011261030957602090517fa49807205ce4d355092ef5a8a18f56e8913cf4a201fbe287825b095693c217758152f35b8382346103095760203660031901126103095760209160029082906001600160a01b03610a83611596565b168152600885522001549051908152f35b83823461030957816003193601126103095760025490516001600160a01b039091168152602090f35b5090346102ca57602091826003193601126109e957610ada611596565b610ae261161c565b6001600160a01b0316918215610b7c57507f3b5d4cc60d3ec3516ee8ae083bd60934f6eb2a6c54b1229985c41bfb092b260392838552848152818520838652815260ff828620541615610b33578480f35b83855284815281852083865290528320805460ff1916600117905533917f2f8788117e7eff1d82e926ec794901d17c78024a50270940304540a733656f0d8480a4388080808480f35b83606492519162461bcd60e51b8352820152601f60248201527f4d656d626572736869704d616e616765723a207a65726f2061646472657373006044820152fd5b5082903461030957602090816003193601126102ca578335610bdd611c86565b33845260088352610bf460ff838620541615611bb9565b6003548110610d7b576005548110610d63576003925b60025483516323b872dd60e01b815233818901908152306020820152604081018590529091839183916001600160a01b03169082908a90829060600103925af1908115610d595790610c62918791610d425750611c29565b8251610c6d8161197c565b6001815281810196610c7f8689611cdc565b8482019787895260608301858152608084019042825260a0850192428452338b5260088752610cc0898c2096511515879060ff801983541691151516179055565b519a848c1015610d2f57610cf77fde5d6eebe2016d2e72b3745aeb91f4950d9346eb3fe868c92ed5b3e45a5a95009a9b9c87611ce8565b51600186015551600285015551600384015551910155600160075401600755610d22835180966115c7565b8401523392a26001805580f35b634e487b7160e01b8b526021855260248bfd5b61076a9150833d85116107705761076281836119ca565b84513d88823e3d90fd5b84548110610d7357600292610c0a565b600192610c0a565b815162461bcd60e51b8152808601849052603460248201527f4d656d626572736869704d616e616765723a20696e73756666696369656e742060448201527339ba30b5b2903337b9103130b9b4b1903a34b2b960611b6064820152608490fd5b50919034610309578260031936011261030957610df66115b1565b90336001600160a01b03831603610e12579061051991356119ec565b608490602085519162461bcd60e51b8352820152602f60248201527f416363657373436f6e74726f6c3a2063616e206f6e6c792072656e6f756e636560448201526e103937b632b9903337b91039b2b63360891b6064820152fd5b5090346102ca57816003193601126102ca573590610e896115b1565b9082845283602052610ea06001828620015461184e565b82845260208481528185206001600160a01b039093168086529290528084205460ff1615610ecc578380f35b828452836020528084208285526020528320600160ff1982541617905533917f2f8788117e7eff1d82e926ec794901d17c78024a50270940304540a733656f0d8480a43880808380f35b5090346102ca576020806003193601126109e957813591610f35611c86565b3385526008808352610f4c60ff8688205416611d07565b610f57841515611db9565b33865280835260029081868820015485116111dd57338752808452610f90610f886003888a20015460065490611a60565b421015611d53565b3387528084528186882001548581039081116111ca5733885281855286882054821c60ff16908482101582816111b75760038114806111ac575b1561114a57508554821061111e5784915b338b52848852858a8c200155610737578481101561073757928692828a868b61105299968b99036110c6575b505033808d529287525050888a2042908401559054885163a9059cbb60e01b81529283019182526020820193909352909384926001600160a01b03169183918a918391604090910190565b03925af19081156110bc577fa018dcbc822f59fb0d0c3e7a86c8e4259b9676cdea9e5fc26279b9c4c5d86eef93949161109191879161109f5750611c29565b519283523392a26001805580f35b6110b69150843d86116107705761076281836119ca565b386105ef565b84513d87823e3d90fd5b816110db916110f094338152878c5220611ce8565b6110e78c5180946115c7565b878301906115c7565b7fcbbf00b5f55f1857f9362f521999f79036413e420d1b236d6bc143af30db731a8a3392a2388a818b611007565b600354821061112f57600191610fdb565b885162461bcd60e51b815280611146818901611e1e565b0390fd5b8a9150858114806111a2575b1561116d5750600354821061112f57600191610fdb565b918a91506001831480611197575b15610fdb57895162461bcd60e51b815280611146818a01611e1e565b50600354811061117b565b5086548310611156565b506005548310610fca565b634e487b7160e01b8b526021875260248bfd5b634e487b7160e01b885260118452602488fd5b855162461bcd60e51b8152808401859052602d60248201527f4d656d626572736869704d616e616765723a20696e73756666696369656e742060448201526c1cdd185ad95908185b5bdd5b9d609a1b6064820152608490fd5b50829034610309576020366003190112610309576001600160a01b0361125a611596565b16825260086020528082209080516112718161197c565b82549260ff84161515825261129060ff602084019560081c1685611cdc565b600181015483830190815260028201549060608401918252876003840154936080860194855201549360a08101948552511515955196888810156112ea5750519051915192519351965086956112e695876115ea565b0390f35b634e487b7160e01b815260218952602490fd5b5090346102ca5760203660031901126102ca57816020936001923581528085522001549051908152f35b8382346103095781600319360112610309576020906006549051908152f35b5090346102ca57826003193601126102ca57611360611c86565b33835260206008815261137860ff8486205416611d07565b33845260088152611395610f886003858720015460065490611a60565b33845260088152828420918481600285019482865496818355816001840155558260038201550155600754801561147f576000190160075582611405575b507f9346ee3b9c76468ddd2fdbfb65dae9da6e2479083b25cd80377d6809f6f8c69d9192519283523392a26001805580f35b600254845163a9059cbb60e01b81523392810192835260208301859052918391839182900360400190829089906001600160a01b03165af19081156110bc577f9346ee3b9c76468ddd2fdbfb65dae9da6e2479083b25cd80377d6809f6f8c69d93949161147891879161109f5750611c29565b92916113d3565b5060649184519162461bcd60e51b8352820152601b60248201527f436f756e7465723a2064656372656d656e74206f766572666c6f7700000000006044820152fd5b8382346103095781600319360112610309576020906003549051908152f35b50823461153f57602036600319011261153f576112e69082906001600160a01b03611509611596565b1681526008602052209182549260018101549460028201549060038301549201549251958560ff80899860081c169116876115ea565b80fd5b849084346102ca5760203660031901126102ca573563ffffffff60e01b81168091036102ca5760209250637965db0b60e01b8114908115611585575b5015158152f35b6301ffc9a760e01b1490508361157e565b600435906001600160a01b03821682036115ac57565b600080fd5b602435906001600160a01b03821682036115ac57565b9060048210156115d45752565b634e487b7160e01b600052602160045260246000fd5b9261160960a095929897969360c08601991515865260208601906115c7565b6040840152606083015260808201520152565b3360009081527f7d7ffb7a348e1c6a02869081a26547b49160dd3df72d1d75a570eb9b698292ec6020908152604080832054909291907fa49807205ce4d355092ef5a8a18f56e8913cf4a201fbe287825b095693c217759060ff16156116825750505050565b61168b33611aaa565b90845190611698826119ae565b6042825283820194606036873782511561183a576030865382519060019182101561183a5790607860218501536041915b8183116117cc5750505061178a5784611758604861177c9360449798519889916117498984019876020b1b1b2b9b9a1b7b73a3937b61d1030b1b1b7bab73a1604d1b8a52611720815180928d603789019101611959565b8401917001034b99036b4b9b9b4b733903937b6329607d1b603784015251809386840190611959565b010360288101895201876119ca565b5194859362461bcd60e51b8552600485015251809281602486015285850190611959565b601f01601f19168101030190fd5b60648386519062461bcd60e51b825280600483015260248201527f537472696e67733a20686578206c656e67746820696e73756666696369656e746044820152fd5b909192600f81166010811015611826576f181899199a1a9b1b9c1cb0b131b232b360811b901a6117fc8587611a83565b5360041c928015611812576000190191906116c9565b634e487b7160e01b82526011600452602482fd5b634e487b7160e01b83526032600452602483fd5b634e487b7160e01b81526032600452602490fd5b60008181526020818152604092838320338452825260ff8484205416156118755750505050565b61187e33611aaa565b9084519061188b826119ae565b6042825283820194606036873782511561183a576030865382519060019182101561183a5790607860218501536041915b8183116119135750505061178a5784611758604861177c9360449798519889916117498984019876020b1b1b2b9b9a1b7b73a3937b61d1030b1b1b7bab73a1604d1b8a52611720815180928d603789019101611959565b909192600f81166010811015611826576f181899199a1a9b1b9c1cb0b131b232b360811b901a6119438587611a83565b5360041c928015611812576000190191906118bc565b60005b83811061196c5750506000910152565b818101518382015260200161195c565b60c0810190811067ffffffffffffffff82111761199857604052565b634e487b7160e01b600052604160045260246000fd5b6080810190811067ffffffffffffffff82111761199857604052565b90601f8019910116810190811067ffffffffffffffff82111761199857604052565b9060009180835282602052604083209160018060a01b03169182845260205260ff604084205416611a1c57505050565b80835282602052604083208284526020526040832060ff1981541690557ff6391f5c32d9c69d2a47ea670b442974b53935d1edc7fd64eb21e047a839171b339380a4565b91908201809211611a6d57565b634e487b7160e01b600052601160045260246000fd5b908151811015611a94570160200190565b634e487b7160e01b600052603260045260246000fd5b604051906060820182811067ffffffffffffffff82111761199857604052602a8252602082016040368237825115611a9457603090538151600190811015611a9457607860218401536029905b808211611b4b575050611b075790565b606460405162461bcd60e51b815260206004820152602060248201527f537472696e67733a20686578206c656e67746820696e73756666696369656e746044820152fd5b9091600f81166010811015611ba4576f181899199a1a9b1b9c1cb0b131b232b360811b901a611b7a8486611a83565b5360041c918015611b8f576000190190611af7565b60246000634e487b7160e01b81526011600452fd5b60246000634e487b7160e01b81526032600452fd5b15611bc057565b60405162461bcd60e51b815260206004820152602360248201527f4d656d626572736869704d616e616765723a20616c72656164792061206d656d6044820152623132b960e91b6064820152608490fd5b908160209103126115ac575180151581036115ac5790565b15611c3057565b60405162461bcd60e51b815260206004820152602860248201527f4d656d626572736869704d616e616765723a20746f6b656e207472616e7366656044820152671c8819985a5b195960c21b6064820152608490fd5b600260015414611c97576002600155565b60405162461bcd60e51b815260206004820152601f60248201527f5265656e7472616e637947756172643a207265656e7472616e742063616c6c006044820152606490fd5b60048210156115d45752565b9060048110156115d45761ff0082549160081b169061ff001916179055565b15611d0e57565b60405162461bcd60e51b815260206004820152601f60248201527f4d656d626572736869704d616e616765723a206e6f742061206d656d626572006044820152606490fd5b15611d5a57565b60405162461bcd60e51b815260206004820152603160248201527f4d656d626572736869704d616e616765723a206d696e696d756d207374616b65604482015270081d1a5b59481b9bdd081c995858da1959607a1b6064820152608490fd5b15611dc057565b60405162461bcd60e51b815260206004820152603060248201527f4d656d626572736869704d616e616765723a20616d6f756e74206d757374206260448201526f0652067726561746572207468616e20360841b6064820152608490fd5b60809060208152603660208201527f4d656d626572736869704d616e616765723a20756e7374616b6520776f756c6460408201527510323937b8103132b637bb903130b9b4b1903a34b2b960511b60608201520190565b6001600160a01b031660009081526008602052604090205460ff811615611ea85760081c60ff1660048110156115d45790565b50600090565b6001600160a01b03166000908152600860205260409020805460ff1615611ea857600101549056fea2646970667358221220ed859f9b9b4c9acfb946770d9b3135fc6e5ae9b503f3fb56fdbd66ab543988ac64736f6c634300081200332f8788117e7eff1d82e926ec794901d17c78024a50270940304540a733656f0d",
  "linkReferences": {},
  "deployedLinkReferences": {}
}