{
  "_format": "hh-sol-artifact-1",
  "contractName": "RewardToken",
  "sourceName": "contracts/RewardToken.sol",
  "abi": [
    {
      "inputs": [],
      "stateMutability": "nonpayable",
      "type": "constructor"
    },
    {
      "anonymous": false,
      "inputs": [
        {
          "indexed": true,
          "internalType": "address",
          "name": "owner",
          "type": "address"
        },
        {
          "indexed": true,
          "internalType": "address",
          "name": "spender",
          "type": "address"
        },
        {
          "indexed": false,
          "internalType": "uint256",
          "name": "value",
          "type": "uint256"
        }
      ],
      "name": "Approval",
      "type": "event"
    },
    {
      "anonymous": false,
      "inputs": [
        {
          "indexed": true,
          "internalType": "address",
          "name": "previousOwner",
          "type": "address"
        },
        {
          "indexed": true,
          "internalType": "address",
          "name": "newOwner",
          "type": "address"
        }
      ],
      "name": "OwnershipTransferred",
      "type": "event"
    },
    {
      "anonymous": false,
      "inputs": [
        {
          "indexed": true,
          "internalType": "address",
          "name": "to",
          "type": "address"
        },
        {
          "indexed": false,
          "internalType": "uint256",
          "name": "amount",
          "type": "uint256"
        }
      ],
      "name": "TokensMinted",
      "type": "event"
    },
    {
      "anonymous": false,
      "inputs": [
        {
          "indexed": true,
          "internalType": "address",
          "name": "from",
          "type": "address"
        },
        {
          "indexed": true,
          "internalType": "address",
          "name": "to",
          "type": "address"
        },
        {
          "indexed": false,
          "internalType": "uint256",
          "name": "value",
          "type": "uint256"
        }
      ],
      "name": "Transfer",
      "type": "event"
    },
    {
      "inputs": [],
      "name": "MAX_SUPPLY",
      "outputs": [
        {
          "internalType": "uint256",
          "name": "",
          "type": "uint256"
        }
      ],
      "stateMutability": "view",
      "type": "function"
    },
    {
      "inputs": [
        {
          "internalType": "address",
          "name": "owner",
          "type": "address"
        },
        {
          "internalType": "address",
          "name": "spender",
          "type": "address"
        }
      ],
      "name": "allowance",
      "outputs": [
        {
          "internalType": "uint256",
          "name": "",
          "type": "uint256"
        }
      ],
      "stateMutability": "view",
      "type": "function"
    },
    {
      "inputs": [
        {
          "internalType": "address",
          "name": "spender",
          "type": "address"
        },
        {
          "internalType": "uint256",
          "name": "amount",
          "type": "uint256"
        }
      ],
      "name": "approve",
      "outputs": [
        {
          "internalType": "bool",
          "name": "",
          "type": "bool"
        }
      ],
      "stateMutability": "nonpayable",
      "type": "function"
    },
    {
      "inputs": [
        {
          "internalType": "address",
          "name": "account",
          "type": "address"
        }
      ],
      "name": "balanceOf",
      "outputs": [
        {
          "internalType": "uint256",
          "name": "",
          "type": "uint256"
        }
      ],
      "stateMutability": "view",
      "type": "function"
    },
    {
      "inputs": [],
      "name": "decimals",
      "outputs": [
        {
          "internalType": "uint8",
          "name": "",
          "type": "uint8"
        }
      ],
      "stateMutability": "view",
      "type": "function"
    },
    {
      "inputs": [
        {
          "internalType": "address",
          "name": "spender",
          "type": "address"
        },
        {
          "internalType": "uint256",
          "name": "subtractedValue",
          "type": "uint256"
        }
      ],
      "name": "decreaseAllowance",
      "outputs": [
        {
          "internalType": "bool",
          "name": "",
          "type": "bool"
        }
      ],
      "stateMutability": "nonpayable",
      "type": "function"
    },
    {
      "inputs": [
        {
          "internalType": "address",
          "name": "spender",
          "type": "address"
        },
        {
          "internalType": "uint256",
          "name": "addedValue",
          "type": "uint256"
        }
      ],
      "name": "increaseAllowance",
      "outputs": [
        {
          "internalType": "bool",
          "name": "",
          "type": "bool"
        }
      ],
      "stateMutability": "nonpayable",
      "type": "function"
    },
    {
      "inputs": [
        {
          "internalType": "address",
          "name": "to",
          "type": "address"
        },
        {
          "internalType": "uint256",
          "name": "amount",
          "type": "uint256"
        }
      ],
      "name": "mint",
      "outputs": [],
      "stateMutability": "nonpayable",
      "type": "function"
    },
    {
      "inputs": [],
      "name": "name",
      "outputs": [
        {
          "internalType": "string",
          "name": "",
          "type": "string"
        }
      ],
      "stateMutability": "view",
      "type": "function"
    },
    {
      "inputs": [],
      "name": "owner",
      "outputs": [
        {
          "internalType": "address",
          "name": "",
          "type": "address"
        }
      ],
      "stateMutability": "view",
      "type": "function"
    },
    {
      "inputs": [],
      "name": "renounceOwnership",
      "outputs": [],
      "stateMutability": "nonpayable",
      "type": "function"
    },
    {
      "inputs": [
        {
          "internalType": "uint256",
          "name": "amount",
          "type": "uint256"
        }
      ],
      "name": "requestTokens",
      "outputs": [],
      "stateMutability": "nonpayable",
      "type": "function"
    },
    {
      "inputs": [],
      "name": "symbol",
      "outputs": [
        {
          "internalType": "string",
          "name": "",
          "type": "string"
        }
      ],
      "stateMutability": "view",
      "type": "function"
    },
    {
      "inputs": [],
      "name": "totalSupply",
      "outputs": [
        {
          "internalType": "uint256",
          "name": "",
          "type": "uint256"
        }
      ],
      "stateMutability": "view",
      "type": "function"
    },
    {
      "inputs": [
        {
          "internalType": "address",
          "name": "to",
          "type": "address"
        },
        {
          "internalType": "uint256",
          "name": "amount",
          "type": "uint256"
        }
      ],
      "name": "transfer",
      "outputs": [
        {
          "internalType": "bool",
          "name": "",
          "type": "bool"
        }
      ],
      "stateMutability": "nonpayable",
      "type": "function"
    },
    {
      "inputs": [
        {
          "internalType": "address",
          "name": "from",
          "type": "address"
        },
        {
          "internalType": "address",
          "name": "to",
          "type": "address"
        },
        {
          "internalType": "uint256",
          "name": "amount",
          "type": "uint256"
        }
      ],
      "name": "transferFrom",
      "outputs": [
        {
          "internalType": "bool",
          "name": "",
          "type": "bool"
        }
      ],
      "stateMutability": "nonpayable",
      "type": "function"
    },
    {
      "inputs": [
        {
          "internalType": "address",
          "name": "newOwner",
          "type": "address"
        }
      ],
      "name": "transferOwnership",
      "outputs": [],
      "stateMutability": "nonpayable",
      "type": "function"
    }
  ],
  "bytecode": "0x60803462000431576040906001600160401b0390808301828111828210176200041b578352600781526020906611185d1851925360ca1b82820152835190848201828110858211176200041b578552600493848352631111925360e21b8484015281519281841162000406576003908154946001948587811c97168015620003fb575b88881014620003e6578190601f9788811162000390575b50889088831160011462000329576000926200031d575b505060001982851b1c191690851b1782555b8051928311620003085786548481811c91168015620002fd575b87821014620002e8578581116200029d575b508590858411600114620002325793839491849260009562000226575b50501b92600019911b1c19161783555b60058054336001600160a01b03198216811790925585519291906001600160a01b03167f8be0079c531659141344cd1fd0a4f28419497f9722a3daafe3b4186f6b6457e0600080a33315620001e957505060025469d3c21bcecceda100000092838201809211620001d457506000917fddf252ad1be2c89b69c2b068fc378daa952ba7f163c4a11628f55a4df523b3ef9160025533835282815284832084815401905584519384523393a351610d249081620004378239f35b601190634e487b7160e01b6000525260246000fd5b6064928462461bcd60e51b845283015260248201527f45524332303a206d696e7420746f20746865207a65726f2061646472657373006044820152fd5b0151935038806200010b565b9190601f198416928860005284886000209460005b8a898383106200028557505050106200026a575b50505050811b0183556200011b565b01519060f884600019921b161c19169055388080806200025b565b86860151895590970196948501948893500162000247565b87600052866000208680860160051c820192898710620002de575b0160051c019085905b828110620002d1575050620000ee565b60008155018590620002c1565b92508192620002b8565b602288634e487b7160e01b6000525260246000fd5b90607f1690620000dc565b604187634e487b7160e01b6000525260246000fd5b015190503880620000b0565b90879350601f19831691866000528a6000209260005b8c82821062000379575050841162000360575b505050811b018255620000c2565b015160001983871b60f8161c1916905538808062000352565b8385015186558b979095019493840193016200033f565b90915084600052886000208880850160051c8201928b8610620003dc575b918991869594930160051c01915b828110620003cc57505062000099565b60008155859450899101620003bc565b92508192620003ae565b602289634e487b7160e01b6000525260246000fd5b96607f169662000082565b604186634e487b7160e01b6000525260246000fd5b634e487b7160e01b600052604160045260246000fd5b600080fdfe6080604081815260048036101561001557600080fd5b600092833560e01c90816306fdde03146107ac57508063095ea7b31461078257806318160ddd1461076357806323b872dd14610699578063313ce5671461067d57806332cb6b0c14610656578063395093511461060657806340c10f191461058557806370a082311461054e578063715018a6146104f15780638da5cb5b146104c857806395d89b41146103a8578063a457c2d714610301578063a9059cbb146102d0578063dd62ed3e14610283578063eef9c27c146101ac5763f2fde38b146100de57600080fd5b346101a85760203660031901126101a8576100f76108ea565b9061010061091b565b6001600160a01b03918216928315610156575050600554826bffffffffffffffffffffffff60a01b821617600555167f8be0079c531659141344cd1fd0a4f28419497f9722a3daafe3b4186f6b6457e08380a380f35b906020608492519162461bcd60e51b8352820152602660248201527f4f776e61626c653a206e6577206f776e657220697320746865207a65726f206160448201526564647265737360d01b6064820152fd5b8280fd5b5090346101a85760203660031901126101a85781359168056bc75e2d63100000831161022d57506101f66b033b2e3c9fd0803ce80000006101ef84600254610973565b1115610c06565b6102008233610c4b565b519081527f3f2c9d57c068687834f0de942a9babb9e5acab57d516d3480a3c16ee165a427360203392a280f35b6020608492519162461bcd60e51b8352820152602b60248201527f43616e6e6f742072657175657374206d6f7265207468616e2031303020746f6b60448201526a656e73206174206f6e636560a81b6064820152fd5b5050346102cc57806003193601126102cc57806020926102a16108ea565b6102a9610905565b6001600160a01b0391821683526001865283832091168252845220549051908152f35b5080fd5b5050346102cc57806003193601126102cc576020906102fa6102f06108ea565b6024359033610996565b5160018152f35b5082346103a557826003193601126103a55761031b6108ea565b918360243592338152600160205281812060018060a01b0386168252602052205490828210610354576020856102fa8585038733610b04565b608490602086519162461bcd60e51b8352820152602560248201527f45524332303a2064656372656173656420616c6c6f77616e63652062656c6f77604482015264207a65726f60d81b6064820152fd5b80fd5b509190346102cc57816003193601126102cc57805190828454600181811c908083169283156104be575b60209384841081146104ab5783885290811561048f575060011461043a575b505050829003601f01601f191682019267ffffffffffffffff84118385101761042757508291826104239252826108a1565b0390f35b634e487b7160e01b815260418552602490fd5b8787529192508591837f8a35acfbc15ff81a39ae7d344fd709f28e8600b4aa8c65c6b64bfe7fe36bd19b5b83851061047b57505050508301013880806103f1565b805488860183015293019284908201610465565b60ff1916878501525050151560051b84010190503880806103f1565b634e487b7160e01b895260228a52602489fd5b91607f16916103d2565b5050346102cc57816003193601126102cc5760055490516001600160a01b039091168152602090f35b83346103a557806003193601126103a55761050a61091b565b600580546001600160a01b0319811690915581906001600160a01b03167f8be0079c531659141344cd1fd0a4f28419497f9722a3daafe3b4186f6b6457e08280a380f35b5050346102cc5760203660031901126102cc5760209181906001600160a01b036105766108ea565b16815280845220549051908152f35b5050346102cc57806003193601126102cc577f3f2c9d57c068687834f0de942a9babb9e5acab57d516d3480a3c16ee165a427360206105c26108ea565b602435936105ce61091b565b6105ea6b033b2e3c9fd0803ce80000006101ef87600254610973565b6105f48583610c4b565b519384526001600160a01b031692a280f35b5050346102cc57806003193601126102cc576102fa60209261064f6106296108ea565b338352600186528483206001600160a01b03821684528652918490205460243590610973565b9033610b04565b5050346102cc57816003193601126102cc57602090516b033b2e3c9fd0803ce80000008152f35b5050346102cc57816003193601126102cc576020905160128152f35b508290346102cc5760603660031901126102cc576106b56108ea565b6106bd610905565b91846044359460018060a01b0384168152600160205281812033825260205220549060001982036106f7575b6020866102fa878787610996565b8482106107205750918391610715602096956102fa95033383610b04565b9193948193506106e9565b606490602087519162461bcd60e51b8352820152601d60248201527f45524332303a20696e73756666696369656e7420616c6c6f77616e63650000006044820152fd5b5050346102cc57816003193601126102cc576020906002549051908152f35b5050346102cc57806003193601126102cc576020906102fa6107a26108ea565b6024359033610b04565b84915083346101a857826003193601126101a85782600354600181811c90808316928315610897575b60209384841081146104ab5783885290811561087b575060011461082557505050829003601f01601f191682019267ffffffffffffffff84118385101761042757508291826104239252826108a1565b600387529192508591837fc2575a0e9e593c00f959f8c92f12db2869c3395a3b0502d05e2516446f71f85b5b83851061086757505050508301018580806103f1565b805488860183015293019284908201610851565b60ff1916878501525050151560051b84010190508580806103f1565b91607f16916107d5565b6020808252825181830181905290939260005b8281106108d657505060409293506000838284010152601f8019910116010190565b8181018601518482016040015285016108b4565b600435906001600160a01b038216820361090057565b600080fd5b602435906001600160a01b038216820361090057565b6005546001600160a01b0316330361092f57565b606460405162461bcd60e51b815260206004820152602060248201527f4f776e61626c653a2063616c6c6572206973206e6f7420746865206f776e65726044820152fd5b9190820180921161098057565b634e487b7160e01b600052601160045260246000fd5b6001600160a01b03908116918215610ab15716918215610a6057600082815280602052604081205491808310610a0c57604082827fddf252ad1be2c89b69c2b068fc378daa952ba7f163c4a11628f55a4df523b3ef958760209652828652038282205586815220818154019055604051908152a3565b60405162461bcd60e51b815260206004820152602660248201527f45524332303a207472616e7366657220616d6f756e7420657863656564732062604482015265616c616e636560d01b6064820152608490fd5b60405162461bcd60e51b815260206004820152602360248201527f45524332303a207472616e7366657220746f20746865207a65726f206164647260448201526265737360e81b6064820152608490fd5b60405162461bcd60e51b815260206004820152602560248201527f45524332303a207472616e736665722066726f6d20746865207a65726f206164604482015264647265737360d81b6064820152608490fd5b6001600160a01b03908116918215610bb55716918215610b655760207f8c5be1e5ebec7d5bd14f71427d1e84f3dd0314c0f7b2291e5b200ac8c7c3b925918360005260018252604060002085600052825280604060002055604051908152a3565b60405162461bcd60e51b815260206004820152602260248201527f45524332303a20617070726f766520746f20746865207a65726f206164647265604482015261737360f01b6064820152608490fd5b60405162461bcd60e51b8152602060048201526024808201527f45524332303a20617070726f76652066726f6d20746865207a65726f206164646044820152637265737360e01b6064820152608490fd5b15610c0d57565b60405162461bcd60e51b815260206004820152601660248201527545786365656473206d6178696d756d20737570706c7960501b6044820152606490fd5b6001600160a01b0316908115610ca9577fddf252ad1be2c89b69c2b068fc378daa952ba7f163c4a11628f55a4df523b3ef602082610c8d600094600254610973565b60025584845283825260408420818154019055604051908152a3565b60405162461bcd60e51b815260206004820152601f60248201527f45524332303a206d696e7420746f20746865207a65726f2061646472657373006044820152606490fdfea264697066735822122016eb8b11ea7677834bb6896547dbb535e02386e9c356c3a98769fef5ed97025f64736f6c63430008120033",
  "linkReferences": {},
  "deployedLinkReferences": {}
}