{
  "_format": "hh-sol-artifact-1",
  "contractName": "TaskManager",
  "sourceName": "contracts/TaskManager.sol",
  "abi": [
    {
      "inputs": [
        {
          "internalType": "address",
          "name": "_daoToken",
          "type": "address"
        }
      ],
      "stateMutability": "nonpayable",
      "type": "constructor"
    },
    {
      "anonymous": false,
      "inputs": [
        {
          "indexed": true,
          "internalType": "uint256",
          "name": "taskId",
          "type": "uint256"
        },
        {
          "indexed": true,
          "internalType": "address",
          "name": "reviewer",
          "type": "address"
        }
      ],
      "name": "ReviewerAdded",
      "type": "event"
    },
    {
      "anonymous": false,
      "inputs": [
        {
          "indexed": true,
          "internalType": "address",
          "name": "user",
          "type": "address"
        },
        {
          "indexed": false,
          "internalType": "uint256",
          "name": "amount",
          "type": "uint256"
        },
        {
          "indexed": false,
          "internalType": "string",
          "name": "reason",
          "type": "string"
        }
      ],
      "name": "RewardClaimed",
      "type": "event"
    },
    {
      "anonymous": false,
      "inputs": [
        {
          "indexed": true,
          "internalType": "bytes32",
          "name": "role",
          "type": "bytes32"
        },
        {
          "indexed": true,
          "internalType": "bytes32",
          "name": "previousAdminRole",
          "type": "bytes32"
        },
        {
          "indexed": true,
          "internalType": "bytes32",
          "name": "newAdminRole",
          "type": "bytes32"
        }
      ],
      "name": "RoleAdminChanged",
      "type": "event"
    },
    {
      "anonymous": false,
      "inputs": [
        {
          "indexed": true,
          "internalType": "bytes32",
          "name": "role",
          "type": "bytes32"
        },
        {
          "indexed": true,
          "internalType": "address",
          "name": "account",
          "type": "address"
        },
        {
          "indexed": true,
          "internalType": "address",
          "name": "sender",
          "type": "address"
        }
      ],
      "name": "RoleGranted",
      "type": "event"
    },
    {
      "anonymous": false,
      "inputs": [
        {
          "indexed": true,
          "internalType": "bytes32",
          "name": "role",
          "type": "bytes32"
        },
        {
          "indexed": true,
          "internalType": "address",
          "name": "account",
          "type": "address"
        },
        {
          "indexed": true,
          "internalType": "address",
          "name": "sender",
          "type": "address"
        }
      ],
      "name": "RoleRevoked",
      "type": "event"
    },
    {
      "anonymous": false,
      "inputs": [
        {
          "indexed": true,
          "internalType": "uint256",
          "name": "submissionId",
          "type": "uint256"
        },
        {
          "indexed": true,
          "internalType": "uint256",
          "name": "taskId",
          "type": "uint256"
        }
      ],
      "name": "SubmissionApproved",
      "type": "event"
    },
    {
      "anonymous": false,
      "inputs": [
        {
          "indexed": true,
          "internalType": "uint256",
          "name": "submissionId",
          "type": "uint256"
        },
        {
          "indexed": true,
          "internalType": "uint256",
          "name": "taskId",
          "type": "uint256"
        },
        {
          "indexed": true,
          "internalType": "address",
          "name": "submitter",
          "type": "address"
        },
        {
          "indexed": false,
          "internalType": "string",
          "name": "dataCID",
          "type": "string"
        },
        {
          "indexed": false,
          "internalType": "bool",
          "name": "isEncrypted",
          "type": "bool"
        }
      ],
      "name": "SubmissionCreated",
      "type": "event"
    },
    {
      "anonymous": false,
      "inputs": [
        {
          "indexed": true,
          "internalType": "uint256",
          "name": "submissionId",
          "type": "uint256"
        },
        {
          "indexed": true,
          "internalType": "address",
          "name": "validator",
          "type": "address"
        },
        {
          "indexed": false,
          "internalType": "bool",
          "name": "approved",
          "type": "bool"
        }
      ],
      "name": "SubmissionValidated",
      "type": "event"
    },
    {
      "anonymous": false,
      "inputs": [
        {
          "indexed": true,
          "internalType": "uint256",
          "name": "taskId",
          "type": "uint256"
        },
        {
          "indexed": true,
          "internalType": "address",
          "name": "creator",
          "type": "address"
        },
        {
          "indexed": false,
          "internalType": "string",
          "name": "title",
          "type": "string"
        },
        {
          "indexed": false,
          "internalType": "enum TaskManager.TaskType",
          "name": "taskType",
          "type": "uint8"
        },
        {
          "indexed": false,
          "internalType": "uint256",
          "name": "reward",
          "type": "uint256"
        },
        {
          "indexed": false,
          "internalType": "uint256",
          "name": "reviewReward",
          "type": "uint256"
        },
        {
          "indexed": false,
          "internalType": "uint256",
          "name": "deadline",
          "type": "uint256"
        }
      ],
      "name": "TaskCreated",
      "type": "event"
    },
    {
      "anonymous": false,
      "inputs": [
        {
          "indexed": true,
          "internalType": "uint256",
          "name": "taskId",
          "type": "uint256"
        },
        {
          "indexed": false,
          "internalType": "enum TaskManager.TaskStatus",
          "name": "status",
          "type": "uint8"
        }
      ],
      "name": "TaskUpdated",
      "type": "event"
    },
    {
      "inputs": [],
      "name": "ADMIN_ROLE",
      "outputs": [
        {
          "internalType": "bytes32",
          "name": "",
          "type": "bytes32"
        }
      ],
      "stateMutability": "view",
      "type": "function"
    },
    {
      "inputs": [],
      "name": "DAO_ROLE",
      "outputs": [
        {
          "internalType": "bytes32",
          "name": "",
          "type": "bytes32"
        }
      ],
      "stateMutability": "view",
      "type": "function"
    },
    {
      "inputs": [],
      "name": "DEFAULT_ADMIN_ROLE",
      "outputs": [
        {
          "internalType": "bytes32",
          "name": "",
          "type": "bytes32"
        }
      ],
      "stateMutability": "view",
      "type": "function"
    },
    {
      "inputs": [
        {
          "internalType": "uint256",
          "name": "taskId",
          "type": "uint256"
        },
        {
          "internalType": "address",
          "name": "reviewer",
          "type": "address"
        }
      ],
      "name": "addReviewer",
      "outputs": [],
      "stateMutability": "nonpayable",
      "type": "function"
    },
    {
      "inputs": [
        {
          "internalType": "string",
          "name": "title",
          "type": "string"
        },
        {
          "internalType": "string",
          "name": "description",
          "type": "string"
        },
        {
          "internalType": "enum TaskManager.TaskType",
          "name": "taskType",
          "type": "uint8"
        },
        {
          "internalType": "uint256",
          "name": "reward",
          "type": "uint256"
        },
        {
          "internalType": "uint256",
          "name": "reviewReward",
          "type": "uint256"
        },
        {
          "internalType": "uint256",
          "name": "requiredSubmissions",
          "type": "uint256"
        },
        {
          "internalType": "uint256",
          "name": "requiredValidations",
          "type": "uint256"
        },
        {
          "internalType": "uint256",
          "name": "deadline",
          "type": "uint256"
        },
        {
          "internalType": "enum TaskManager.PrivacyLevel",
          "name": "privacyLevel",
          "type": "uint8"
        },
        {
          "internalType": "string",
          "name": "accessConditionsCID",
          "type": "string"
        },
        {
          "internalType": "string",
          "name": "instructionsCID",
          "type": "string"
        }
      ],
      "name": "createTask",
      "outputs": [
        {
          "internalType": "uint256",
          "name": "",
          "type": "uint256"
        }
      ],
      "stateMutability": "nonpayable",
      "type": "function"
    },
    {
      "inputs": [],
      "name": "daoToken",
      "outputs": [
        {
          "internalType": "contract IERC20",
          "name": "",
          "type": "address"
        }
      ],
      "stateMutability": "view",
      "type": "function"
    },
    {
      "inputs": [
        {
          "internalType": "bytes32",
          "name": "role",
          "type": "bytes32"
        }
      ],
      "name": "getRoleAdmin",
      "outputs": [
        {
          "internalType": "bytes32",
          "name": "",
          "type": "bytes32"
        }
      ],
      "stateMutability": "view",
      "type": "function"
    },
    {
      "inputs": [
        {
          "internalType": "uint256",
          "name": "submissionId",
          "type": "uint256"
        }
      ],
      "name": "getSubmission",
      "outputs": [
        {
          "internalType": "uint256",
          "name": "id",
          "type": "uint256"
        },
        {
          "internalType": "uint256",
          "name": "taskId",
          "type": "uint256"
        },
        {
          "internalType": "address",
          "name": "submitter",
          "type": "address"
        },
        {
          "internalType": "string",
          "name": "dataCID",
          "type": "string"
        },
        {
          "internalType": "bool",
          "name": "isEncrypted",
          "type": "bool"
        },
        {
          "internalType": "uint256",
          "name": "validationCount",
          "type": "uint256"
        },
        {
          "internalType": "bool",
          "name": "isApproved",
          "type": "bool"
        },
        {
          "internalType": "uint256",
          "name": "createdAt",
          "type": "uint256"
        }
      ],
      "stateMutability": "view",
      "type": "function"
    },
    {
      "inputs": [],
      "name": "getSubmissionCount",
      "outputs": [
        {
          "internalType": "uint256",
          "name": "",
          "type": "uint256"
        }
      ],
      "stateMutability": "view",
      "type": "function"
    },
    {
      "inputs": [
        {
          "internalType": "uint256",
          "name": "taskId",
          "type": "uint256"
        }
      ],
      "name": "getTaskBasic",
      "outputs": [
        {
          "internalType": "uint256",
          "name": "id",
          "type": "uint256"
        },
        {
          "internalType": "address",
          "name": "creator",
          "type": "address"
        },
        {
          "internalType": "string",
          "name": "title",
          "type": "string"
        },
        {
          "internalType": "string",
          "name": "description",
          "type": "string"
        },
        {
          "internalType": "enum TaskManager.TaskType",
          "name": "taskType",
          "type": "uint8"
        },
        {
          "internalType": "enum TaskManager.TaskStatus",
          "name": "status",
          "type": "uint8"
        },
        {
          "internalType": "uint256",
          "name": "reward",
          "type": "uint256"
        },
        {
          "internalType": "uint256",
          "name": "reviewReward",
          "type": "uint256"
        }
      ],
      "stateMutability": "view",
      "type": "function"
    },
    {
      "inputs": [
        {
          "internalType": "uint256",
          "name": "taskId",
          "type": "uint256"
        }
      ],
      "name": "getTaskContent",
      "outputs": [
        {
          "internalType": "string",
          "name": "accessConditionsCID",
          "type": "string"
        },
        {
          "internalType": "string",
          "name": "dataCID",
          "type": "string"
        },
        {
          "internalType": "string",
          "name": "instructionsCID",
          "type": "string"
        },
        {
          "internalType": "uint256",
          "name": "createdAt",
          "type": "uint256"
        },
        {
          "internalType": "uint256",
          "name": "completedAt",
          "type": "uint256"
        }
      ],
      "stateMutability": "view",
      "type": "function"
    },
    {
      "inputs": [],
      "name": "getTaskCount",
      "outputs": [
        {
          "internalType": "uint256",
          "name": "",
          "type": "uint256"
        }
      ],
      "stateMutability": "view",
      "type": "function"
    },
    {
      "inputs": [
        {
          "internalType": "uint256",
          "name": "taskId",
          "type": "uint256"
        }
      ],
      "name": "getTaskRequirements",
      "outputs": [
        {
          "internalType": "uint256",
          "name": "requiredSubmissions",
          "type": "uint256"
        },
        {
          "internalType": "uint256",
          "name": "requiredValidations",
          "type": "uint256"
        },
        {
          "internalType": "uint256",
          "name": "deadline",
          "type": "uint256"
        },
        {
          "internalType": "enum TaskManager.PrivacyLevel",
          "name": "privacyLevel",
          "type": "uint8"
        },
        {
          "internalType": "uint256",
          "name": "submissionCount",
          "type": "uint256"
        },
        {
          "internalType": "uint256",
          "name": "validatedSubmissionCount",
          "type": "uint256"
        }
      ],
      "stateMutability": "view",
      "type": "function"
    },
    {
      "inputs": [
        {
          "internalType": "uint256",
          "name": "taskId",
          "type": "uint256"
        }
      ],
      "name": "getTaskReviewers",
      "outputs": [
        {
          "internalType": "address[]",
          "name": "",
          "type": "address[]"
        }
      ],
      "stateMutability": "view",
      "type": "function"
    },
    {
      "inputs": [
        {
          "internalType": "uint256",
          "name": "taskId",
          "type": "uint256"
        }
      ],
      "name": "getTaskSubmissions",
      "outputs": [
        {
          "internalType": "uint256[]",
          "name": "",
          "type": "uint256[]"
        }
      ],
      "stateMutability": "view",
      "type": "function"
    },
    {
      "inputs": [
        {
          "internalType": "bytes32",
          "name": "role",
          "type": "bytes32"
        },
        {
          "internalType": "address",
          "name": "account",
          "type": "address"
        }
      ],
      "name": "grantRole",
      "outputs": [],
      "stateMutability": "nonpayable",
      "type": "function"
    },
    {
      "inputs": [
        {
          "internalType": "uint256",
          "name": "submissionId",
          "type": "uint256"
        },
        {
          "internalType": "address",
          "name": "validator",
          "type": "address"
        }
      ],
      "name": "hasApproved",
      "outputs": [
        {
          "internalType": "bool",
          "name": "",
          "type": "bool"
        }
      ],
      "stateMutability": "view",
      "type": "function"
    },
    {
      "inputs": [
        {
          "internalType": "uint256",
          "name": "submissionId",
          "type": "uint256"
        },
        {
          "internalType": "address",
          "name": "validator",
          "type": "address"
        }
      ],
      "name": "hasRejected",
      "outputs": [
        {
          "internalType": "bool",
          "name": "",
          "type": "bool"
        }
      ],
      "stateMutability": "view",
      "type": "function"
    },
    {
      "inputs": [
        {
          "internalType": "uint256",
          "name": "",
          "type": "uint256"
        },
        {
          "internalType": "address",
          "name": "",
          "type": "address"
        }
      ],
      "name": "hasReviewed",
      "outputs": [
        {
          "internalType": "bool",
          "name": "",
          "type": "bool"
        }
      ],
      "stateMutability": "view",
      "type": "function"
    },
    {
      "inputs": [
        {
          "internalType": "bytes32",
          "name": "role",
          "type": "bytes32"
        },
        {
          "internalType": "address",
          "name": "account",
          "type": "address"
        }
      ],
      "name": "hasRole",
      "outputs": [
        {
          "internalType": "bool",
          "name": "",
          "type": "bool"
        }
      ],
      "stateMutability": "view",
      "type": "function"
    },
    {
      "inputs": [
        {
          "internalType": "uint256",
          "name": "",
          "type": "uint256"
        },
        {
          "internalType": "address",
          "name": "",
          "type": "address"
        }
      ],
      "name": "hasSubmitted",
      "outputs": [
        {
          "internalType": "bool",
          "name": "",
          "type": "bool"
        }
      ],
      "stateMutability": "view",
      "type": "function"
    },
    {
      "inputs": [
        {
          "internalType": "uint256",
          "name": "submissionId",
          "type": "uint256"
        },
        {
          "internalType": "address",
          "name": "validator",
          "type": "address"
        }
      ],
      "name": "hasValidated",
      "outputs": [
        {
          "internalType": "bool",
          "name": "",
          "type": "bool"
        }
      ],
      "stateMutability": "view",
      "type": "function"
    },
    {
      "inputs": [
        {
          "internalType": "bytes32",
          "name": "role",
          "type": "bytes32"
        },
        {
          "internalType": "address",
          "name": "account",
          "type": "address"
        }
      ],
      "name": "renounceRole",
      "outputs": [],
      "stateMutability": "nonpayable",
      "type": "function"
    },
    {
      "inputs": [
        {
          "internalType": "bytes32",
          "name": "role",
          "type": "bytes32"
        },
        {
          "internalType": "address",
          "name": "account",
          "type": "address"
        }
      ],
      "name": "revokeRole",
      "outputs": [],
      "stateMutability": "nonpayable",
      "type": "function"
    },
    {
      "inputs": [
        {
          "internalType": "address",
          "name": "daoContract",
          "type": "address"
        }
      ],
      "name": "setDAOContract",
      "outputs": [],
      "stateMutability": "nonpayable",
      "type": "function"
    },
    {
      "inputs": [
        {
          "internalType": "uint256",
          "name": "",
          "type": "uint256"
        }
      ],
      "name": "submissions",
      "outputs": [
        {
          "internalType": "uint256",
          "name": "id",
          "type": "uint256"
        },
        {
          "internalType": "uint256",
          "name": "taskId",
          "type": "uint256"
        },
        {
          "internalType": "address",
          "name": "submitter",
          "type": "address"
        },
        {
          "internalType": "string",
          "name": "dataCID",
          "type": "string"
        },
        {
          "internalType": "bool",
          "name": "isEncrypted",
          "type": "bool"
        },
        {
          "internalType": "uint256",
          "name": "validationCount",
          "type": "uint256"
        },
        {
          "internalType": "bool",
          "name": "isApproved",
          "type": "bool"
        },
        {
          "internalType": "uint256",
          "name": "createdAt",
          "type": "uint256"
        }
      ],
      "stateMutability": "view",
      "type": "function"
    },
    {
      "inputs": [
        {
          "internalType": "uint256",
          "name": "taskId",
          "type": "uint256"
        },
        {
          "internalType": "string",
          "name": "dataCID",
          "type": "string"
        },
        {
          "internalType": "bool",
          "name": "isEncrypted",
          "type": "bool"
        }
      ],
      "name": "submitToTask",
      "outputs": [
        {
          "internalType": "uint256",
          "name": "",
          "type": "uint256"
        }
      ],
      "stateMutability": "nonpayable",
      "type": "function"
    },
    {
      "inputs": [
        {
          "internalType": "bytes4",
          "name": "interfaceId",
          "type": "bytes4"
        }
      ],
      "name": "supportsInterface",
      "outputs": [
        {
          "internalType": "bool",
          "name": "",
          "type": "bool"
        }
      ],
      "stateMutability": "view",
      "type": "function"
    },
    {
      "inputs": [
        {
          "internalType": "uint256",
          "name": "",
          "type": "uint256"
        },
        {
          "internalType": "uint256",
          "name": "",
          "type": "uint256"
        }
      ],
      "name": "taskSubmissions",
      "outputs": [
        {
          "internalType": "uint256",
          "name": "",
          "type": "uint256"
        }
      ],
      "stateMutability": "view",
      "type": "function"
    },
    {
      "inputs": [
        {
          "internalType": "uint256",
          "name": "",
          "type": "uint256"
        }
      ],
      "name": "tasks",
      "outputs": [
        {
          "internalType": "uint256",
          "name": "id",
          "type": "uint256"
        },
        {
          "internalType": "address",
          "name": "creator",
          "type": "address"
        },
        {
          "internalType": "string",
          "name": "title",
          "type": "string"
        },
        {
          "internalType": "string",
          "name": "description",
          "type": "string"
        },
        {
          "internalType": "enum TaskManager.TaskType",
          "name": "taskType",
          "type": "uint8"
        },
        {
          "internalType": "enum TaskManager.TaskStatus",
          "name": "status",
          "type": "uint8"
        },
        {
          "internalType": "uint256",
          "name": "reward",
          "type": "uint256"
        },
        {
          "internalType": "uint256",
          "name": "reviewReward",
          "type": "uint256"
        },
        {
          "internalType": "uint256",
          "name": "requiredSubmissions",
          "type": "uint256"
        },
        {
          "internalType": "uint256",
          "name": "requiredValidations",
          "type": "uint256"
        },
        {
          "internalType": "uint256",
          "name": "deadline",
          "type": "uint256"
        },
        {
          "internalType": "enum TaskManager.PrivacyLevel",
          "name": "privacyLevel",
          "type": "uint8"
        },
        {
          "internalType": "string",
          "name": "accessConditionsCID",
          "type": "string"
        },
        {
          "internalType": "string",
          "name": "dataCID",
          "type": "string"
        },
        {
          "internalType": "string",
          "name": "instructionsCID",
          "type": "string"
        },
        {
          "internalType": "uint256",
          "name": "createdAt",
          "type": "uint256"
        },
        {
          "internalType": "uint256",
          "name": "completedAt",
          "type": "uint256"
        },
        {
          "internalType": "uint256",
          "name": "submissionCount",
          "type": "uint256"
        },
        {
          "internalType": "uint256",
          "name": "validatedSubmissionCount",
          "type": "uint256"
        }
      ],
      "stateMutability": "view",
      "type": "function"
    },
    {
      "inputs": [
        {
          "internalType": "uint256",
          "name": "taskId",
          "type": "uint256"
        },
        {
          "internalType": "enum TaskManager.TaskStatus",
          "name": "status",
          "type": "uint8"
        }
      ],
      "name": "updateTaskStatus",
      "outputs": [],
      "stateMutability": "nonpayable",
      "type": "function"
    },
    {
      "inputs": [
        {
          "internalType": "uint256",
          "name": "submissionId",
          "type": "uint256"
        },
        {
          "internalType": "bool",
          "name": "approved",
          "type": "bool"
        }
      ],
      "name": "validateSubmission",
      "outputs": [],
      "stateMutability": "nonpayable",
      "type": "function"
    }
  ],
  "bytecode": "0x6080346200019b57601f620033d938819003918201601f1916830192916001600160401b03841183851017620001a057808392604095865283396020928391810103126200019b57516001600160a01b038116908190036200019b576001805580156200015857600280546001600160a01b031916919091179055600080805280825282812033825282528281205460ff161562000120575b7fa49807205ce4d355092ef5a8a18f56e8913cf4a201fbe287825b095693c2177591828252818152838220338352815260ff848320541615620000e5575b83516132029081620001b78239f35b8282528181528382209033835252828120600160ff198254161790553391600080516020620033b9833981519152339280a4388080620000d6565b8080528082528281203382528252828120600160ff19825416179055333382600080516020620033b98339815191528180a462000098565b50606491519062461bcd60e51b82526004820152601960248201527f5461736b4d616e616765723a207a65726f2061646472657373000000000000006044820152fd5b600080fd5b634e487b7160e01b600052604160045260246000fdfe61012080604052600436101561001457600080fd5b60003560e01c90816301ffc9a7146129f8575080630d9dde67146129a857806313868d5d14611d3657806320fb562914611ce65780632229e1d814611c755780632358d5a814611c25578063248a9ca314611bf65780632835e03714611b505780632f2ff15d14611a9d57806336568abe14611a0b5780633e8686cc1461199d578063409e978c146118e1578063425d512a146116075780634914b030146115de57806353eea875146115975780635c63bf99146114dc5780636d1b1de0146112b057806375b238fc146112875780637c7198cc1461123a5780638d9776721461106757806391d148541461101a5780639999d2ae14610ffc578063a217fddf14610fe0578063a57d380614610f93578063ab9b681114610e1b578063ad73349e14610da9578063bc8febbe146108c6578063c17a340e146108a8578063cd8e01d11461080f578063cf14522b14610201578063d547741f146101c05763e9c265181461018057600080fd5b346101bb5760003660031901126101bb5760206040517f3b5d4cc60d3ec3516ee8ae083bd60934f6eb2a6c54b1229985c41bfb092b26038152f35b600080fd5b346101bb5760403660031901126101bb576101ff6004356101df612a4b565b908060005260006020526101fa600160406000200154612cb1565b612e64565b005b346101bb5760403660031901126101bb576024351515602435036101bb576102276130af565b6004356000908152600660205260409020600181015460028201546001600160a01b031680156107bb57331461076257336000526008820160205260ff604060002054166107065780600052600560205260406000209161029b60ff600485015460081c1661029581612baf565b15613151565b601083015460009080156106fd5760005b8181106106be575b50505b156106695733600052600881016020526040600020600160ff19825416179055600581016102e5815461319d565b8155602435156106495733600052600982016020526040600020600160ff198254161790555b6040516024351515815233907fa214554ad5f6eb0a2214ad083a2097f67ededabb81763581d74489fda16e49c5602060043592a354600884015480911015610444575b5050600254600692909201805460405163a9059cbb60e01b815233600482015260248101919091529092909150602090829060449082906000906001600160a01b03165af18015610438576103ab91600091610409575b50613022565b5460405190815260406020820152601460408201527314dd589b5a5cdcda5bdb881d985b1a59185d195960621b60608201527fc7207087d1b9602815027342116944238a53ba3db91a70042ead521a6fcff5c860803392a260018055005b61042b915060203d602011610431575b6104238183612a97565b81019061300a565b836103a5565b503d610419565b6040513d6000823e3d90fd5b60009060006010860154905b8181106105f257505060011c10610468575b8061034e565b60068101600160ff198254161790556012830190610486825461319d565b8255600280549082015460058601805460405163a9059cbb60e01b81526001600160a01b039384166004820152602481019190915290939092909160209184916044918391600091165af19081156104385761050d6080927fc7207087d1b9602815027342116944238a53ba3db91a70042ead521a6fcff5c8946000916105d35750613022565b600260018060a01b0391015416925460405190815260406020820152601360408201527214dd589b5a5cdcda5bdb88185c1c1c9bdd9959606a1b6060820152a2816004357f4123156c41f76b6460961817f8cfe6668449562d3349c4df03cd8aaec8d69699600080a35460078301541115610589575b80610462565b61020061ff001960048401541617600483015542600f8301557f2da408880f35ba4c128d53d978436383214730e9e4f141928a16650273b3c32a602060405160028152a281610583565b6105ec915060203d602011610431576104238183612a97565b896103a5565b6105ff8160108901612bb9565b60018060a01b0391549060031b1c166000526009850160205260ff60406000205416610634575b61062f9061319d565b610450565b9261064161062f9161319d565b939050610626565b33600052600a82016020526040600020600160ff1982541617905561030b565b60405162461bcd60e51b815260206004820152602760248201527f5461736b4d616e616765723a206e6f7420617574686f72697a656420746f2076604482015266616c696461746560c81b6064820152608490fd5b6106cb8160108801612bb9565b905460039190911b1c6001600160a01b031633146106f1576106ec9061319d565b6102ac565b505050600184806102b4565b505060016102b7565b60405162461bcd60e51b815260206004820152602e60248201527f5461736b4d616e616765723a20616c72656164792076616c696461746564207460448201526d3434b99039bab136b4b9b9b4b7b760911b6064820152608490fd5b60405162461bcd60e51b815260206004820152602b60248201527f5461736b4d616e616765723a2063616e6e6f742076616c6964617465206f776e60448201526a1039bab136b4b9b9b4b7b760a91b6064820152608490fd5b60405162461bcd60e51b815260206004820152602660248201527f5461736b4d616e616765723a207375626d697373696f6e20646f6573206e6f7460448201526508195e1a5cdd60d21b6064820152608490fd5b346101bb5760203660031901126101bb57600435600052600560205261087d6040600020600e810154600f82015461089961084c600b8501612c0b565b9361088b610868600d610861600c8501612c0b565b9301612c0b565b9160405197889760a0895260a0890190612b3e565b908782036020890152612b3e565b908582036040870152612b3e565b91606084015260808301520390f35b346101bb5760003660031901126101bb576020600354604051908152f35b346101bb5760603660031901126101bb576001600160401b03602460043581358381116101bb576108fb903690600401612ab8565b6044918235918215158093036101bb576109136130af565b81600052600560209681885261093a60ff60046040600020015460081c1661029581612baf565b8360005281885260019560018060a01b038760406000200154163314610d4a578460005260088952604060002033600052895260ff60406000205416610cf457846000528289526009604060002001544211610ca457846000528289526040600020600760118201549101541115610c5157835115610c015750600454968688016004558760005260068952604060002091888355858884015560028301336bffffffffffffffffffffffff60a01b82541617905560038301908551908111610bec57610a078254612bd1565b8b601f8211610bb2575b5050808b601f8211600114610b4e57600091610b43575b50600019600383901b1c191690891b1790555b600482019160ff19928381541660ff89161790556000848201556006810183815416905560074291015584600052600789526040600020805491600160401b831015610b2f575091610ab6828a96948a7f441537efbe736f874b2c4742741d17a6fba33728e0d425bfd89d138cf3c1937c9795018155612bb9565b81549060031b9087821b91600019901b19161790558560005260088a526040600020336000528a52876040600020918254161790558460005288526011604060002001610b03815461319d565b9055610b1a60405191604083526040830190612b3e565b94888201528033950390a48055604051908152f35b634e487b7160e01b60009081526041600452fd5b90508601518c610a28565b60008481528d81208c94509190601f198416908f5b8b838310610b9a575050508311610b81575b5050811b019055610a3b565b88015160001960f88460031b161c191690558c80610b75565b84015185558e96909401939283019290810190610b63565b610bdb91846000528160002090601f8501891c8201928510610be2575b601f01881c0190613079565b8b8b610a11565b9091508190610bcf565b82634e487b7160e01b60005260416004526000fd5b887f5461736b4d616e616765723a2064617461204349442063616e6e6f742062652060849260258b6040519462461bcd60e51b8652600486015284015282015264656d70747960d81b6064820152fd5b887f5461736b4d616e616765723a206d6178696d756d207375626d697373696f6e7360849260288b6040519462461bcd60e51b8652600486015284015282015267081c995858da195960c21b6064820152fd5b887f5461736b4d616e616765723a207461736b20646561646c696e6520686173207060849260258b6040519462461bcd60e51b8652600486015284015282015264185cdcd95960da1b6064820152fd5b887f5461736b4d616e616765723a20616c7265616479207375626d69747465642074608492602b8b6040519462461bcd60e51b865260048601528401528201526a6f2074686973207461736b60a81b6064820152fd5b887f5461736b4d616e616765723a2063726561746f722063616e6e6f74207375626d60849260348b6040519462461bcd60e51b8652600486015284015282015273697420746f207468656972206f776e207461736b60601b6064820152fd5b346101bb5760203660031901126101bb57600435600052600660205260406000208054610e1760018301549260018060a01b0360028201541690610def60038201612c0b565b60ff600483015416600583015491600760ff6006860154169401549460405198899889612b63565b0390f35b346101bb5760403660031901126101bb5760043560243560048110156101bb57816000526020906005825260018060a01b036001604060002001541633148015610f66575b610e6990613105565b82600052600582528060ff60046040600020015460081c16610e8a82612baf565b610e9381612baf565b14610f0f57907f2da408880f35ba4c128d53d978436383214730e9e4f141928a16650273b3c32a918360005260058252610ed4816004604060002001613090565b610edd81612baf565b60028114610ef8575b60405190610ef381612baf565b8152a2005b836000526005825242600f60406000200155610ee6565b60405162461bcd60e51b815260048101839052602960248201527f5461736b4d616e616765723a207461736b20616c72656164792068617320746860448201526869732073746174757360b81b6064820152608490fd5b506000805160206131ad83398151915260009081528083526040808220338352845290205460ff16610e60565b346101bb5760403660031901126101bb57610fac612a4b565b600435600052600860205260406000209060018060a01b0316600052602052602060ff604060002054166040519015158152f35b346101bb5760003660031901126101bb57602060405160008152f35b346101bb5760003660031901126101bb576020600454604051908152f35b346101bb5760403660031901126101bb57611033612a4b565b600435600052600060205260406000209060018060a01b0316600052602052602060ff604060002054166040519015158152f35b346101bb5760203660031901126101bb576004356000908152600560205260409020805460a05260018101546001600160a01b0316906110a960028201612c0b565b60c0526110b860038201612c0b565b600482015460058301549060068401549060078501546008860154600987015490600a88015460ff1692600b89016110ef90612c0b565b956110fc600c8b01612c0b565b97611109600d8c01612c0b565b99600e8c0154608052600f8c01549c60118d01549c60120154610100526040518060e05260a051905260e051602001526102608060e0516040015260e0510160c0519061115591612b3e565b60e051808203906060015261116991612b3e565b9660ff811661117781612baf565b60e0516080015260081c60ff1661118d81612baf565b60e05160a0015260e05160c0015260e05160e0015260e051610100015260e051610120015260e051610140015260e051610160016111ca91612b0e565b60e0518082039061018001526111df91612b3e565b60e051808203906101a001526111f491612b3e565b60e051808203906101c0015261120991612b3e565b9160805160e0516101e0015260e051610200015260e05161022001526101005160e051610240015260e05180910390f35b346101bb5760403660031901126101bb57611253612a4b565b600435600052600960205260406000209060018060a01b0316600052602052602060ff604060002054166040519015158152f35b346101bb5760003660031901126101bb5760206040516000805160206131ad8339815191528152f35b346101bb5760403660031901126101bb576004356112cc612a4b565b90806000526005602081815260018060a01b039160019183836040600020015416331480156114af575b6112ff90613105565b8460005281815261132160ff60046040600020015460081c1661029581612baf565b8460005281815283808460406000200154169616958614611459576000835b6113bf575b5084600052526010604060002001805490600160401b8210156113a95761136f9282018155612bb9565b819291549060031b9185831b921b19161790557f8fcd9f5c27415bf85b1f568fbe33a98aaebd94a2f721378109a4a48142f1e3fb600080a3005b634e487b7160e01b600052604160045260246000fd5b8560005282825286856010604060002001805484101561145157836113e391612bb9565b90549060031b1c1614611400576113fa849161319d565b90611340565b60405162461bcd60e51b815260048101839052602360248201527f5461736b4d616e616765723a20726576696577657220616c726561647920616460448201526219195960ea1b6064820152608490fd5b505050611345565b6084906040519062461bcd60e51b82526004820152602960248201527f5461736b4d616e616765723a2063726561746f722063616e6e6f742062652061604482015268103932bb34b2bbb2b960b91b6064820152fd5b506000805160206131ad83398151915260009081528082526040808220338352835290205460ff166112f6565b346101bb576020806003193601126101bb5760043560005260058152601060406000200160405190818382549182815201908192600052846000209060005b8682821061157a57868661153182880383612a97565b604051928392818401908285525180915260408401929160005b82811061155a57505050500390f35b83516001600160a01b03168552869550938101939281019260010161154b565b83546001600160a01b03168552909301926001928301920161151b565b346101bb5760403660031901126101bb576024356004356000526007602052604060002080548210156101bb576020916115d091612bb9565b90546040519160031b1c8152f35b346101bb5760003660031901126101bb576002546040516001600160a01b039091168152602090f35b346101bb576020806003193601126101bb576004356001600160a01b038116908190036101bb576000805160206131ad8339815191528060005260008352604060002033600052835260ff604060002054161561173b575080156116f6577f3b5d4cc60d3ec3516ee8ae083bd60934f6eb2a6c54b1229985c41bfb092b2603918260005260008152604060002082600052815260ff60406000205416156116aa57005b826000526000815260406000209082600052526040600020600160ff1982541617905533917f2f8788117e7eff1d82e926ec794901d17c78024a50270940304540a733656f0d600080a4005b60405162461bcd60e51b815260048101839052601960248201527f5461736b4d616e616765723a207a65726f2061646472657373000000000000006044820152606490fd5b8261174533612efc565b9160405161175281612a7c565b604281528281019160603684378151156118cb576030835381516001908110156118cb57607860218401536041905b80821161187157505061182e576117fa936118099260489260405196879376020b1b1b2b9b9a1b7b73a3937b61d1030b1b1b7bab73a1604d1b888601526117d1815180928a603789019101612b1b565b8401917001034b99036b4b9b9b4b733903937b6329607d1b603784015251809386840190612b1b565b01036028810185520183612a97565b61182a60405192839262461bcd60e51b845260048401526024830190612b3e565b0390fd5b6064836040519062461bcd60e51b825280600483015260248201527f537472696e67733a20686578206c656e67746820696e73756666696369656e746044820152fd5b9091600f811660108110156118cb576f181899199a1a9b1b9c1cb0b131b232b360811b901a6118a08486612eeb565b5360041c9180156118b5576000190190611781565b634e487b7160e01b600052601160045260246000fd5b634e487b7160e01b600052603260045260246000fd5b346101bb5760203660031901126101bb5760043560005260056020526040600020805460018060a01b036001830154169160048101549060ff8083169260081c16600582015490611972600684015493611964611945600361086160028501612c0b565b91604051998a998a5260208a01526101008060408b0152890190612b3e565b908782036060890152612b3e565b9361197c81612baf565b608086015261198a81612baf565b60a085015260c084015260e08301520390f35b346101bb5760203660031901126101bb57600435600052600660205260406000208054610e1760018301549260018060a01b0360028201541660ff60048301541660058301549060ff600685015416926119fe600360078701549601612c0b565b9060405198899889612b63565b346101bb5760403660031901126101bb57611a24612a4b565b336001600160a01b03821603611a40576101ff90600435612e64565b60405162461bcd60e51b815260206004820152602f60248201527f416363657373436f6e74726f6c3a2063616e206f6e6c792072656e6f756e636560448201526e103937b632b9903337b91039b2b63360891b6064820152608490fd5b346101bb5760403660031901126101bb57600435611ab9612a4b565b816000526000602052611ad3600160406000200154612cb1565b81600052600060205260406000209060018060a01b0316908160005260205260ff6040600020541615611b0257005b8160005260006020526040600020816000526020526040600020600160ff1982541617905533917f2f8788117e7eff1d82e926ec794901d17c78024a50270940304540a733656f0d600080a4005b346101bb576020806003193601126101bb5760043560005260078152604060002060405190818382549182815201908192600052846000209060005b86828210611be2578686611ba282880383612a97565b604051928392818401908285525180915260408401929160005b828110611bcb57505050500390f35b835185528695509381019392810192600101611bbc565b835485529093019260019283019201611b8c565b346101bb5760203660031901126101bb5760043560005260006020526020600160406000200154604051908152f35b346101bb5760403660031901126101bb57611c3e612a4b565b600435600052600660205260096040600020019060018060a01b0316600052602052602060ff604060002054166040519015158152f35b346101bb5760203660031901126101bb57600435600052600560205260c06040600020600781015490600881015490611cda600982015460ff600a84015416906012601185015494015494604051968752602087015260408601526060850190612b0e565b608083015260a0820152f35b346101bb5760403660031901126101bb57611cff612a4b565b6004356000526006602052600a6040600020019060018060a01b0316600052602052602060ff604060002054166040519015158152f35b346101bb576101603660031901126101bb576004356001600160401b0381116101bb57611d67903690600401612ab8565b6024356001600160401b0381116101bb57611d86903690600401612ab8565b90600460443510156101bb5760036101043510156101bb57610124356001600160401b0381116101bb57611dbe903690600401612ab8565b90610144356001600160401b0381116101bb57611ddf903690600401612ab8565b91611de86130af565b8151156129585783511561290257606435156128aa5760a435156128445760c435156127de574260e4351115612785576101043561271f575b611e2f60a435606435612ed8565b611e4860c435611e4360a435608435612ed8565b612ed8565b81018091116118b5576002546040516323b872dd60e01b81523360048201523060248201526044810192909252602090829060649082906000906001600160a01b03165af1801561043857611ea4916000916127005750613022565b600354926001840160035560405191611ebc83612a61565b6000835260405195866102808101106001600160401b03610280890111176113a95761028087016040528587523360208801528460408801526060870152611f05604435612baf565b6044356080870152600060a087015260643560c087015260843560e087015260a43561010087015260c43561012087015260e43561014087015261010435610160870152610180860152604051611f5b81612a61565b600081526101a08601526101c0850152426101e08501526000610200850152610220840152600061024084015260006102608401528160005260056020526040600020835181556001810160018060a01b036020860151166bffffffffffffffffffffffff60a01b82541617905560408401518051906001600160401b0382116113a9578190611fee6002850154612bd1565b601f81116126cb575b50602090601f83116001146126595760009261264e575b50508160011b916000199060031b1c19161760028201555b60608401518051906001600160401b0382116113a957819061204b6003850154612bd1565b601f8111612619575b50602090601f83116001146125a75760009261259c575b50508160011b916000199060031b1c19161760038201555b6120c160048201608086015161209881612baf565b6120a181612baf565b60ff8019835416911617815560a0860151906120bc82612baf565b613090565b60c0840151600582015560e08401516006820155610100840151600782015561012084015160088201556101408401516009820155610160840151600381101561258657600a82019060ff801983541691161790556101808401518051906001600160401b0382116113a957819061213c600b850154612bd1565b601f8111612551575b50602090601f83116001146124df576000926124d4575b50508160011b916000199060031b1c191617600b8201555b6101a08401518051906001600160401b0382116113a957819061219a600c850154612bd1565b601f811161249f575b50602090601f831160011461242d57600092612422575b50508160011b916000199060031b1c191617600c8201555b6101c08401518051906001600160401b0382116113a95781906121f8600d850154612bd1565b601f81116123e2575b50602090601f831160011461237057600092612365575b50508160011b916000199060031b1c191617600d8201555b6101e0840151600e820155610200840151600f820155610220840151938451946001600160401b0386116113a957600160401b86116113a9576020906010840154876010860155808810612345575b5001946010830160005260206000209560005b82811061232857602087878760126102608961024081015160118501550151910155817f309036ffe8c405c2d3a28287a25b2c3e5e1e79494e7d114b9e9ee868553b66e96122eb6040519360a0855260a0850190612b3e565b926122f7604435612baf565b604435868201526064356040820152608435606082015260e43560808201528033940390a360018055604051908152f35b81516001600160a01b031681890155602090910190600101612292565b61235f906010860160005288846000209182019101613079565b8761227f565b015190508680612218565b9250600d84016000526020600020906000935b601f19841685106123c7576001945083601f198116106123ae575b505050811b01600d820155612230565b015160001960f88460031b161c1916905586808061239e565b81810151835560209485019460019093019290910190612383565b61241290600d86016000526020600020601f850160051c81019160208610612418575b601f0160051c0190613079565b87612201565b9091508190612405565b0151905086806121ba565b9250600c84016000526020600020906000935b601f1984168510612484576001945083601f1981161061246b575b505050811b01600c8201556121d2565b015160001960f88460031b161c1916905586808061245b565b81810151835560209485019460019093019290910190612440565b6124ce90600c86016000526020600020601f850160051c8101916020861061241857601f0160051c0190613079565b876121a3565b01519050868061215c565b9250600b84016000526020600020906000935b601f1984168510612536576001945083601f1981161061251d575b505050811b01600b820155612174565b015160001960f88460031b161c1916905586808061250d565b818101518355602094850194600190930192909101906124f2565b61258090600b86016000526020600020601f850160051c8101916020861061241857601f0160051c0190613079565b87612145565b634e487b7160e01b600052602160045260246000fd5b01519050868061206b565b9250600384016000526020600020906000935b601f19841685106125fe576001945083601f198116106125e5575b505050811b016003820155612083565b015160001960f88460031b161c191690558680806125d5565b818101518355602094850194600190930192909101906125ba565b61264890600386016000526020600020601f850160051c8101916020861061241857601f0160051c0190613079565b87612054565b01519050868061200e565b9250600284016000526020600020906000935b601f19841685106126b0576001945083601f19811610612697575b505050811b016002820155612026565b015160001960f88460031b161c19169055868080612687565b8181015183556020948501946001909301929091019061266c565b6126fa90600286016000526020600020601f850160051c8101916020861061241857601f0160051c0190613079565b87611ff7565b612719915060203d602011610431576104238183612a97565b866103a5565b8051611e215760405162461bcd60e51b815260206004820152603260248201527f5461736b4d616e616765723a2061636365737320636f6e646974696f6e73204360448201527149442063616e6e6f7420626520656d70747960701b6064820152608490fd5b60405162461bcd60e51b815260206004820152602b60248201527f5461736b4d616e616765723a20646561646c696e65206d75737420626520696e60448201526a207468652066757475726560a81b6064820152608490fd5b60405162461bcd60e51b815260206004820152603860248201527f5461736b4d616e616765723a2072657175697265642076616c69646174696f6e604482015277073206d7573742062652067726561746572207468616e20360441b6064820152608490fd5b60405162461bcd60e51b815260206004820152603860248201527f5461736b4d616e616765723a207265717569726564207375626d697373696f6e604482015277073206d7573742062652067726561746572207468616e20360441b6064820152608490fd5b60405162461bcd60e51b815260206004820152602a60248201527f5461736b4d616e616765723a20726577617264206d75737420626520677265616044820152690746572207468616e20360b41b6064820152608490fd5b60405162461bcd60e51b815260206004820152602860248201527f5461736b4d616e616765723a206465736372697074696f6e2063616e6e6f7420604482015267626520656d70747960c01b6064820152608490fd5b60405162461bcd60e51b815260206004820152602260248201527f5461736b4d616e616765723a207469746c652063616e6e6f7420626520656d70604482015261747960f01b6064820152608490fd5b346101bb5760403660031901126101bb576129c1612a4b565b600435600052600660205260086040600020019060018060a01b0316600052602052602060ff604060002054166040519015158152f35b346101bb5760203660031901126101bb576004359063ffffffff60e01b82168092036101bb57602091637965db0b60e01b8114908115612a3a575b5015158152f35b6301ffc9a760e01b14905083612a33565b602435906001600160a01b03821682036101bb57565b602081019081106001600160401b038211176113a957604052565b608081019081106001600160401b038211176113a957604052565b90601f801991011681019081106001600160401b038211176113a957604052565b81601f820112156101bb578035906001600160401b0382116113a95760405192612aec601f8401601f191660200185612a97565b828452602083830101116101bb57816000926020809301838601378301015290565b9060038210156125865752565b60005b838110612b2e5750506000910152565b8181015183820152602001612b1e565b90602091612b5781518092818552858086019101612b1b565b601f01601f1916010190565b94989796939092612b979260e097948752602087015260018060a01b03166040860152610100806060870152850190612b3e565b961515608084015260a0830152151560c08201520152565b6004111561258657565b80548210156118cb5760005260206000200190600090565b90600182811c92168015612c01575b6020831014612beb57565b634e487b7160e01b600052602260045260246000fd5b91607f1691612be0565b9060405191826000825492612c1f84612bd1565b908184526001948581169081600014612c8e5750600114612c4b575b5050612c4992500383612a97565b565b9093915060005260209081600020936000915b818310612c76575050612c4993508201013880612c3b565b85548884018501529485019487945091830191612c5e565b915050612c4994506020925060ff191682840152151560051b8201013880612c3b565b600090808252602090828252604092838120338252835260ff848220541615612cda5750505050565b612ce333612efc565b91845190612cf082612a7c565b60428252848201926060368537825115612e505760308453825190600191821015612e505790607860218501536041915b818311612de257505050612da057604861182a938693612d8493612d75985198899376020b1b1b2b9b9a1b7b73a3937b61d1030b1b1b7bab73a1604d1b8a8601526117d1815180928c603789019101612b1b565b01036028810187520185612a97565b5192839262461bcd60e51b845260048401526024830190612b3e565b60648486519062461bcd60e51b825280600483015260248201527f537472696e67733a20686578206c656e67746820696e73756666696369656e746044820152fd5b909192600f81166010811015612e3c576f181899199a1a9b1b9c1cb0b131b232b360811b901a612e128587612eeb565b5360041c928015612e2857600019019190612d21565b634e487b7160e01b82526011600452602482fd5b634e487b7160e01b83526032600452602483fd5b634e487b7160e01b81526032600452602490fd5b9060009180835282602052604083209160018060a01b03169182845260205260ff604084205416612e9457505050565b80835282602052604083208284526020526040832060ff1981541690557ff6391f5c32d9c69d2a47ea670b442974b53935d1edc7fd64eb21e047a839171b339380a4565b818102929181159184041417156118b557565b9081518110156118cb570160200190565b60405190606082018281106001600160401b038211176113a957604052602a82526020820160403682378251156118cb576030905381516001908110156118cb57607860218401536029905b808211612f9c575050612f585790565b606460405162461bcd60e51b815260206004820152602060248201527f537472696e67733a20686578206c656e67746820696e73756666696369656e746044820152fd5b9091600f81166010811015612ff5576f181899199a1a9b1b9c1cb0b131b232b360811b901a612fcb8486612eeb565b5360041c918015612fe0576000190190612f48565b60246000634e487b7160e01b81526011600452fd5b60246000634e487b7160e01b81526032600452fd5b908160209103126101bb575180151581036101bb5790565b1561302957565b60405162461bcd60e51b815260206004820152602260248201527f5461736b4d616e616765723a20746f6b656e207472616e73666572206661696c604482015261195960f21b6064820152608490fd5b818110613084575050565b60008155600101613079565b9061309a81612baf565b61ff0082549160081b169061ff001916179055565b6002600154146130c0576002600155565b60405162461bcd60e51b815260206004820152601f60248201527f5265656e7472616e637947756172643a207265656e7472616e742063616c6c006044820152606490fd5b1561310c57565b60405162461bcd60e51b815260206004820152601b60248201527f5461736b4d616e616765723a206e6f7420617574686f72697a656400000000006044820152606490fd5b1561315857565b60405162461bcd60e51b815260206004820152601d60248201527f5461736b4d616e616765723a207461736b206973206e6f74206f70656e0000006044820152606490fd5b60001981146118b5576001019056fea49807205ce4d355092ef5a8a18f56e8913cf4a201fbe287825b095693c21775a264697066735822122025ce3f329b6033000d6eca79d9ae8efca9f68319fccde0c4797381712812354f64736f6c634300081200332f8788117e7eff1d82e926ec794901d17c78024a50270940304540a733656f0d",
  "linkReferences": {},
  "deployedLinkReferences": {}
}