{
  "_format": "hh-sol-artifact-1",
  "contractName": "UnifiedTaskManager",
  "sourceName": "contracts/UnifiedTaskManager.sol",
  "abi": [
    {
      "anonymous": false,
      "inputs": [
        {
          "indexed": true,
          "internalType": "address",
          "name": "previousOwner",
          "type": "address"
        },
        {
          "indexed": true,
          "internalType": "address",
          "name": "newOwner",
          "type": "address"
        }
      ],
      "name": "OwnershipTransferred",
      "type": "event"
    },
    {
      "anonymous": false,
      "inputs": [
        {
          "indexed": true,
          "internalType": "uint256",
          "name": "taskId",
          "type": "uint256"
        },
        {
          "indexed": true,
          "internalType": "address",
          "name": "reviewer",
          "type": "address"
        }
      ],
      "name": "ReviewRecorded",
      "type": "event"
    },
    {
      "anonymous": false,
      "inputs": [
        {
          "indexed": true,
          "internalType": "uint256",
          "name": "taskId",
          "type": "uint256"
        },
        {
          "indexed": true,
          "internalType": "address",
          "name": "reviewer",
          "type": "address"
        }
      ],
      "name": "ReviewerAdded",
      "type": "event"
    },
    {
      "anonymous": false,
      "inputs": [
        {
          "indexed": true,
          "internalType": "uint256",
          "name": "taskId",
          "type": "uint256"
        },
        {
          "indexed": true,
          "internalType": "address",
          "name": "submitter",
          "type": "address"
        }
      ],
      "name": "SubmissionRecorded",
      "type": "event"
    },
    {
      "anonymous": false,
      "inputs": [
        {
          "indexed": true,
          "internalType": "uint256",
          "name": "taskId",
          "type": "uint256"
        },
        {
          "indexed": true,
          "internalType": "address",
          "name": "creator",
          "type": "address"
        },
        {
          "indexed": false,
          "internalType": "string",
          "name": "title",
          "type": "string"
        },
        {
          "indexed": false,
          "internalType": "string",
          "name": "description",
          "type": "string"
        },
        {
          "indexed": false,
          "internalType": "enum UnifiedTaskManager.TaskType",
          "name": "taskType",
          "type": "uint8"
        },
        {
          "indexed": false,
          "internalType": "uint256",
          "name": "rewardAmount",
          "type": "uint256"
        },
        {
          "indexed": false,
          "internalType": "uint256",
          "name": "reviewReward",
          "type": "uint256"
        },
        {
          "indexed": false,
          "internalType": "uint256",
          "name": "numReviewers",
          "type": "uint256"
        }
      ],
      "name": "TaskCreated",
      "type": "event"
    },
    {
      "anonymous": false,
      "inputs": [
        {
          "indexed": true,
          "internalType": "uint256",
          "name": "taskId",
          "type": "uint256"
        },
        {
          "indexed": false,
          "internalType": "enum UnifiedTaskManager.TaskStatus",
          "name": "status",
          "type": "uint8"
        }
      ],
      "name": "TaskUpdated",
      "type": "event"
    },
    {
      "inputs": [
        {
          "internalType": "uint256",
          "name": "taskId",
          "type": "uint256"
        },
        {
          "internalType": "address",
          "name": "reviewer",
          "type": "address"
        }
      ],
      "name": "addReviewer",
      "outputs": [],
      "stateMutability": "nonpayable",
      "type": "function"
    },
    {
      "inputs": [
        {
          "internalType": "string",
          "name": "title",
          "type": "string"
        },
        {
          "internalType": "string",
          "name": "description",
          "type": "string"
        },
        {
          "internalType": "enum UnifiedTaskManager.TaskType",
          "name": "taskType",
          "type": "uint8"
        },
        {
          "internalType": "uint256",
          "name": "rewardAmount",
          "type": "uint256"
        },
        {
          "internalType": "uint256",
          "name": "reviewReward",
          "type": "uint256"
        },
        {
          "internalType": "uint256",
          "name": "numReviewers",
          "type": "uint256"
        }
      ],
      "name": "createTask",
      "outputs": [
        {
          "internalType": "uint256",
          "name": "",
          "type": "uint256"
        }
      ],
      "stateMutability": "nonpayable",
      "type": "function"
    },
    {
      "inputs": [
        {
          "internalType": "uint256",
          "name": "taskId",
          "type": "uint256"
        }
      ],
      "name": "getTask",
      "outputs": [
        {
          "internalType": "uint256",
          "name": "id",
          "type": "uint256"
        },
        {
          "internalType": "address",
          "name": "creator",
          "type": "address"
        },
        {
          "internalType": "string",
          "name": "title",
          "type": "string"
        },
        {
          "internalType": "string",
          "name": "description",
          "type": "string"
        },
        {
          "internalType": "enum UnifiedTaskManager.TaskType",
          "name": "taskType",
          "type": "uint8"
        },
        {
          "internalType": "uint256",
          "name": "rewardAmount",
          "type": "uint256"
        },
        {
          "internalType": "uint256",
          "name": "reviewReward",
          "type": "uint256"
        },
        {
          "internalType": "uint256",
          "name": "numReviewers",
          "type": "uint256"
        },
        {
          "internalType": "address[]",
          "name": "reviewers",
          "type": "address[]"
        },
        {
          "internalType": "enum UnifiedTaskManager.TaskStatus",
          "name": "status",
          "type": "uint8"
        },
        {
          "internalType": "uint256",
          "name": "createdAt",
          "type": "uint256"
        },
        {
          "internalType": "uint256",
          "name": "deadline",
          "type": "uint256"
        }
      ],
      "stateMutability": "view",
      "type": "function"
    },
    {
      "inputs": [],
      "name": "getTaskCount",
      "outputs": [
        {
          "internalType": "uint256",
          "name": "",
          "type": "uint256"
        }
      ],
      "stateMutability": "view",
      "type": "function"
    },
    {
      "inputs": [
        {
          "internalType": "uint256",
          "name": "taskId",
          "type": "uint256"
        },
        {
          "internalType": "address",
          "name": "reviewer",
          "type": "address"
        }
      ],
      "name": "hasReviewed",
      "outputs": [
        {
          "internalType": "bool",
          "name": "",
          "type": "bool"
        }
      ],
      "stateMutability": "view",
      "type": "function"
    },
    {
      "inputs": [
        {
          "internalType": "uint256",
          "name": "taskId",
          "type": "uint256"
        },
        {
          "internalType": "address",
          "name": "submitter",
          "type": "address"
        }
      ],
      "name": "hasSubmitted",
      "outputs": [
        {
          "internalType": "bool",
          "name": "",
          "type": "bool"
        }
      ],
      "stateMutability": "view",
      "type": "function"
    },
    {
      "inputs": [
        {
          "internalType": "uint256",
          "name": "taskId",
          "type": "uint256"
        },
        {
          "internalType": "address",
          "name": "reviewer",
          "type": "address"
        }
      ],
      "name": "isReviewer",
      "outputs": [
        {
          "internalType": "bool",
          "name": "",
          "type": "bool"
        }
      ],
      "stateMutability": "view",
      "type": "function"
    },
    {
      "inputs": [],
      "name": "owner",
      "outputs": [
        {
          "internalType": "address",
          "name": "",
          "type": "address"
        }
      ],
      "stateMutability": "view",
      "type": "function"
    },
    {
      "inputs": [
        {
          "internalType": "uint256",
          "name": "taskId",
          "type": "uint256"
        },
        {
          "internalType": "address",
          "name": "reviewer",
          "type": "address"
        }
      ],
      "name": "recordReview",
      "outputs": [],
      "stateMutability": "nonpayable",
      "type": "function"
    },
    {
      "inputs": [
        {
          "internalType": "uint256",
          "name": "taskId",
          "type": "uint256"
        },
        {
          "internalType": "address",
          "name": "submitter",
          "type": "address"
        }
      ],
      "name": "recordSubmission",
      "outputs": [],
      "stateMutability": "nonpayable",
      "type": "function"
    },
    {
      "inputs": [],
      "name": "renounceOwnership",
      "outputs": [],
      "stateMutability": "nonpayable",
      "type": "function"
    },
    {
      "inputs": [
        {
          "internalType": "address",
          "name": "newOwner",
          "type": "address"
        }
      ],
      "name": "transferOwnership",
      "outputs": [],
      "stateMutability": "nonpayable",
      "type": "function"
    },
    {
      "inputs": [
        {
          "internalType": "uint256",
          "name": "taskId",
          "type": "uint256"
        },
        {
          "internalType": "enum UnifiedTaskManager.TaskStatus",
          "name": "status",
          "type": "uint8"
        }
      ],
      "name": "updateTaskStatus",
      "outputs": [],
      "stateMutability": "nonpayable",
      "type": "function"
    }
  ],
  "bytecode": "0x6080806040523461005b5760008054336001600160a01b0319821681178355916001600160a01b03909116907f8be0079c531659141344cd1fd0a4f28419497f9722a3daafe3b4186f6b6457e09080a361123c90816100618239f35b600080fdfe6080604052600436101561001257600080fd5b60003560e01c80631d65e77e14610d7957806351ecbea114610c205780636c0cf97114610a245780636d1b1de0146107f5578063715018a61461079c5780637c7198cc1461074f5780638da5cb5b14610726578063a57d3806146106d9578063ab9b68111461058b578063b15d30cd1461055b578063c17a340e1461053d578063e32b52d41461017b5763f2fde38b146100ab57600080fd5b34610176576020366003190112610176576004356001600160a01b0381811691829003610176576100da610fed565b811561012257600054826bffffffffffffffffffffffff60a01b821617600055167f8be0079c531659141344cd1fd0a4f28419497f9722a3daafe3b4186f6b6457e0600080a3005b60405162461bcd60e51b815260206004820152602660248201527f4f776e61626c653a206e6577206f776e657220697320746865207a65726f206160448201526564647265737360d01b6064820152608490fd5b600080fd5b346101765760c03660031901126101765760043567ffffffffffffffff8111610176576101ac903690600401610f96565b60243567ffffffffffffffff8111610176576101cc903690600401610f96565b906004604435101561017657600154906001820160015581600052600260205260406000209282845560018401336bffffffffffffffffffffffff60a01b825416179055815167ffffffffffffffff811161046b5761022e6002860154611045565b90601f918281116104f7575b5080602083821160011461048c57600091610481575b508160011b916000199060031b1c19161760028601555b815167ffffffffffffffff811161046b578060038701926102888454611045565b81811161041b575b5060209082116001146103b7576000916103ac575b508160011b916000199060031b1c19161790555b600484016102c8604435610f3e565b60ff19908181541660ff60443516179055606435928360058701556084359182600688015560a435908160078901556009880190815416905542600a88015562093a804201928342116103965761036587957f68d8ae3b4a76b571b1ccc572c9daa7d550f36dd6ac2a1cd24cfcb94cf2acd30f95600b60209b01556103586040519560c0875260c0870190610efe565b908582038b870152610efe565b95610371604435610f3e565b60443560408501526060840152608083015260a08201528033940390a3604051908152f35b634e487b7160e01b600052601160045260246000fd5b9050830151876102a5565b6000848152602081209250601f198416905b818110610403575090836001949392106103ea575b5050811b0190556102b9565b85015160001960f88460031b161c1916905587806103de565b9192602060018192868a0151815501940192016103c9565b9091508360005260206000208280850160051c820160208610610464575b93859493929193920160051c01905b8181106104555750610290565b60008155849350600101610448565b5081610439565b634e487b7160e01b600052604160045260246000fd5b905084015187610250565b600288016000908152602081209250601f198416905b8181106104df575090836001949392106104c6575b5050811b016002860155610267565b86015160001960f88460031b161c1916905587806104b7565b9192602060018192868b0151815501940192016104a2565b6002870160005260206000208380840160051c820160208510610536575b920160051c01905b81811061052a575061023a565b6000815560010161051d565b5081610515565b34610176576000366003190112610176576020600154604051908152f35b34610176576040366003190112610176576020610581610579610f5e565b6004356111a1565b6040519015158152f35b3461017657604036600319011261017657600435602435600481101561017657600082815260026020526040902060018101546001600160a01b0316330361068057600901908154908060ff83166105e282610f3e565b6105eb81610f3e565b1461063b577f2da408880f35ba4c128d53d978436383214730e9e4f141928a16650273b3c32a9260209261061e83610f3e565b60ff191660ff83161790556040519061063681610f3e565b8152a2005b60405162461bcd60e51b815260206004820152601c60248201527f5461736b20616c726561647920686173207468697320737461747573000000006044820152606490fd5b60405162461bcd60e51b815260206004820152602b60248201527f4f6e6c7920746865207461736b2063726561746f722063616e2075706461746560448201526a207468652073746174757360a81b6064820152608490fd5b34610176576040366003190112610176576106f2610f5e565b600435600052600360205260406000209060018060a01b0316600052602052602060ff604060002054166040519015158152f35b34610176576000366003190112610176576000546040516001600160a01b039091168152602090f35b3461017657604036600319011261017657610768610f5e565b600435600052600460205260406000209060018060a01b0316600052602052602060ff604060002054166040519015158152f35b34610176576000366003190112610176576107b5610fed565b600080546001600160a01b0319811682556001600160a01b03167f8be0079c531659141344cd1fd0a4f28419497f9722a3daafe3b4186f6b6457e08280a3005b3461017657604036600319011261017657600435610811610f5e565b90806000526020916002835260406000209060018060a01b039182600182015416943386036109d05761085460ff60098401541661084e81610f3e565b1561107f565b60088201926007845493015483101561097f57841695861461093b5760005b8281106108d65750506801000000000000000081101561046b5761089c916001820181556110cd565b819291549060031b9185831b921b19161790557f8fcd9f5c27415bf85b1f568fbe33a98aaebd94a2f721378109a4a48142f1e3fb600080a3005b86856108e283876110cd565b90549060031b1c16146108fd576108f8906110be565b610873565b60405162461bcd60e51b815260048101839052601660248201527514995d9a595dd95c88185b1c9958591e48185919195960521b6044820152606490fd5b6064906040519062461bcd60e51b82526004820152601c60248201527f43726561746f722063616e6e6f742062652061207265766965776572000000006044820152fd5b60405162461bcd60e51b815260048101839052602360248201527f4d6178696d756d206e756d626572206f662072657669657765727320726561636044820152621a195960ea1b6064820152608490fd5b6084906040519062461bcd60e51b82526004820152602760248201527f4f6e6c7920746865207461736b2063726561746f722063616e206164642072656044820152667669657765727360c81b6064820152fd5b3461017657604036600319011261017657600435610a40610f5e565b9080600052602060028152604060002060ff600982015416610a6181610f3e565b8015908115610c0c575b5015610bc75760080180546001600160a01b0394851694600092869190845b848110610b8e575b505050505015610b4a578160005260048152604060002083600052815260ff60406000205416610b0657816000526004815260406000209083600052526040600020600160ff198254161790557fc6edc0321f65517c2916c19ec687c3d710ca3f73048fb51f1d66e3c9019c55e9600080a3005b6064906040519062461bcd60e51b82526004820152601a60248201527f416c72656164792072657669657765642074686973207461736b0000000000006044820152fd5b6064906040519062461bcd60e51b82526004820152601a60248201527f4e6f7420616e20617574686f72697a65642072657669657765720000000000006044820152fd5b8383610b9a83856110cd565b90549060031b1c1614610bb557610bb0906110be565b610a8a565b50505050505060018484818080610a92565b60405162461bcd60e51b815260048101839052601f60248201527f5461736b206973206e6f74206f70656e206f7220696e2070726f6772657373006044820152606490fd5b60019150610c1981610f3e565b1485610a6b565b3461017657604036600319011261017657600435610c3c610f5e565b908060005260206002815260016040600020610c6260ff60098301541661084e81610f3e565b818060a01b039182910154169316809314610d25578160005260038152604060002083600052815260ff60406000205416610ce157816000526003815260406000209083600052526040600020600160ff198254161790557fbeb48404435b7e8d2d6a0240a92ef694612e79bfb4582f7004f009f843fb9aa5600080a3005b6064906040519062461bcd60e51b82526004820152601e60248201527f416c7265616479207375626d697474656420746f2074686973207461736b00006044820152fd5b6084906040519062461bcd60e51b82526004820152602760248201527f43726561746f722063616e6e6f74207375626d697420746f207468656972206f604482015266776e207461736b60c81b6064820152fd5b346101765760203660031901126101765760043560005260026020526040600020805460018060a01b036001830154169160ff60048201541692600582015460068301546008600785015460ff60098701541692600a87015494600b88015496610de560028a016110fb565b610df160038b016110fb565b918a604051602081998a9301549182815201906008829e0160005260206000209060005b818110610edc5750505003610e2a9088610f74565b6040519b8c5260208c01526101808060408d01528b01610e4991610efe565b8a810360608c0152610e5a91610efe565b99610e6481610f3e565b60808a015260a089015260c088015260e08701528587036101008701525195868152602001936000965b808810610eb9575050849550610ea381610f3e565b6101208501526101408401526101608301520390f35b81516001600160a01b031686526001979097019660209586019590910190610e8e565b82546001600160a01b031684528b945060209093019260019283019201610e15565b919082519283825260005b848110610f2a575050826000602080949584010152601f8019910116010190565b602081830181015184830182015201610f09565b60041115610f4857565b634e487b7160e01b600052602160045260246000fd5b602435906001600160a01b038216820361017657565b90601f8019910116810190811067ffffffffffffffff82111761046b57604052565b81601f820112156101765780359067ffffffffffffffff821161046b5760405192610fcb601f8401601f191660200185610f74565b8284526020838301011161017657816000926020809301838601378301015290565b6000546001600160a01b0316330361100157565b606460405162461bcd60e51b815260206004820152602060248201527f4f776e61626c653a2063616c6c6572206973206e6f7420746865206f776e65726044820152fd5b90600182811c92168015611075575b602083101461105f57565b634e487b7160e01b600052602260045260246000fd5b91607f1691611054565b1561108657565b60405162461bcd60e51b815260206004820152601060248201526f2a30b9b59034b9903737ba1037b832b760811b6044820152606490fd5b60001981146103965760010190565b80548210156110e55760005260206000200190600090565b634e487b7160e01b600052603260045260246000fd5b906040519182600082549261110f84611045565b90818452600194858116908160001461117e575060011461113b575b505061113992500383610f74565b565b9093915060005260209081600020936000915b8183106111665750506111399350820101388061112b565b8554888401850152948501948794509183019161114e565b91505061113994506020925060ff191682840152151560051b820101388061112b565b60005260026020526040600020906008600092018054925b8381106111c95750505050600090565b6111d381836110cd565b905460039190911b1c6001600160a01b03908116908416146111fd576111f8906110be565b6111b9565b5050505060019056fea264697066735822122091e150f3df7094fb089ebb035056432a42884b1aa1338b4248179f56b901902864736f6c63430008120033",
  "linkReferences": {},
  "deployedLinkReferences": {}
}